{"contracts/Lottery.sol":{"Lottery":{"abi":[{"inputs":[{"internalType":"address","name":"vrfCoordinatorV2","type":"address"},{"internalType":"uint256","name":"ticketPrice","type":"uint256"},{"internalType":"bytes32","name":"gasLane","type":"bytes32"},{"internalType":"uint64","name":"subscriptionId","type":"uint64"},{"internalType":"uint32","name":"callbackGasLimit","type":"uint32"},{"internalType":"uint256","name":"interval","type":"uint256"}],"stateMutability":"nonpayable","type":"constructor"},{"inputs":[],"name":"ErrorLottery__Busy","type":"error"},{"inputs":[],"name":"ErrorLottery__InsufficientTicketAmount","type":"error"},{"inputs":[],"name":"ErrorLottery__PayingWinnerFailed","type":"error"},{"inputs":[],"name":"ErrorLottery__PerformUpkeepNotNeeded","type":"error"},{"inputs":[{"internalType":"address","name":"have","type":"address"},{"internalType":"address","name":"want","type":"address"}],"name":"OnlyCoordinatorCanFulfill","type":"error"},{"anonymous":false,"inputs":[{"indexed":true,"internalType":"bool","name":"upkeep","type":"bool"}],"name":"EventLottery__IsUpkeepTrue","type":"event"},{"anonymous":false,"inputs":[{"indexed":true,"internalType":"uint256","name":"requestId","type":"uint256"}],"name":"EventLottery__RequestRandomWords","type":"event"},{"anonymous":false,"inputs":[{"indexed":true,"internalType":"address","name":"player","type":"address"}],"name":"EventLottery__TicketBuyed","type":"event"},{"anonymous":false,"inputs":[{"indexed":true,"internalType":"address","name":"winner","type":"address"}],"name":"EventLottery__WinnerSelectedAndPaid","type":"event"},{"inputs":[],"name":"buyTicket","outputs":[],"stateMutability":"payable","type":"function"},{"inputs":[{"internalType":"bytes","name":"","type":"bytes"}],"name":"checkUpkeep","outputs":[{"internalType":"bool","name":"upkeepNeeded","type":"bool"},{"internalType":"bytes","name":"performData","type":"bytes"}],"stateMutability":"nonpayable","type":"function"},{"inputs":[],"name":"getInterval","outputs":[{"internalType":"uint256","name":"","type":"uint256"}],"stateMutability":"view","type":"function"},{"inputs":[],"name":"getLatestTimestamp","outputs":[{"internalType":"uint256","name":"","type":"uint256"}],"stateMutability":"view","type":"function"},{"inputs":[],"name":"getLotteryState","outputs":[{"internalType":"enum Lottery.LotteryState","name":"","type":"uint8"}],"stateMutability":"view","type":"function"},{"inputs":[],"name":"getNumPlayers","outputs":[{"internalType":"uint256","name":"","type":"uint256"}],"stateMutability":"view","type":"function"},{"inputs":[],"name":"getNumWords","outputs":[{"internalType":"uint256","name":"","type":"uint256"}],"stateMutability":"pure","type":"function"},{"inputs":[{"internalType":"uint256","name":"index","type":"uint256"}],"name":"getPlayers","outputs":[{"internalType":"address payable","name":"","type":"address"}],"stateMutability":"view","type":"function"},{"inputs":[],"name":"getRecentWinner","outputs":[{"internalType":"address","name":"","type":"address"}],"stateMutability":"view","type":"function"},{"inputs":[],"name":"getRequestConfirmations","outputs":[{"internalType":"uint256","name":"","type":"uint256"}],"stateMutability":"pure","type":"function"},{"inputs":[],"name":"getTicketPrice","outputs":[{"internalType":"uint256","name":"","type":"uint256"}],"stateMutability":"view","type":"function"},{"inputs":[{"internalType":"bytes","name":"","type":"bytes"}],"name":"performUpkeep","outputs":[],"stateMutability":"nonpayable","type":"function"},{"inputs":[{"internalType":"uint256","name":"requestId","type":"uint256"},{"internalType":"uint256[]","name":"randomWords","type":"uint256[]"}],"name":"rawFulfillRandomWords","outputs":[],"stateMutability":"nonpayable","type":"function"},{"inputs":[{"internalType":"enum Lottery.LotteryState","name":"_state","type":"uint8"}],"name":"setState","outputs":[],"stateMutability":"nonpayable","type":"function"}],"devdoc":{"kind":"dev","methods":{"checkUpkeep(bytes)":{"details":"the chainlink keeper waits that upkeepNeeded becomes true in order to performUpkeep and select the winner 1. the state of the Lottery is OPEN 2. every 30 seconds 3. at least 1 player 4. the contract has more than 0 ETH 5. subscription is fundedsince calldata does not work with strings, we use memory","params":{"performData":"is used when you want to perform some actions,  depending on the result of upkeeepNeeded >> used by performUpkeep","upkeepNeeded":"is returned: no need to specify the type."}},"constructor":{"details":"the constructor of VRFConsumerBaseV2 is called and Lottery gains access to the requestRandomness function*"},"performUpkeep(bytes)":{"details":"This method is called by the keepers when upkeepNeeded is true: we dont have to interact with it! Security feature / Escape the reentracy attack: This is a 2 tx process (no simulation can be performed) 1. request the random number - performUpkeep 2. number is returned from the chainlink and then we send money to the winner - fulfillRandomWords"}},"version":1},"evm":{"bytecode":{"linkReferences":{},"object":"610180604052600163ffffffff166101409063ffffffff168152503480156200002757600080fd5b506040516200192f3803806200192f83398181016040528101906200004d9190620002a9565b858073ffffffffffffffffffffffffffffffffffffffff1660808173ffffffffffffffffffffffffffffffffffffffff1681525050508460a081815250508573ffffffffffffffffffffffffffffffffffffffff1660c08173ffffffffffffffffffffffffffffffffffffffff16815250508360e081815250508267ffffffffffffffff166101008167ffffffffffffffff16815250508163ffffffff166101208163ffffffff16815250506000600160146101000a81548160ff0219169083600181111562000122576200012162000345565b5b02179055504260028190555080610160818152505050505050505062000374565b600080fd5b600073ffffffffffffffffffffffffffffffffffffffff82169050919050565b6000620001758262000148565b9050919050565b620001878162000168565b81146200019357600080fd5b50565b600081519050620001a7816200017c565b92915050565b6000819050919050565b620001c281620001ad565b8114620001ce57600080fd5b50565b600081519050620001e281620001b7565b92915050565b6000819050919050565b620001fd81620001e8565b81146200020957600080fd5b50565b6000815190506200021d81620001f2565b92915050565b600067ffffffffffffffff82169050919050565b620002428162000223565b81146200024e57600080fd5b50565b600081519050620002628162000237565b92915050565b600063ffffffff82169050919050565b620002838162000268565b81146200028f57600080fd5b50565b600081519050620002a38162000278565b92915050565b60008060008060008060c08789031215620002c957620002c862000143565b5b6000620002d989828a0162000196565b9650506020620002ec89828a01620001d1565b9550506040620002ff89828a016200020c565b94505060606200031289828a0162000251565b93505060806200032589828a0162000292565b92505060a06200033889828a01620001d1565b9150509295509295509295565b7f4e487b7100000000000000000000000000000000000000000000000000000000600052602160045260246000fd5b60805160a05160c05160e05161010051610120516101405161016051611539620003f66000396000818161071301526107de01526000818161051d0152610649015260006104fc015260006104d9015260006104b80152600061047c0152600081816107b6015261080401526000818161033c015261039001526115396000f3fe6080604052600436106100dd5760003560e01c80635f1b0fd81161007f57806387bb7ae01161005957806387bb7ae0146102af57806391ad27b4146102da578063edca914c14610305578063f43b52cb1461030f576100dd565b80635f1b0fd81461021b5780636b68c03c146102465780636e04ff0d14610271576100dd565b8063473f1ddc116100bb578063473f1ddc1461017157806353a2c19a1461019c57806355c9e926146101c757806356de96db146101f2576100dd565b80631fe543e3146100e25780634585e33b1461010b578063460e204914610134575b600080fd5b3480156100ee57600080fd5b5061010960048036038101906101049190610df6565b61033a565b005b34801561011757600080fd5b50610132600480360381019061012d9190610ead565b6103fa565b005b34801561014057600080fd5b5061015b60048036038101906101569190610efa565b6105d4565b6040516101689190610f68565b60405180910390f35b34801561017d57600080fd5b5061018661061b565b6040516101939190610fa4565b60405180910390f35b3480156101a857600080fd5b506101b1610645565b6040516101be9190610fce565b60405180910390f35b3480156101d357600080fd5b506101dc610673565b6040516101e99190610fce565b60405180910390f35b3480156101fe57600080fd5b506102196004803603810190610214919061100e565b61067f565b005b34801561022757600080fd5b506102306106ac565b60405161023d9190610fce565b60405180910390f35b34801561025257600080fd5b5061025b6106b9565b60405161026891906110b2565b60405180910390f35b34801561027d57600080fd5b5061029860048036038101906102939190611182565b6106d0565b6040516102a6929190611265565b60405180910390f35b3480156102bb57600080fd5b506102c46107b2565b6040516102d19190610fce565b60405180910390f35b3480156102e657600080fd5b506102ef6107da565b6040516102fc9190610fce565b60405180910390f35b61030d610802565b005b34801561031b57600080fd5b50610324610971565b6040516103319190610fce565b60405180910390f35b7f000000000000000000000000000000000000000000000000000000000000000073ffffffffffffffffffffffffffffffffffffffff163373ffffffffffffffffffffffffffffffffffffffff16146103ec57337f00000000000000000000000000000000000000000000000000000000000000006040517f1cf993f40000000000000000000000000000000000000000000000000000000081526004016103e3929190611295565b60405180910390fd5b6103f6828261097b565b5050565b60018060146101000a81548160ff0219169083600181111561041f5761041e61103b565b5b0217905550600061043e604051806020016040528060008152506106d0565b50905080610478576040517f7693f01a00000000000000000000000000000000000000000000000000000000815260040160405180910390fd5b60007f000000000000000000000000000000000000000000000000000000000000000073ffffffffffffffffffffffffffffffffffffffff16635d3b1d307f00000000000000000000000000000000000000000000000000000000000000007f000000000000000000000000000000000000000000000000000000000000000060037f00000000000000000000000000000000000000000000000000000000000000007f00000000000000000000000000000000000000000000000000000000000000006040518663ffffffff1660e01b815260040161055c959493929190611336565b6020604051808303816000875af115801561057b573d6000803e3d6000fd5b505050506040513d601f19601f8201168201806040525081019061059f919061139e565b9050807f10d712d992e93b5dcd2fb45b44dc511436ff77c66a5ca03bf2dbc89b07c160d160405160405180910390a250505050565b60008082815481106105e9576105e86113cb565b5b9060005260206000200160009054906101000a900473ffffffffffffffffffffffffffffffffffffffff169050919050565b6000600160009054906101000a900473ffffffffffffffffffffffffffffffffffffffff16905090565b60007f000000000000000000000000000000000000000000000000000000000000000063ffffffff16905090565b60008080549050905090565b80600160146101000a81548160ff021916908360018111156106a4576106a361103b565b5b021790555050565b6000600361ffff16905090565b6000600160149054906101000a900460ff16905090565b600060606000600160149054906101000a900460ff1660018111156106f8576106f761103b565b5b6000600181111561070c5761070b61103b565b5b14905060007f0000000000000000000000000000000000000000000000000000000000000000600254426107409190611429565b1190506000806000805490501190506000804711905060008480156107625750835b801561076b5750825b80156107745750815b90508015157f554fc1fd4b418f0afea2764fbe56a9342e175c4d47816662c6dd9d916adb7d8d60405160405180910390a28096505050505050915091565b60007f0000000000000000000000000000000000000000000000000000000000000000905090565b60007f0000000000000000000000000000000000000000000000000000000000000000905090565b7f000000000000000000000000000000000000000000000000000000000000000034101561085c576040517f80ae043200000000000000000000000000000000000000000000000000000000815260040160405180910390fd5b600060018111156108705761086f61103b565b5b600160149054906101000a900460ff1660018111156108925761089161103b565b5b146108c9576040517f7ec2ef9c00000000000000000000000000000000000000000000000000000000815260040160405180910390fd5b6000339080600181540180825580915050600190039060005260206000200160009091909190916101000a81548173ffffffffffffffffffffffffffffffffffffffff021916908373ffffffffffffffffffffffffffffffffffffffff1602179055503373ffffffffffffffffffffffffffffffffffffffff167fc013140ee7c0e76c7697e928d9a364c76f328b00fd4978e1b4ee61fa6974154d60405160405180910390a2565b6000600254905090565b6000808054905082600081518110610996576109956113cb565b5b60200260200101516109a8919061148c565b905060008082815481106109bf576109be6113cb565b5b9060005260206000200160009054906101000a900473ffffffffffffffffffffffffffffffffffffffff16905080600160006101000a81548173ffffffffffffffffffffffffffffffffffffffff021916908373ffffffffffffffffffffffffffffffffffffffff1602179055506000600160146101000a81548160ff02191690836001811115610a5357610a5261103b565b5b0217905550600067ffffffffffffffff811115610a7357610a72610cb3565b5b604051908082528060200260200182016040528015610aa15781602001602082028036833780820191505090505b5060009080519060200190610ab7929190610bac565b504260028190555060008173ffffffffffffffffffffffffffffffffffffffff1647604051610ae5906114ee565b60006040518083038185875af1925050503d8060008114610b22576040519150601f19603f3d011682016040523d82523d6000602084013e610b27565b606091505b5050905080610b62576040517f760b301700000000000000000000000000000000000000000000000000000000815260040160405180910390fd5b8173ffffffffffffffffffffffffffffffffffffffff167f27385c6bce45eba0fa17e24b25cc6bea4edd17adc706c6c30b2cea8c1039356e60405160405180910390a25050505050565b828054828255906000526020600020908101928215610c25579160200282015b82811115610c245782518260006101000a81548173ffffffffffffffffffffffffffffffffffffffff021916908373ffffffffffffffffffffffffffffffffffffffff16021790555091602001919060010190610bcc565b5b509050610c329190610c36565b5090565b5b80821115610c4f576000816000905550600101610c37565b5090565b6000604051905090565b600080fd5b600080fd5b6000819050919050565b610c7a81610c67565b8114610c8557600080fd5b50565b600081359050610c9781610c71565b92915050565b600080fd5b6000601f19601f8301169050919050565b7f4e487b7100000000000000000000000000000000000000000000000000000000600052604160045260246000fd5b610ceb82610ca2565b810181811067ffffffffffffffff82111715610d0a57610d09610cb3565b5b80604052505050565b6000610d1d610c53565b9050610d298282610ce2565b919050565b600067ffffffffffffffff821115610d4957610d48610cb3565b5b602082029050602081019050919050565b600080fd5b6000610d72610d6d84610d2e565b610d13565b90508083825260208201905060208402830185811115610d9557610d94610d5a565b5b835b81811015610dbe5780610daa8882610c88565b845260208401935050602081019050610d97565b5050509392505050565b600082601f830112610ddd57610ddc610c9d565b5b8135610ded848260208601610d5f565b91505092915050565b60008060408385031215610e0d57610e0c610c5d565b5b6000610e1b85828601610c88565b925050602083013567ffffffffffffffff811115610e3c57610e3b610c62565b5b610e4885828601610dc8565b9150509250929050565b600080fd5b60008083601f840112610e6d57610e6c610c9d565b5b8235905067ffffffffffffffff811115610e8a57610e89610e52565b5b602083019150836001820283011115610ea657610ea5610d5a565b5b9250929050565b60008060208385031215610ec457610ec3610c5d565b5b600083013567ffffffffffffffff811115610ee257610ee1610c62565b5b610eee85828601610e57565b92509250509250929050565b600060208284031215610f1057610f0f610c5d565b5b6000610f1e84828501610c88565b91505092915050565b600073ffffffffffffffffffffffffffffffffffffffff82169050919050565b6000610f5282610f27565b9050919050565b610f6281610f47565b82525050565b6000602082019050610f7d6000830184610f59565b92915050565b6000610f8e82610f27565b9050919050565b610f9e81610f83565b82525050565b6000602082019050610fb96000830184610f95565b92915050565b610fc881610c67565b82525050565b6000602082019050610fe36000830184610fbf565b92915050565b60028110610ff657600080fd5b50565b60008135905061100881610fe9565b92915050565b60006020828403121561102457611023610c5d565b5b600061103284828501610ff9565b91505092915050565b7f4e487b7100000000000000000000000000000000000000000000000000000000600052602160045260246000fd5b6002811061107b5761107a61103b565b5b50565b600081905061108c8261106a565b919050565b600061109c8261107e565b9050919050565b6110ac81611091565b82525050565b60006020820190506110c760008301846110a3565b92915050565b600080fd5b600067ffffffffffffffff8211156110ed576110ec610cb3565b5b6110f682610ca2565b9050602081019050919050565b82818337600083830152505050565b6000611125611120846110d2565b610d13565b905082815260208101848484011115611141576111406110cd565b5b61114c848285611103565b509392505050565b600082601f83011261116957611168610c9d565b5b8135611179848260208601611112565b91505092915050565b60006020828403121561119857611197610c5d565b5b600082013567ffffffffffffffff8111156111b6576111b5610c62565b5b6111c284828501611154565b91505092915050565b60008115159050919050565b6111e0816111cb565b82525050565b600081519050919050565b600082825260208201905092915050565b60005b83811015611220578082015181840152602081019050611205565b60008484015250505050565b6000611237826111e6565b61124181856111f1565b9350611251818560208601611202565b61125a81610ca2565b840191505092915050565b600060408201905061127a60008301856111d7565b818103602083015261128c818461122c565b90509392505050565b60006040820190506112aa6000830185610f95565b6112b76020830184610f95565b9392505050565b6000819050919050565b6112d1816112be565b82525050565b600067ffffffffffffffff82169050919050565b6112f4816112d7565b82525050565b600061ffff82169050919050565b611311816112fa565b82525050565b600063ffffffff82169050919050565b61133081611317565b82525050565b600060a08201905061134b60008301886112c8565b61135860208301876112eb565b6113656040830186611308565b6113726060830185611327565b61137f6080830184611327565b9695505050505050565b60008151905061139881610c71565b92915050565b6000602082840312156113b4576113b3610c5d565b5b60006113c284828501611389565b91505092915050565b7f4e487b7100000000000000000000000000000000000000000000000000000000600052603260045260246000fd5b7f4e487b7100000000000000000000000000000000000000000000000000000000600052601160045260246000fd5b600061143482610c67565b915061143f83610c67565b9250828203905081811115611457576114566113fa565b5b92915050565b7f4e487b7100000000000000000000000000000000000000000000000000000000600052601260045260246000fd5b600061149782610c67565b91506114a283610c67565b9250826114b2576114b161145d565b5b828206905092915050565b600081905092915050565b50565b60006114d86000836114bd565b91506114e3826114c8565b600082019050919050565b60006114f9826114cb565b915081905091905056fea2646970667358221220a2be961e43c583014ee167378ba2be6adc92b385a618bee8960711216fefb2c364736f6c63430008120033","opcodes":"PUSH2 0x180 PUSH1 0x40 MSTORE PUSH1 0x1 PUSH4 0xFFFFFFFF AND PUSH2 0x140 SWAP1 PUSH4 0xFFFFFFFF AND DUP2 MSTORE POP CALLVALUE DUP1 ISZERO PUSH3 0x27 JUMPI PUSH1 0x0 DUP1 REVERT JUMPDEST POP PUSH1 0x40 MLOAD PUSH3 0x192F CODESIZE SUB DUP1 PUSH3 0x192F DUP4 CODECOPY DUP2 DUP2 ADD PUSH1 0x40 MSTORE DUP2 ADD SWAP1 PUSH3 0x4D SWAP2 SWAP1 PUSH3 0x2A9 JUMP JUMPDEST DUP6 DUP1 PUSH20 0xFFFFFFFFFFFFFFFFFFFFFFFFFFFFFFFFFFFFFFFF AND PUSH1 0x80 DUP2 PUSH20 0xFFFFFFFFFFFFFFFFFFFFFFFFFFFFFFFFFFFFFFFF AND DUP2 MSTORE POP POP POP DUP5 PUSH1 0xA0 DUP2 DUP2 MSTORE POP POP DUP6 PUSH20 0xFFFFFFFFFFFFFFFFFFFFFFFFFFFFFFFFFFFFFFFF AND PUSH1 0xC0 DUP2 PUSH20 0xFFFFFFFFFFFFFFFFFFFFFFFFFFFFFFFFFFFFFFFF AND DUP2 MSTORE POP POP DUP4 PUSH1 0xE0 DUP2 DUP2 MSTORE POP POP DUP3 PUSH8 0xFFFFFFFFFFFFFFFF AND PUSH2 0x100 DUP2 PUSH8 0xFFFFFFFFFFFFFFFF AND DUP2 MSTORE POP POP DUP2 PUSH4 0xFFFFFFFF AND PUSH2 0x120 DUP2 PUSH4 0xFFFFFFFF AND DUP2 MSTORE POP POP PUSH1 0x0 PUSH1 0x1 PUSH1 0x14 PUSH2 0x100 EXP DUP2 SLOAD DUP2 PUSH1 0xFF MUL NOT AND SWAP1 DUP4 PUSH1 0x1 DUP2 GT ISZERO PUSH3 0x122 JUMPI PUSH3 0x121 PUSH3 0x345 JUMP JUMPDEST JUMPDEST MUL OR SWAP1 SSTORE POP TIMESTAMP PUSH1 0x2 DUP2 SWAP1 SSTORE POP DUP1 PUSH2 0x160 DUP2 DUP2 MSTORE POP POP POP POP POP POP POP POP PUSH3 0x374 JUMP JUMPDEST PUSH1 0x0 DUP1 REVERT JUMPDEST PUSH1 0x0 PUSH20 0xFFFFFFFFFFFFFFFFFFFFFFFFFFFFFFFFFFFFFFFF DUP3 AND SWAP1 POP SWAP2 SWAP1 POP JUMP JUMPDEST PUSH1 0x0 PUSH3 0x175 DUP3 PUSH3 0x148 JUMP JUMPDEST SWAP1 POP SWAP2 SWAP1 POP JUMP JUMPDEST PUSH3 0x187 DUP2 PUSH3 0x168 JUMP JUMPDEST DUP2 EQ PUSH3 0x193 JUMPI PUSH1 0x0 DUP1 REVERT JUMPDEST POP JUMP JUMPDEST PUSH1 0x0 DUP2 MLOAD SWAP1 POP PUSH3 0x1A7 DUP2 PUSH3 0x17C JUMP JUMPDEST SWAP3 SWAP2 POP POP JUMP JUMPDEST PUSH1 0x0 DUP2 SWAP1 POP SWAP2 SWAP1 POP JUMP JUMPDEST PUSH3 0x1C2 DUP2 PUSH3 0x1AD JUMP JUMPDEST DUP2 EQ PUSH3 0x1CE JUMPI PUSH1 0x0 DUP1 REVERT JUMPDEST POP JUMP JUMPDEST PUSH1 0x0 DUP2 MLOAD SWAP1 POP PUSH3 0x1E2 DUP2 PUSH3 0x1B7 JUMP JUMPDEST SWAP3 SWAP2 POP POP JUMP JUMPDEST PUSH1 0x0 DUP2 SWAP1 POP SWAP2 SWAP1 POP JUMP JUMPDEST PUSH3 0x1FD DUP2 PUSH3 0x1E8 JUMP JUMPDEST DUP2 EQ PUSH3 0x209 JUMPI PUSH1 0x0 DUP1 REVERT JUMPDEST POP JUMP JUMPDEST PUSH1 0x0 DUP2 MLOAD SWAP1 POP PUSH3 0x21D DUP2 PUSH3 0x1F2 JUMP JUMPDEST SWAP3 SWAP2 POP POP JUMP JUMPDEST PUSH1 0x0 PUSH8 0xFFFFFFFFFFFFFFFF DUP3 AND SWAP1 POP SWAP2 SWAP1 POP JUMP JUMPDEST PUSH3 0x242 DUP2 PUSH3 0x223 JUMP JUMPDEST DUP2 EQ PUSH3 0x24E JUMPI PUSH1 0x0 DUP1 REVERT JUMPDEST POP JUMP JUMPDEST PUSH1 0x0 DUP2 MLOAD SWAP1 POP PUSH3 0x262 DUP2 PUSH3 0x237 JUMP JUMPDEST SWAP3 SWAP2 POP POP JUMP JUMPDEST PUSH1 0x0 PUSH4 0xFFFFFFFF DUP3 AND SWAP1 POP SWAP2 SWAP1 POP JUMP JUMPDEST PUSH3 0x283 DUP2 PUSH3 0x268 JUMP JUMPDEST DUP2 EQ PUSH3 0x28F JUMPI PUSH1 0x0 DUP1 REVERT JUMPDEST POP JUMP JUMPDEST PUSH1 0x0 DUP2 MLOAD SWAP1 POP PUSH3 0x2A3 DUP2 PUSH3 0x278 JUMP JUMPDEST SWAP3 SWAP2 POP POP JUMP JUMPDEST PUSH1 0x0 DUP1 PUSH1 0x0 DUP1 PUSH1 0x0 DUP1 PUSH1 0xC0 DUP8 DUP10 SUB SLT ISZERO PUSH3 0x2C9 JUMPI PUSH3 0x2C8 PUSH3 0x143 JUMP JUMPDEST JUMPDEST PUSH1 0x0 PUSH3 0x2D9 DUP10 DUP3 DUP11 ADD PUSH3 0x196 JUMP JUMPDEST SWAP7 POP POP PUSH1 0x20 PUSH3 0x2EC DUP10 DUP3 DUP11 ADD PUSH3 0x1D1 JUMP JUMPDEST SWAP6 POP POP PUSH1 0x40 PUSH3 0x2FF DUP10 DUP3 DUP11 ADD PUSH3 0x20C JUMP JUMPDEST SWAP5 POP POP PUSH1 0x60 PUSH3 0x312 DUP10 DUP3 DUP11 ADD PUSH3 0x251 JUMP JUMPDEST SWAP4 POP POP PUSH1 0x80 PUSH3 0x325 DUP10 DUP3 DUP11 ADD PUSH3 0x292 JUMP JUMPDEST SWAP3 POP POP PUSH1 0xA0 PUSH3 0x338 DUP10 DUP3 DUP11 ADD PUSH3 0x1D1 JUMP JUMPDEST SWAP2 POP POP SWAP3 SWAP6 POP SWAP3 SWAP6 POP SWAP3 SWAP6 JUMP JUMPDEST PUSH32 0x4E487B7100000000000000000000000000000000000000000000000000000000 PUSH1 0x0 MSTORE PUSH1 0x21 PUSH1 0x4 MSTORE PUSH1 0x24 PUSH1 0x0 REVERT JUMPDEST PUSH1 0x80 MLOAD PUSH1 0xA0 MLOAD PUSH1 0xC0 MLOAD PUSH1 0xE0 MLOAD PUSH2 0x100 MLOAD PUSH2 0x120 MLOAD PUSH2 0x140 MLOAD PUSH2 0x160 MLOAD PUSH2 0x1539 PUSH3 0x3F6 PUSH1 0x0 CODECOPY PUSH1 0x0 DUP2 DUP2 PUSH2 0x713 ADD MSTORE PUSH2 0x7DE ADD MSTORE PUSH1 0x0 DUP2 DUP2 PUSH2 0x51D ADD MSTORE PUSH2 0x649 ADD MSTORE PUSH1 0x0 PUSH2 0x4FC ADD MSTORE PUSH1 0x0 PUSH2 0x4D9 ADD MSTORE PUSH1 0x0 PUSH2 0x4B8 ADD MSTORE PUSH1 0x0 PUSH2 0x47C ADD MSTORE PUSH1 0x0 DUP2 DUP2 PUSH2 0x7B6 ADD MSTORE PUSH2 0x804 ADD MSTORE PUSH1 0x0 DUP2 DUP2 PUSH2 0x33C ADD MSTORE PUSH2 0x390 ADD MSTORE PUSH2 0x1539 PUSH1 0x0 RETURN INVALID PUSH1 0x80 PUSH1 0x40 MSTORE PUSH1 0x4 CALLDATASIZE LT PUSH2 0xDD JUMPI PUSH1 0x0 CALLDATALOAD PUSH1 0xE0 SHR DUP1 PUSH4 0x5F1B0FD8 GT PUSH2 0x7F JUMPI DUP1 PUSH4 0x87BB7AE0 GT PUSH2 0x59 JUMPI DUP1 PUSH4 0x87BB7AE0 EQ PUSH2 0x2AF JUMPI DUP1 PUSH4 0x91AD27B4 EQ PUSH2 0x2DA JUMPI DUP1 PUSH4 0xEDCA914C EQ PUSH2 0x305 JUMPI DUP1 PUSH4 0xF43B52CB EQ PUSH2 0x30F JUMPI PUSH2 0xDD JUMP JUMPDEST DUP1 PUSH4 0x5F1B0FD8 EQ PUSH2 0x21B JUMPI DUP1 PUSH4 0x6B68C03C EQ PUSH2 0x246 JUMPI DUP1 PUSH4 0x6E04FF0D EQ PUSH2 0x271 JUMPI PUSH2 0xDD JUMP JUMPDEST DUP1 PUSH4 0x473F1DDC GT PUSH2 0xBB JUMPI DUP1 PUSH4 0x473F1DDC EQ PUSH2 0x171 JUMPI DUP1 PUSH4 0x53A2C19A EQ PUSH2 0x19C JUMPI DUP1 PUSH4 0x55C9E926 EQ PUSH2 0x1C7 JUMPI DUP1 PUSH4 0x56DE96DB EQ PUSH2 0x1F2 JUMPI PUSH2 0xDD JUMP JUMPDEST DUP1 PUSH4 0x1FE543E3 EQ PUSH2 0xE2 JUMPI DUP1 PUSH4 0x4585E33B EQ PUSH2 0x10B JUMPI DUP1 PUSH4 0x460E2049 EQ PUSH2 0x134 JUMPI JUMPDEST PUSH1 0x0 DUP1 REVERT JUMPDEST CALLVALUE DUP1 ISZERO PUSH2 0xEE JUMPI PUSH1 0x0 DUP1 REVERT JUMPDEST POP PUSH2 0x109 PUSH1 0x4 DUP1 CALLDATASIZE SUB DUP2 ADD SWAP1 PUSH2 0x104 SWAP2 SWAP1 PUSH2 0xDF6 JUMP JUMPDEST PUSH2 0x33A JUMP JUMPDEST STOP JUMPDEST CALLVALUE DUP1 ISZERO PUSH2 0x117 JUMPI PUSH1 0x0 DUP1 REVERT JUMPDEST POP PUSH2 0x132 PUSH1 0x4 DUP1 CALLDATASIZE SUB DUP2 ADD SWAP1 PUSH2 0x12D SWAP2 SWAP1 PUSH2 0xEAD JUMP JUMPDEST PUSH2 0x3FA JUMP JUMPDEST STOP JUMPDEST CALLVALUE DUP1 ISZERO PUSH2 0x140 JUMPI PUSH1 0x0 DUP1 REVERT JUMPDEST POP PUSH2 0x15B PUSH1 0x4 DUP1 CALLDATASIZE SUB DUP2 ADD SWAP1 PUSH2 0x156 SWAP2 SWAP1 PUSH2 0xEFA JUMP JUMPDEST PUSH2 0x5D4 JUMP JUMPDEST PUSH1 0x40 MLOAD PUSH2 0x168 SWAP2 SWAP1 PUSH2 0xF68 JUMP JUMPDEST PUSH1 0x40 MLOAD DUP1 SWAP2 SUB SWAP1 RETURN JUMPDEST CALLVALUE DUP1 ISZERO PUSH2 0x17D JUMPI PUSH1 0x0 DUP1 REVERT JUMPDEST POP PUSH2 0x186 PUSH2 0x61B JUMP JUMPDEST PUSH1 0x40 MLOAD PUSH2 0x193 SWAP2 SWAP1 PUSH2 0xFA4 JUMP JUMPDEST PUSH1 0x40 MLOAD DUP1 SWAP2 SUB SWAP1 RETURN JUMPDEST CALLVALUE DUP1 ISZERO PUSH2 0x1A8 JUMPI PUSH1 0x0 DUP1 REVERT JUMPDEST POP PUSH2 0x1B1 PUSH2 0x645 JUMP JUMPDEST PUSH1 0x40 MLOAD PUSH2 0x1BE SWAP2 SWAP1 PUSH2 0xFCE JUMP JUMPDEST PUSH1 0x40 MLOAD DUP1 SWAP2 SUB SWAP1 RETURN JUMPDEST CALLVALUE DUP1 ISZERO PUSH2 0x1D3 JUMPI PUSH1 0x0 DUP1 REVERT JUMPDEST POP PUSH2 0x1DC PUSH2 0x673 JUMP JUMPDEST PUSH1 0x40 MLOAD PUSH2 0x1E9 SWAP2 SWAP1 PUSH2 0xFCE JUMP JUMPDEST PUSH1 0x40 MLOAD DUP1 SWAP2 SUB SWAP1 RETURN JUMPDEST CALLVALUE DUP1 ISZERO PUSH2 0x1FE JUMPI PUSH1 0x0 DUP1 REVERT JUMPDEST POP PUSH2 0x219 PUSH1 0x4 DUP1 CALLDATASIZE SUB DUP2 ADD SWAP1 PUSH2 0x214 SWAP2 SWAP1 PUSH2 0x100E JUMP JUMPDEST PUSH2 0x67F JUMP JUMPDEST STOP JUMPDEST CALLVALUE DUP1 ISZERO PUSH2 0x227 JUMPI PUSH1 0x0 DUP1 REVERT JUMPDEST POP PUSH2 0x230 PUSH2 0x6AC JUMP JUMPDEST PUSH1 0x40 MLOAD PUSH2 0x23D SWAP2 SWAP1 PUSH2 0xFCE JUMP JUMPDEST PUSH1 0x40 MLOAD DUP1 SWAP2 SUB SWAP1 RETURN JUMPDEST CALLVALUE DUP1 ISZERO PUSH2 0x252 JUMPI PUSH1 0x0 DUP1 REVERT JUMPDEST POP PUSH2 0x25B PUSH2 0x6B9 JUMP JUMPDEST PUSH1 0x40 MLOAD PUSH2 0x268 SWAP2 SWAP1 PUSH2 0x10B2 JUMP JUMPDEST PUSH1 0x40 MLOAD DUP1 SWAP2 SUB SWAP1 RETURN JUMPDEST CALLVALUE DUP1 ISZERO PUSH2 0x27D JUMPI PUSH1 0x0 DUP1 REVERT JUMPDEST POP PUSH2 0x298 PUSH1 0x4 DUP1 CALLDATASIZE SUB DUP2 ADD SWAP1 PUSH2 0x293 SWAP2 SWAP1 PUSH2 0x1182 JUMP JUMPDEST PUSH2 0x6D0 JUMP JUMPDEST PUSH1 0x40 MLOAD PUSH2 0x2A6 SWAP3 SWAP2 SWAP1 PUSH2 0x1265 JUMP JUMPDEST PUSH1 0x40 MLOAD DUP1 SWAP2 SUB SWAP1 RETURN JUMPDEST CALLVALUE DUP1 ISZERO PUSH2 0x2BB JUMPI PUSH1 0x0 DUP1 REVERT JUMPDEST POP PUSH2 0x2C4 PUSH2 0x7B2 JUMP JUMPDEST PUSH1 0x40 MLOAD PUSH2 0x2D1 SWAP2 SWAP1 PUSH2 0xFCE JUMP JUMPDEST PUSH1 0x40 MLOAD DUP1 SWAP2 SUB SWAP1 RETURN JUMPDEST CALLVALUE DUP1 ISZERO PUSH2 0x2E6 JUMPI PUSH1 0x0 DUP1 REVERT JUMPDEST POP PUSH2 0x2EF PUSH2 0x7DA JUMP JUMPDEST PUSH1 0x40 MLOAD PUSH2 0x2FC SWAP2 SWAP1 PUSH2 0xFCE JUMP JUMPDEST PUSH1 0x40 MLOAD DUP1 SWAP2 SUB SWAP1 RETURN JUMPDEST PUSH2 0x30D PUSH2 0x802 JUMP JUMPDEST STOP JUMPDEST CALLVALUE DUP1 ISZERO PUSH2 0x31B JUMPI PUSH1 0x0 DUP1 REVERT JUMPDEST POP PUSH2 0x324 PUSH2 0x971 JUMP JUMPDEST PUSH1 0x40 MLOAD PUSH2 0x331 SWAP2 SWAP1 PUSH2 0xFCE JUMP JUMPDEST PUSH1 0x40 MLOAD DUP1 SWAP2 SUB SWAP1 RETURN JUMPDEST PUSH32 0x0 PUSH20 0xFFFFFFFFFFFFFFFFFFFFFFFFFFFFFFFFFFFFFFFF AND CALLER PUSH20 0xFFFFFFFFFFFFFFFFFFFFFFFFFFFFFFFFFFFFFFFF AND EQ PUSH2 0x3EC JUMPI CALLER PUSH32 0x0 PUSH1 0x40 MLOAD PUSH32 0x1CF993F400000000000000000000000000000000000000000000000000000000 DUP2 MSTORE PUSH1 0x4 ADD PUSH2 0x3E3 SWAP3 SWAP2 SWAP1 PUSH2 0x1295 JUMP JUMPDEST PUSH1 0x40 MLOAD DUP1 SWAP2 SUB SWAP1 REVERT JUMPDEST PUSH2 0x3F6 DUP3 DUP3 PUSH2 0x97B JUMP JUMPDEST POP POP JUMP JUMPDEST PUSH1 0x1 DUP1 PUSH1 0x14 PUSH2 0x100 EXP DUP2 SLOAD DUP2 PUSH1 0xFF MUL NOT AND SWAP1 DUP4 PUSH1 0x1 DUP2 GT ISZERO PUSH2 0x41F JUMPI PUSH2 0x41E PUSH2 0x103B JUMP JUMPDEST JUMPDEST MUL OR SWAP1 SSTORE POP PUSH1 0x0 PUSH2 0x43E PUSH1 0x40 MLOAD DUP1 PUSH1 0x20 ADD PUSH1 0x40 MSTORE DUP1 PUSH1 0x0 DUP2 MSTORE POP PUSH2 0x6D0 JUMP JUMPDEST POP SWAP1 POP DUP1 PUSH2 0x478 JUMPI PUSH1 0x40 MLOAD PUSH32 0x7693F01A00000000000000000000000000000000000000000000000000000000 DUP2 MSTORE PUSH1 0x4 ADD PUSH1 0x40 MLOAD DUP1 SWAP2 SUB SWAP1 REVERT JUMPDEST PUSH1 0x0 PUSH32 0x0 PUSH20 0xFFFFFFFFFFFFFFFFFFFFFFFFFFFFFFFFFFFFFFFF AND PUSH4 0x5D3B1D30 PUSH32 0x0 PUSH32 0x0 PUSH1 0x3 PUSH32 0x0 PUSH32 0x0 PUSH1 0x40 MLOAD DUP7 PUSH4 0xFFFFFFFF AND PUSH1 0xE0 SHL DUP2 MSTORE PUSH1 0x4 ADD PUSH2 0x55C SWAP6 SWAP5 SWAP4 SWAP3 SWAP2 SWAP1 PUSH2 0x1336 JUMP JUMPDEST PUSH1 0x20 PUSH1 0x40 MLOAD DUP1 DUP4 SUB DUP2 PUSH1 0x0 DUP8 GAS CALL ISZERO DUP1 ISZERO PUSH2 0x57B JUMPI RETURNDATASIZE PUSH1 0x0 DUP1 RETURNDATACOPY RETURNDATASIZE PUSH1 0x0 REVERT JUMPDEST POP POP POP POP PUSH1 0x40 MLOAD RETURNDATASIZE PUSH1 0x1F NOT PUSH1 0x1F DUP3 ADD AND DUP3 ADD DUP1 PUSH1 0x40 MSTORE POP DUP2 ADD SWAP1 PUSH2 0x59F SWAP2 SWAP1 PUSH2 0x139E JUMP JUMPDEST SWAP1 POP DUP1 PUSH32 0x10D712D992E93B5DCD2FB45B44DC511436FF77C66A5CA03BF2DBC89B07C160D1 PUSH1 0x40 MLOAD PUSH1 0x40 MLOAD DUP1 SWAP2 SUB SWAP1 LOG2 POP POP POP POP JUMP JUMPDEST PUSH1 0x0 DUP1 DUP3 DUP2 SLOAD DUP2 LT PUSH2 0x5E9 JUMPI PUSH2 0x5E8 PUSH2 0x13CB JUMP JUMPDEST JUMPDEST SWAP1 PUSH1 0x0 MSTORE PUSH1 0x20 PUSH1 0x0 KECCAK256 ADD PUSH1 0x0 SWAP1 SLOAD SWAP1 PUSH2 0x100 EXP SWAP1 DIV PUSH20 0xFFFFFFFFFFFFFFFFFFFFFFFFFFFFFFFFFFFFFFFF AND SWAP1 POP SWAP2 SWAP1 POP JUMP JUMPDEST PUSH1 0x0 PUSH1 0x1 PUSH1 0x0 SWAP1 SLOAD SWAP1 PUSH2 0x100 EXP SWAP1 DIV PUSH20 0xFFFFFFFFFFFFFFFFFFFFFFFFFFFFFFFFFFFFFFFF AND SWAP1 POP SWAP1 JUMP JUMPDEST PUSH1 0x0 PUSH32 0x0 PUSH4 0xFFFFFFFF AND SWAP1 POP SWAP1 JUMP JUMPDEST PUSH1 0x0 DUP1 DUP1 SLOAD SWAP1 POP SWAP1 POP SWAP1 JUMP JUMPDEST DUP1 PUSH1 0x1 PUSH1 0x14 PUSH2 0x100 EXP DUP2 SLOAD DUP2 PUSH1 0xFF MUL NOT AND SWAP1 DUP4 PUSH1 0x1 DUP2 GT ISZERO PUSH2 0x6A4 JUMPI PUSH2 0x6A3 PUSH2 0x103B JUMP JUMPDEST JUMPDEST MUL OR SWAP1 SSTORE POP POP JUMP JUMPDEST PUSH1 0x0 PUSH1 0x3 PUSH2 0xFFFF AND SWAP1 POP SWAP1 JUMP JUMPDEST PUSH1 0x0 PUSH1 0x1 PUSH1 0x14 SWAP1 SLOAD SWAP1 PUSH2 0x100 EXP SWAP1 DIV PUSH1 0xFF AND SWAP1 POP SWAP1 JUMP JUMPDEST PUSH1 0x0 PUSH1 0x60 PUSH1 0x0 PUSH1 0x1 PUSH1 0x14 SWAP1 SLOAD SWAP1 PUSH2 0x100 EXP SWAP1 DIV PUSH1 0xFF AND PUSH1 0x1 DUP2 GT ISZERO PUSH2 0x6F8 JUMPI PUSH2 0x6F7 PUSH2 0x103B JUMP JUMPDEST JUMPDEST PUSH1 0x0 PUSH1 0x1 DUP2 GT ISZERO PUSH2 0x70C JUMPI PUSH2 0x70B PUSH2 0x103B JUMP JUMPDEST JUMPDEST EQ SWAP1 POP PUSH1 0x0 PUSH32 0x0 PUSH1 0x2 SLOAD TIMESTAMP PUSH2 0x740 SWAP2 SWAP1 PUSH2 0x1429 JUMP JUMPDEST GT SWAP1 POP PUSH1 0x0 DUP1 PUSH1 0x0 DUP1 SLOAD SWAP1 POP GT SWAP1 POP PUSH1 0x0 DUP1 SELFBALANCE GT SWAP1 POP PUSH1 0x0 DUP5 DUP1 ISZERO PUSH2 0x762 JUMPI POP DUP4 JUMPDEST DUP1 ISZERO PUSH2 0x76B JUMPI POP DUP3 JUMPDEST DUP1 ISZERO PUSH2 0x774 JUMPI POP DUP2 JUMPDEST SWAP1 POP DUP1 ISZERO ISZERO PUSH32 0x554FC1FD4B418F0AFEA2764FBE56A9342E175C4D47816662C6DD9D916ADB7D8D PUSH1 0x40 MLOAD PUSH1 0x40 MLOAD DUP1 SWAP2 SUB SWAP1 LOG2 DUP1 SWAP7 POP POP POP POP POP POP SWAP2 POP SWAP2 JUMP JUMPDEST PUSH1 0x0 PUSH32 0x0 SWAP1 POP SWAP1 JUMP JUMPDEST PUSH1 0x0 PUSH32 0x0 SWAP1 POP SWAP1 JUMP JUMPDEST PUSH32 0x0 CALLVALUE LT ISZERO PUSH2 0x85C JUMPI PUSH1 0x40 MLOAD PUSH32 0x80AE043200000000000000000000000000000000000000000000000000000000 DUP2 MSTORE PUSH1 0x4 ADD PUSH1 0x40 MLOAD DUP1 SWAP2 SUB SWAP1 REVERT JUMPDEST PUSH1 0x0 PUSH1 0x1 DUP2 GT ISZERO PUSH2 0x870 JUMPI PUSH2 0x86F PUSH2 0x103B JUMP JUMPDEST JUMPDEST PUSH1 0x1 PUSH1 0x14 SWAP1 SLOAD SWAP1 PUSH2 0x100 EXP SWAP1 DIV PUSH1 0xFF AND PUSH1 0x1 DUP2 GT ISZERO PUSH2 0x892 JUMPI PUSH2 0x891 PUSH2 0x103B JUMP JUMPDEST JUMPDEST EQ PUSH2 0x8C9 JUMPI PUSH1 0x40 MLOAD PUSH32 0x7EC2EF9C00000000000000000000000000000000000000000000000000000000 DUP2 MSTORE PUSH1 0x4 ADD PUSH1 0x40 MLOAD DUP1 SWAP2 SUB SWAP1 REVERT JUMPDEST PUSH1 0x0 CALLER SWAP1 DUP1 PUSH1 0x1 DUP2 SLOAD ADD DUP1 DUP3 SSTORE DUP1 SWAP2 POP POP PUSH1 0x1 SWAP1 SUB SWAP1 PUSH1 0x0 MSTORE PUSH1 0x20 PUSH1 0x0 KECCAK256 ADD PUSH1 0x0 SWAP1 SWAP2 SWAP1 SWAP2 SWAP1 SWAP2 PUSH2 0x100 EXP DUP2 SLOAD DUP2 PUSH20 0xFFFFFFFFFFFFFFFFFFFFFFFFFFFFFFFFFFFFFFFF MUL NOT AND SWAP1 DUP4 PUSH20 0xFFFFFFFFFFFFFFFFFFFFFFFFFFFFFFFFFFFFFFFF AND MUL OR SWAP1 SSTORE POP CALLER PUSH20 0xFFFFFFFFFFFFFFFFFFFFFFFFFFFFFFFFFFFFFFFF AND PUSH32 0xC013140EE7C0E76C7697E928D9A364C76F328B00FD4978E1B4EE61FA6974154D PUSH1 0x40 MLOAD PUSH1 0x40 MLOAD DUP1 SWAP2 SUB SWAP1 LOG2 JUMP JUMPDEST PUSH1 0x0 PUSH1 0x2 SLOAD SWAP1 POP SWAP1 JUMP JUMPDEST PUSH1 0x0 DUP1 DUP1 SLOAD SWAP1 POP DUP3 PUSH1 0x0 DUP2 MLOAD DUP2 LT PUSH2 0x996 JUMPI PUSH2 0x995 PUSH2 0x13CB JUMP JUMPDEST JUMPDEST PUSH1 0x20 MUL PUSH1 0x20 ADD ADD MLOAD PUSH2 0x9A8 SWAP2 SWAP1 PUSH2 0x148C JUMP JUMPDEST SWAP1 POP PUSH1 0x0 DUP1 DUP3 DUP2 SLOAD DUP2 LT PUSH2 0x9BF JUMPI PUSH2 0x9BE PUSH2 0x13CB JUMP JUMPDEST JUMPDEST SWAP1 PUSH1 0x0 MSTORE PUSH1 0x20 PUSH1 0x0 KECCAK256 ADD PUSH1 0x0 SWAP1 SLOAD SWAP1 PUSH2 0x100 EXP SWAP1 DIV PUSH20 0xFFFFFFFFFFFFFFFFFFFFFFFFFFFFFFFFFFFFFFFF AND SWAP1 POP DUP1 PUSH1 0x1 PUSH1 0x0 PUSH2 0x100 EXP DUP2 SLOAD DUP2 PUSH20 0xFFFFFFFFFFFFFFFFFFFFFFFFFFFFFFFFFFFFFFFF MUL NOT AND SWAP1 DUP4 PUSH20 0xFFFFFFFFFFFFFFFFFFFFFFFFFFFFFFFFFFFFFFFF AND MUL OR SWAP1 SSTORE POP PUSH1 0x0 PUSH1 0x1 PUSH1 0x14 PUSH2 0x100 EXP DUP2 SLOAD DUP2 PUSH1 0xFF MUL NOT AND SWAP1 DUP4 PUSH1 0x1 DUP2 GT ISZERO PUSH2 0xA53 JUMPI PUSH2 0xA52 PUSH2 0x103B JUMP JUMPDEST JUMPDEST MUL OR SWAP1 SSTORE POP PUSH1 0x0 PUSH8 0xFFFFFFFFFFFFFFFF DUP2 GT ISZERO PUSH2 0xA73 JUMPI PUSH2 0xA72 PUSH2 0xCB3 JUMP JUMPDEST JUMPDEST PUSH1 0x40 MLOAD SWAP1 DUP1 DUP3 MSTORE DUP1 PUSH1 0x20 MUL PUSH1 0x20 ADD DUP3 ADD PUSH1 0x40 MSTORE DUP1 ISZERO PUSH2 0xAA1 JUMPI DUP2 PUSH1 0x20 ADD PUSH1 0x20 DUP3 MUL DUP1 CALLDATASIZE DUP4 CALLDATACOPY DUP1 DUP3 ADD SWAP2 POP POP SWAP1 POP JUMPDEST POP PUSH1 0x0 SWAP1 DUP1 MLOAD SWAP1 PUSH1 0x20 ADD SWAP1 PUSH2 0xAB7 SWAP3 SWAP2 SWAP1 PUSH2 0xBAC JUMP JUMPDEST POP TIMESTAMP PUSH1 0x2 DUP2 SWAP1 SSTORE POP PUSH1 0x0 DUP2 PUSH20 0xFFFFFFFFFFFFFFFFFFFFFFFFFFFFFFFFFFFFFFFF AND SELFBALANCE PUSH1 0x40 MLOAD PUSH2 0xAE5 SWAP1 PUSH2 0x14EE JUMP JUMPDEST PUSH1 0x0 PUSH1 0x40 MLOAD DUP1 DUP4 SUB DUP2 DUP6 DUP8 GAS CALL SWAP3 POP POP POP RETURNDATASIZE DUP1 PUSH1 0x0 DUP2 EQ PUSH2 0xB22 JUMPI PUSH1 0x40 MLOAD SWAP2 POP PUSH1 0x1F NOT PUSH1 0x3F RETURNDATASIZE ADD AND DUP3 ADD PUSH1 0x40 MSTORE RETURNDATASIZE DUP3 MSTORE RETURNDATASIZE PUSH1 0x0 PUSH1 0x20 DUP5 ADD RETURNDATACOPY PUSH2 0xB27 JUMP JUMPDEST PUSH1 0x60 SWAP2 POP JUMPDEST POP POP SWAP1 POP DUP1 PUSH2 0xB62 JUMPI PUSH1 0x40 MLOAD PUSH32 0x760B301700000000000000000000000000000000000000000000000000000000 DUP2 MSTORE PUSH1 0x4 ADD PUSH1 0x40 MLOAD DUP1 SWAP2 SUB SWAP1 REVERT JUMPDEST DUP2 PUSH20 0xFFFFFFFFFFFFFFFFFFFFFFFFFFFFFFFFFFFFFFFF AND PUSH32 0x27385C6BCE45EBA0FA17E24B25CC6BEA4EDD17ADC706C6C30B2CEA8C1039356E PUSH1 0x40 MLOAD PUSH1 0x40 MLOAD DUP1 SWAP2 SUB SWAP1 LOG2 POP POP POP POP POP JUMP JUMPDEST DUP3 DUP1 SLOAD DUP3 DUP3 SSTORE SWAP1 PUSH1 0x0 MSTORE PUSH1 0x20 PUSH1 0x0 KECCAK256 SWAP1 DUP2 ADD SWAP3 DUP3 ISZERO PUSH2 0xC25 JUMPI SWAP2 PUSH1 0x20 MUL DUP3 ADD JUMPDEST DUP3 DUP2 GT ISZERO PUSH2 0xC24 JUMPI DUP3 MLOAD DUP3 PUSH1 0x0 PUSH2 0x100 EXP DUP2 SLOAD DUP2 PUSH20 0xFFFFFFFFFFFFFFFFFFFFFFFFFFFFFFFFFFFFFFFF MUL NOT AND SWAP1 DUP4 PUSH20 0xFFFFFFFFFFFFFFFFFFFFFFFFFFFFFFFFFFFFFFFF AND MUL OR SWAP1 SSTORE POP SWAP2 PUSH1 0x20 ADD SWAP2 SWAP1 PUSH1 0x1 ADD SWAP1 PUSH2 0xBCC JUMP JUMPDEST JUMPDEST POP SWAP1 POP PUSH2 0xC32 SWAP2 SWAP1 PUSH2 0xC36 JUMP JUMPDEST POP SWAP1 JUMP JUMPDEST JUMPDEST DUP1 DUP3 GT ISZERO PUSH2 0xC4F JUMPI PUSH1 0x0 DUP2 PUSH1 0x0 SWAP1 SSTORE POP PUSH1 0x1 ADD PUSH2 0xC37 JUMP JUMPDEST POP SWAP1 JUMP JUMPDEST PUSH1 0x0 PUSH1 0x40 MLOAD SWAP1 POP SWAP1 JUMP JUMPDEST PUSH1 0x0 DUP1 REVERT JUMPDEST PUSH1 0x0 DUP1 REVERT JUMPDEST PUSH1 0x0 DUP2 SWAP1 POP SWAP2 SWAP1 POP JUMP JUMPDEST PUSH2 0xC7A DUP2 PUSH2 0xC67 JUMP JUMPDEST DUP2 EQ PUSH2 0xC85 JUMPI PUSH1 0x0 DUP1 REVERT JUMPDEST POP JUMP JUMPDEST PUSH1 0x0 DUP2 CALLDATALOAD SWAP1 POP PUSH2 0xC97 DUP2 PUSH2 0xC71 JUMP JUMPDEST SWAP3 SWAP2 POP POP JUMP JUMPDEST PUSH1 0x0 DUP1 REVERT JUMPDEST PUSH1 0x0 PUSH1 0x1F NOT PUSH1 0x1F DUP4 ADD AND SWAP1 POP SWAP2 SWAP1 POP JUMP JUMPDEST PUSH32 0x4E487B7100000000000000000000000000000000000000000000000000000000 PUSH1 0x0 MSTORE PUSH1 0x41 PUSH1 0x4 MSTORE PUSH1 0x24 PUSH1 0x0 REVERT JUMPDEST PUSH2 0xCEB DUP3 PUSH2 0xCA2 JUMP JUMPDEST DUP2 ADD DUP2 DUP2 LT PUSH8 0xFFFFFFFFFFFFFFFF DUP3 GT OR ISZERO PUSH2 0xD0A JUMPI PUSH2 0xD09 PUSH2 0xCB3 JUMP JUMPDEST JUMPDEST DUP1 PUSH1 0x40 MSTORE POP POP POP JUMP JUMPDEST PUSH1 0x0 PUSH2 0xD1D PUSH2 0xC53 JUMP JUMPDEST SWAP1 POP PUSH2 0xD29 DUP3 DUP3 PUSH2 0xCE2 JUMP JUMPDEST SWAP2 SWAP1 POP JUMP JUMPDEST PUSH1 0x0 PUSH8 0xFFFFFFFFFFFFFFFF DUP3 GT ISZERO PUSH2 0xD49 JUMPI PUSH2 0xD48 PUSH2 0xCB3 JUMP JUMPDEST JUMPDEST PUSH1 0x20 DUP3 MUL SWAP1 POP PUSH1 0x20 DUP2 ADD SWAP1 POP SWAP2 SWAP1 POP JUMP JUMPDEST PUSH1 0x0 DUP1 REVERT JUMPDEST PUSH1 0x0 PUSH2 0xD72 PUSH2 0xD6D DUP5 PUSH2 0xD2E JUMP JUMPDEST PUSH2 0xD13 JUMP JUMPDEST SWAP1 POP DUP1 DUP4 DUP3 MSTORE PUSH1 0x20 DUP3 ADD SWAP1 POP PUSH1 0x20 DUP5 MUL DUP4 ADD DUP6 DUP2 GT ISZERO PUSH2 0xD95 JUMPI PUSH2 0xD94 PUSH2 0xD5A JUMP JUMPDEST JUMPDEST DUP4 JUMPDEST DUP2 DUP2 LT ISZERO PUSH2 0xDBE JUMPI DUP1 PUSH2 0xDAA DUP9 DUP3 PUSH2 0xC88 JUMP JUMPDEST DUP5 MSTORE PUSH1 0x20 DUP5 ADD SWAP4 POP POP PUSH1 0x20 DUP2 ADD SWAP1 POP PUSH2 0xD97 JUMP JUMPDEST POP POP POP SWAP4 SWAP3 POP POP POP JUMP JUMPDEST PUSH1 0x0 DUP3 PUSH1 0x1F DUP4 ADD SLT PUSH2 0xDDD JUMPI PUSH2 0xDDC PUSH2 0xC9D JUMP JUMPDEST JUMPDEST DUP2 CALLDATALOAD PUSH2 0xDED DUP5 DUP3 PUSH1 0x20 DUP7 ADD PUSH2 0xD5F JUMP JUMPDEST SWAP2 POP POP SWAP3 SWAP2 POP POP JUMP JUMPDEST PUSH1 0x0 DUP1 PUSH1 0x40 DUP4 DUP6 SUB SLT ISZERO PUSH2 0xE0D JUMPI PUSH2 0xE0C PUSH2 0xC5D JUMP JUMPDEST JUMPDEST PUSH1 0x0 PUSH2 0xE1B DUP6 DUP3 DUP7 ADD PUSH2 0xC88 JUMP JUMPDEST SWAP3 POP POP PUSH1 0x20 DUP4 ADD CALLDATALOAD PUSH8 0xFFFFFFFFFFFFFFFF DUP2 GT ISZERO PUSH2 0xE3C JUMPI PUSH2 0xE3B PUSH2 0xC62 JUMP JUMPDEST JUMPDEST PUSH2 0xE48 DUP6 DUP3 DUP7 ADD PUSH2 0xDC8 JUMP JUMPDEST SWAP2 POP POP SWAP3 POP SWAP3 SWAP1 POP JUMP JUMPDEST PUSH1 0x0 DUP1 REVERT JUMPDEST PUSH1 0x0 DUP1 DUP4 PUSH1 0x1F DUP5 ADD SLT PUSH2 0xE6D JUMPI PUSH2 0xE6C PUSH2 0xC9D JUMP JUMPDEST JUMPDEST DUP3 CALLDATALOAD SWAP1 POP PUSH8 0xFFFFFFFFFFFFFFFF DUP2 GT ISZERO PUSH2 0xE8A JUMPI PUSH2 0xE89 PUSH2 0xE52 JUMP JUMPDEST JUMPDEST PUSH1 0x20 DUP4 ADD SWAP2 POP DUP4 PUSH1 0x1 DUP3 MUL DUP4 ADD GT ISZERO PUSH2 0xEA6 JUMPI PUSH2 0xEA5 PUSH2 0xD5A JUMP JUMPDEST JUMPDEST SWAP3 POP SWAP3 SWAP1 POP JUMP JUMPDEST PUSH1 0x0 DUP1 PUSH1 0x20 DUP4 DUP6 SUB SLT ISZERO PUSH2 0xEC4 JUMPI PUSH2 0xEC3 PUSH2 0xC5D JUMP JUMPDEST JUMPDEST PUSH1 0x0 DUP4 ADD CALLDATALOAD PUSH8 0xFFFFFFFFFFFFFFFF DUP2 GT ISZERO PUSH2 0xEE2 JUMPI PUSH2 0xEE1 PUSH2 0xC62 JUMP JUMPDEST JUMPDEST PUSH2 0xEEE DUP6 DUP3 DUP7 ADD PUSH2 0xE57 JUMP JUMPDEST SWAP3 POP SWAP3 POP POP SWAP3 POP SWAP3 SWAP1 POP JUMP JUMPDEST PUSH1 0x0 PUSH1 0x20 DUP3 DUP5 SUB SLT ISZERO PUSH2 0xF10 JUMPI PUSH2 0xF0F PUSH2 0xC5D JUMP JUMPDEST JUMPDEST PUSH1 0x0 PUSH2 0xF1E DUP5 DUP3 DUP6 ADD PUSH2 0xC88 JUMP JUMPDEST SWAP2 POP POP SWAP3 SWAP2 POP POP JUMP JUMPDEST PUSH1 0x0 PUSH20 0xFFFFFFFFFFFFFFFFFFFFFFFFFFFFFFFFFFFFFFFF DUP3 AND SWAP1 POP SWAP2 SWAP1 POP JUMP JUMPDEST PUSH1 0x0 PUSH2 0xF52 DUP3 PUSH2 0xF27 JUMP JUMPDEST SWAP1 POP SWAP2 SWAP1 POP JUMP JUMPDEST PUSH2 0xF62 DUP2 PUSH2 0xF47 JUMP JUMPDEST DUP3 MSTORE POP POP JUMP JUMPDEST PUSH1 0x0 PUSH1 0x20 DUP3 ADD SWAP1 POP PUSH2 0xF7D PUSH1 0x0 DUP4 ADD DUP5 PUSH2 0xF59 JUMP JUMPDEST SWAP3 SWAP2 POP POP JUMP JUMPDEST PUSH1 0x0 PUSH2 0xF8E DUP3 PUSH2 0xF27 JUMP JUMPDEST SWAP1 POP SWAP2 SWAP1 POP JUMP JUMPDEST PUSH2 0xF9E DUP2 PUSH2 0xF83 JUMP JUMPDEST DUP3 MSTORE POP POP JUMP JUMPDEST PUSH1 0x0 PUSH1 0x20 DUP3 ADD SWAP1 POP PUSH2 0xFB9 PUSH1 0x0 DUP4 ADD DUP5 PUSH2 0xF95 JUMP JUMPDEST SWAP3 SWAP2 POP POP JUMP JUMPDEST PUSH2 0xFC8 DUP2 PUSH2 0xC67 JUMP JUMPDEST DUP3 MSTORE POP POP JUMP JUMPDEST PUSH1 0x0 PUSH1 0x20 DUP3 ADD SWAP1 POP PUSH2 0xFE3 PUSH1 0x0 DUP4 ADD DUP5 PUSH2 0xFBF JUMP JUMPDEST SWAP3 SWAP2 POP POP JUMP JUMPDEST PUSH1 0x2 DUP2 LT PUSH2 0xFF6 JUMPI PUSH1 0x0 DUP1 REVERT JUMPDEST POP JUMP JUMPDEST PUSH1 0x0 DUP2 CALLDATALOAD SWAP1 POP PUSH2 0x1008 DUP2 PUSH2 0xFE9 JUMP JUMPDEST SWAP3 SWAP2 POP POP JUMP JUMPDEST PUSH1 0x0 PUSH1 0x20 DUP3 DUP5 SUB SLT ISZERO PUSH2 0x1024 JUMPI PUSH2 0x1023 PUSH2 0xC5D JUMP JUMPDEST JUMPDEST PUSH1 0x0 PUSH2 0x1032 DUP5 DUP3 DUP6 ADD PUSH2 0xFF9 JUMP JUMPDEST SWAP2 POP POP SWAP3 SWAP2 POP POP JUMP JUMPDEST PUSH32 0x4E487B7100000000000000000000000000000000000000000000000000000000 PUSH1 0x0 MSTORE PUSH1 0x21 PUSH1 0x4 MSTORE PUSH1 0x24 PUSH1 0x0 REVERT JUMPDEST PUSH1 0x2 DUP2 LT PUSH2 0x107B JUMPI PUSH2 0x107A PUSH2 0x103B JUMP JUMPDEST JUMPDEST POP JUMP JUMPDEST PUSH1 0x0 DUP2 SWAP1 POP PUSH2 0x108C DUP3 PUSH2 0x106A JUMP JUMPDEST SWAP2 SWAP1 POP JUMP JUMPDEST PUSH1 0x0 PUSH2 0x109C DUP3 PUSH2 0x107E JUMP JUMPDEST SWAP1 POP SWAP2 SWAP1 POP JUMP JUMPDEST PUSH2 0x10AC DUP2 PUSH2 0x1091 JUMP JUMPDEST DUP3 MSTORE POP POP JUMP JUMPDEST PUSH1 0x0 PUSH1 0x20 DUP3 ADD SWAP1 POP PUSH2 0x10C7 PUSH1 0x0 DUP4 ADD DUP5 PUSH2 0x10A3 JUMP JUMPDEST SWAP3 SWAP2 POP POP JUMP JUMPDEST PUSH1 0x0 DUP1 REVERT JUMPDEST PUSH1 0x0 PUSH8 0xFFFFFFFFFFFFFFFF DUP3 GT ISZERO PUSH2 0x10ED JUMPI PUSH2 0x10EC PUSH2 0xCB3 JUMP JUMPDEST JUMPDEST PUSH2 0x10F6 DUP3 PUSH2 0xCA2 JUMP JUMPDEST SWAP1 POP PUSH1 0x20 DUP2 ADD SWAP1 POP SWAP2 SWAP1 POP JUMP JUMPDEST DUP3 DUP2 DUP4 CALLDATACOPY PUSH1 0x0 DUP4 DUP4 ADD MSTORE POP POP POP JUMP JUMPDEST PUSH1 0x0 PUSH2 0x1125 PUSH2 0x1120 DUP5 PUSH2 0x10D2 JUMP JUMPDEST PUSH2 0xD13 JUMP JUMPDEST SWAP1 POP DUP3 DUP2 MSTORE PUSH1 0x20 DUP2 ADD DUP5 DUP5 DUP5 ADD GT ISZERO PUSH2 0x1141 JUMPI PUSH2 0x1140 PUSH2 0x10CD JUMP JUMPDEST JUMPDEST PUSH2 0x114C DUP5 DUP3 DUP6 PUSH2 0x1103 JUMP JUMPDEST POP SWAP4 SWAP3 POP POP POP JUMP JUMPDEST PUSH1 0x0 DUP3 PUSH1 0x1F DUP4 ADD SLT PUSH2 0x1169 JUMPI PUSH2 0x1168 PUSH2 0xC9D JUMP JUMPDEST JUMPDEST DUP2 CALLDATALOAD PUSH2 0x1179 DUP5 DUP3 PUSH1 0x20 DUP7 ADD PUSH2 0x1112 JUMP JUMPDEST SWAP2 POP POP SWAP3 SWAP2 POP POP JUMP JUMPDEST PUSH1 0x0 PUSH1 0x20 DUP3 DUP5 SUB SLT ISZERO PUSH2 0x1198 JUMPI PUSH2 0x1197 PUSH2 0xC5D JUMP JUMPDEST JUMPDEST PUSH1 0x0 DUP3 ADD CALLDATALOAD PUSH8 0xFFFFFFFFFFFFFFFF DUP2 GT ISZERO PUSH2 0x11B6 JUMPI PUSH2 0x11B5 PUSH2 0xC62 JUMP JUMPDEST JUMPDEST PUSH2 0x11C2 DUP5 DUP3 DUP6 ADD PUSH2 0x1154 JUMP JUMPDEST SWAP2 POP POP SWAP3 SWAP2 POP POP JUMP JUMPDEST PUSH1 0x0 DUP2 ISZERO ISZERO SWAP1 POP SWAP2 SWAP1 POP JUMP JUMPDEST PUSH2 0x11E0 DUP2 PUSH2 0x11CB JUMP JUMPDEST DUP3 MSTORE POP POP JUMP JUMPDEST PUSH1 0x0 DUP2 MLOAD SWAP1 POP SWAP2 SWAP1 POP JUMP JUMPDEST PUSH1 0x0 DUP3 DUP3 MSTORE PUSH1 0x20 DUP3 ADD SWAP1 POP SWAP3 SWAP2 POP POP JUMP JUMPDEST PUSH1 0x0 JUMPDEST DUP4 DUP2 LT ISZERO PUSH2 0x1220 JUMPI DUP1 DUP3 ADD MLOAD DUP2 DUP5 ADD MSTORE PUSH1 0x20 DUP2 ADD SWAP1 POP PUSH2 0x1205 JUMP JUMPDEST PUSH1 0x0 DUP5 DUP5 ADD MSTORE POP POP POP POP JUMP JUMPDEST PUSH1 0x0 PUSH2 0x1237 DUP3 PUSH2 0x11E6 JUMP JUMPDEST PUSH2 0x1241 DUP2 DUP6 PUSH2 0x11F1 JUMP JUMPDEST SWAP4 POP PUSH2 0x1251 DUP2 DUP6 PUSH1 0x20 DUP7 ADD PUSH2 0x1202 JUMP JUMPDEST PUSH2 0x125A DUP2 PUSH2 0xCA2 JUMP JUMPDEST DUP5 ADD SWAP2 POP POP SWAP3 SWAP2 POP POP JUMP JUMPDEST PUSH1 0x0 PUSH1 0x40 DUP3 ADD SWAP1 POP PUSH2 0x127A PUSH1 0x0 DUP4 ADD DUP6 PUSH2 0x11D7 JUMP JUMPDEST DUP2 DUP2 SUB PUSH1 0x20 DUP4 ADD MSTORE PUSH2 0x128C DUP2 DUP5 PUSH2 0x122C JUMP JUMPDEST SWAP1 POP SWAP4 SWAP3 POP POP POP JUMP JUMPDEST PUSH1 0x0 PUSH1 0x40 DUP3 ADD SWAP1 POP PUSH2 0x12AA PUSH1 0x0 DUP4 ADD DUP6 PUSH2 0xF95 JUMP JUMPDEST PUSH2 0x12B7 PUSH1 0x20 DUP4 ADD DUP5 PUSH2 0xF95 JUMP JUMPDEST SWAP4 SWAP3 POP POP POP JUMP JUMPDEST PUSH1 0x0 DUP2 SWAP1 POP SWAP2 SWAP1 POP JUMP JUMPDEST PUSH2 0x12D1 DUP2 PUSH2 0x12BE JUMP JUMPDEST DUP3 MSTORE POP POP JUMP JUMPDEST PUSH1 0x0 PUSH8 0xFFFFFFFFFFFFFFFF DUP3 AND SWAP1 POP SWAP2 SWAP1 POP JUMP JUMPDEST PUSH2 0x12F4 DUP2 PUSH2 0x12D7 JUMP JUMPDEST DUP3 MSTORE POP POP JUMP JUMPDEST PUSH1 0x0 PUSH2 0xFFFF DUP3 AND SWAP1 POP SWAP2 SWAP1 POP JUMP JUMPDEST PUSH2 0x1311 DUP2 PUSH2 0x12FA JUMP JUMPDEST DUP3 MSTORE POP POP JUMP JUMPDEST PUSH1 0x0 PUSH4 0xFFFFFFFF DUP3 AND SWAP1 POP SWAP2 SWAP1 POP JUMP JUMPDEST PUSH2 0x1330 DUP2 PUSH2 0x1317 JUMP JUMPDEST DUP3 MSTORE POP POP JUMP JUMPDEST PUSH1 0x0 PUSH1 0xA0 DUP3 ADD SWAP1 POP PUSH2 0x134B PUSH1 0x0 DUP4 ADD DUP9 PUSH2 0x12C8 JUMP JUMPDEST PUSH2 0x1358 PUSH1 0x20 DUP4 ADD DUP8 PUSH2 0x12EB JUMP JUMPDEST PUSH2 0x1365 PUSH1 0x40 DUP4 ADD DUP7 PUSH2 0x1308 JUMP JUMPDEST PUSH2 0x1372 PUSH1 0x60 DUP4 ADD DUP6 PUSH2 0x1327 JUMP JUMPDEST PUSH2 0x137F PUSH1 0x80 DUP4 ADD DUP5 PUSH2 0x1327 JUMP JUMPDEST SWAP7 SWAP6 POP POP POP POP POP POP JUMP JUMPDEST PUSH1 0x0 DUP2 MLOAD SWAP1 POP PUSH2 0x1398 DUP2 PUSH2 0xC71 JUMP JUMPDEST SWAP3 SWAP2 POP POP JUMP JUMPDEST PUSH1 0x0 PUSH1 0x20 DUP3 DUP5 SUB SLT ISZERO PUSH2 0x13B4 JUMPI PUSH2 0x13B3 PUSH2 0xC5D JUMP JUMPDEST JUMPDEST PUSH1 0x0 PUSH2 0x13C2 DUP5 DUP3 DUP6 ADD PUSH2 0x1389 JUMP JUMPDEST SWAP2 POP POP SWAP3 SWAP2 POP POP JUMP JUMPDEST PUSH32 0x4E487B7100000000000000000000000000000000000000000000000000000000 PUSH1 0x0 MSTORE PUSH1 0x32 PUSH1 0x4 MSTORE PUSH1 0x24 PUSH1 0x0 REVERT JUMPDEST PUSH32 0x4E487B7100000000000000000000000000000000000000000000000000000000 PUSH1 0x0 MSTORE PUSH1 0x11 PUSH1 0x4 MSTORE PUSH1 0x24 PUSH1 0x0 REVERT JUMPDEST PUSH1 0x0 PUSH2 0x1434 DUP3 PUSH2 0xC67 JUMP JUMPDEST SWAP2 POP PUSH2 0x143F DUP4 PUSH2 0xC67 JUMP JUMPDEST SWAP3 POP DUP3 DUP3 SUB SWAP1 POP DUP2 DUP2 GT ISZERO PUSH2 0x1457 JUMPI PUSH2 0x1456 PUSH2 0x13FA JUMP JUMPDEST JUMPDEST SWAP3 SWAP2 POP POP JUMP JUMPDEST PUSH32 0x4E487B7100000000000000000000000000000000000000000000000000000000 PUSH1 0x0 MSTORE PUSH1 0x12 PUSH1 0x4 MSTORE PUSH1 0x24 PUSH1 0x0 REVERT JUMPDEST PUSH1 0x0 PUSH2 0x1497 DUP3 PUSH2 0xC67 JUMP JUMPDEST SWAP2 POP PUSH2 0x14A2 DUP4 PUSH2 0xC67 JUMP JUMPDEST SWAP3 POP DUP3 PUSH2 0x14B2 JUMPI PUSH2 0x14B1 PUSH2 0x145D JUMP JUMPDEST JUMPDEST DUP3 DUP3 MOD SWAP1 POP SWAP3 SWAP2 POP POP JUMP JUMPDEST PUSH1 0x0 DUP2 SWAP1 POP SWAP3 SWAP2 POP POP JUMP JUMPDEST POP JUMP JUMPDEST PUSH1 0x0 PUSH2 0x14D8 PUSH1 0x0 DUP4 PUSH2 0x14BD JUMP JUMPDEST SWAP2 POP PUSH2 0x14E3 DUP3 PUSH2 0x14C8 JUMP JUMPDEST PUSH1 0x0 DUP3 ADD SWAP1 POP SWAP2 SWAP1 POP JUMP JUMPDEST PUSH1 0x0 PUSH2 0x14F9 DUP3 PUSH2 0x14CB JUMP JUMPDEST SWAP2 POP DUP2 SWAP1 POP SWAP2 SWAP1 POP JUMP INVALID LOG2 PUSH5 0x6970667358 0x22 SLT KECCAK256 LOG2 0xBE SWAP7 0x1E NUMBER 0xC5 DUP4 ADD 0x4E 0xE1 PUSH8 0x378BA2BE6ADC92B3 DUP6 0xA6 XOR 0xBE 0xE8 SWAP7 SMOD GT 0x21 PUSH16 0xEFB2C364736F6C634300081200330000 "},"gasEstimates":{"creation":{"codeDepositCost":"1086600","executionCost":"infinite","totalCost":"infinite"},"external":{"buyTicket()":"infinite","checkUpkeep(bytes)":"infinite","getInterval()":"infinite","getLatestTimestamp()":"2525","getLotteryState()":"2663","getNumPlayers()":"2512","getNumWords()":"infinite","getPlayers(uint256)":"5035","getRecentWinner()":"2545","getRequestConfirmations()":"366","getTicketPrice()":"infinite","performUpkeep(bytes)":"infinite","rawFulfillRandomWords(uint256,uint256[])":"infinite","setState(uint8)":"24789"},"internal":{"fulfillRandomWords(uint256,uint256[] memory)":"infinite"}},"methodIdentifiers":{"buyTicket()":"edca914c","checkUpkeep(bytes)":"6e04ff0d","getInterval()":"91ad27b4","getLatestTimestamp()":"f43b52cb","getLotteryState()":"6b68c03c","getNumPlayers()":"55c9e926","getNumWords()":"53a2c19a","getPlayers(uint256)":"460e2049","getRecentWinner()":"473f1ddc","getRequestConfirmations()":"5f1b0fd8","getTicketPrice()":"87bb7ae0","performUpkeep(bytes)":"4585e33b","rawFulfillRandomWords(uint256,uint256[])":"1fe543e3","setState(uint8)":"56de96db"}},"storageLayout":{"storage":[{"astId":193,"contract":"contracts/Lottery.sol:Lottery","label":"s_players","offset":0,"slot":"0","type":"t_array(t_address_payable)dyn_storage"},{"astId":210,"contract":"contracts/Lottery.sol:Lottery","label":"s_recentWinner","offset":0,"slot":"1","type":"t_address"},{"astId":213,"contract":"contracts/Lottery.sol:Lottery","label":"s_lotteryState","offset":20,"slot":"1","type":"t_enum(LotteryState)188"},{"astId":215,"contract":"contracts/Lottery.sol:Lottery","label":"s_previousBlockTimestamp","offset":0,"slot":"2","type":"t_uint256"}],"types":{"t_address":{"encoding":"inplace","label":"address","numberOfBytes":"20"},"t_address_payable":{"encoding":"inplace","label":"address payable","numberOfBytes":"20"},"t_array(t_address_payable)dyn_storage":{"base":"t_address_payable","encoding":"dynamic_array","label":"address payable[]","numberOfBytes":"32"},"t_enum(LotteryState)188":{"encoding":"inplace","label":"enum Lottery.LotteryState","numberOfBytes":"1"},"t_uint256":{"encoding":"inplace","label":"uint256","numberOfBytes":"32"}}},"userdoc":{"kind":"user","methods":{"performUpkeep(bytes)":{"notice":"Fase 1: custom name external are cheaper than public functions"}},"version":1}}}}