{"contracts/Lottery.sol":{"Lottery":{"abi":[{"inputs":[{"internalType":"address","name":"vrfCoordinatorV2","type":"address"},{"internalType":"uint256","name":"ticketPrice","type":"uint256"},{"internalType":"bytes32","name":"gasLane","type":"bytes32"},{"internalType":"uint64","name":"subscriptionId","type":"uint64"},{"internalType":"uint32","name":"callbackGasLimit","type":"uint32"},{"internalType":"uint256","name":"interval","type":"uint256"}],"stateMutability":"nonpayable","type":"constructor"},{"inputs":[],"name":"ErrorLottery__Busy","type":"error"},{"inputs":[],"name":"ErrorLottery__InsufficientTicketAmount","type":"error"},{"inputs":[],"name":"ErrorLottery__PayingWinnerFailed","type":"error"},{"inputs":[{"internalType":"uint256","name":"currentBalance","type":"uint256"},{"internalType":"uint256","name":"numPlayers","type":"uint256"},{"internalType":"uint256","name":"lotteryState","type":"uint256"}],"name":"ErrorLottery__PerformUpkeepNotNeeded","type":"error"},{"inputs":[{"internalType":"address","name":"have","type":"address"},{"internalType":"address","name":"want","type":"address"}],"name":"OnlyCoordinatorCanFulfill","type":"error"},{"anonymous":false,"inputs":[{"indexed":true,"internalType":"uint256","name":"requestId","type":"uint256"}],"name":"EventLottery__RequestRandomWords","type":"event"},{"anonymous":false,"inputs":[{"indexed":true,"internalType":"address","name":"player","type":"address"}],"name":"EventLottery__TicketBuyed","type":"event"},{"anonymous":false,"inputs":[{"indexed":true,"internalType":"address","name":"winner","type":"address"}],"name":"EventLottery__WinnerSelectedAndPaid","type":"event"},{"inputs":[],"name":"buyTicket","outputs":[],"stateMutability":"payable","type":"function"},{"inputs":[{"internalType":"bytes","name":"","type":"bytes"}],"name":"checkUpkeep","outputs":[{"internalType":"bool","name":"upkeepNeeded","type":"bool"},{"internalType":"bytes","name":"performData","type":"bytes"}],"stateMutability":"nonpayable","type":"function"},{"inputs":[],"name":"getLotteryState","outputs":[{"internalType":"enum Lottery.LotteryState","name":"","type":"uint8"}],"stateMutability":"view","type":"function"},{"inputs":[],"name":"getNumWords","outputs":[{"internalType":"uint256","name":"","type":"uint256"}],"stateMutability":"pure","type":"function"},{"inputs":[{"internalType":"uint256","name":"index","type":"uint256"}],"name":"getPlayers","outputs":[{"internalType":"address payable","name":"","type":"address"}],"stateMutability":"view","type":"function"},{"inputs":[],"name":"getRecentWinner","outputs":[{"internalType":"address","name":"","type":"address"}],"stateMutability":"view","type":"function"},{"inputs":[],"name":"getTicketPrice","outputs":[{"internalType":"uint256","name":"","type":"uint256"}],"stateMutability":"view","type":"function"},{"inputs":[{"internalType":"bytes","name":"","type":"bytes"}],"name":"performUpkeep","outputs":[],"stateMutability":"nonpayable","type":"function"},{"inputs":[{"internalType":"uint256","name":"requestId","type":"uint256"},{"internalType":"uint256[]","name":"randomWords","type":"uint256[]"}],"name":"rawFulfillRandomWords","outputs":[],"stateMutability":"nonpayable","type":"function"}],"devdoc":{"kind":"dev","methods":{"checkUpkeep(bytes)":{"details":"the chainlink keeper waits that upkeepNeeded becomes true in order to performUpkeep and select the winner 1. the state of the Lottery is OPEN 2. every 30 seconds 3. at least 1 player 4. the contract has more than 0 ETH 5. subscription is fundedsince calldata does not work with strings, we use memory","params":{"performData":"is used when you want to perform some actions,  depending on the result of upkeeepNeeded >> used by performUpkeep","upkeepNeeded":"is returned: no need to specify the type."}},"constructor":{"details":"the constructor of VRFConsumerBaseV2 is called and Lottery gains access to the requestRandomness function*"},"performUpkeep(bytes)":{"details":"This method is called by the keepers when upkeepNeeded is true: we dont have to interact with it! Security feature / Escape the reentracy attack: This is a 2 tx process (no simulation can be performed) 1. request the random number - performUpkeep 2. number is returned from the chainlink and then we send money to the winner - fulfillRandomWords"}},"version":1},"evm":{"bytecode":{"linkReferences":{},"object":"610180604052600163ffffffff166101409063ffffffff168152503480156200002757600080fd5b50604051620017693803806200176983398181016040528101906200004d9190620002a9565b858073ffffffffffffffffffffffffffffffffffffffff1660808173ffffffffffffffffffffffffffffffffffffffff1681525050508460a081815250508573ffffffffffffffffffffffffffffffffffffffff1660c08173ffffffffffffffffffffffffffffffffffffffff16815250508360e081815250508267ffffffffffffffff166101008167ffffffffffffffff16815250508163ffffffff166101208163ffffffff16815250506000600160146101000a81548160ff0219169083600181111562000122576200012162000345565b5b02179055504260028190555080610160818152505050505050505062000374565b600080fd5b600073ffffffffffffffffffffffffffffffffffffffff82169050919050565b6000620001758262000148565b9050919050565b620001878162000168565b81146200019357600080fd5b50565b600081519050620001a7816200017c565b92915050565b6000819050919050565b620001c281620001ad565b8114620001ce57600080fd5b50565b600081519050620001e281620001b7565b92915050565b6000819050919050565b620001fd81620001e8565b81146200020957600080fd5b50565b6000815190506200021d81620001f2565b92915050565b600067ffffffffffffffff82169050919050565b620002428162000223565b81146200024e57600080fd5b50565b600081519050620002628162000237565b92915050565b600063ffffffff82169050919050565b620002838162000268565b81146200028f57600080fd5b50565b600081519050620002a38162000278565b92915050565b60008060008060008060c08789031215620002c957620002c862000143565b5b6000620002d989828a0162000196565b9650506020620002ec89828a01620001d1565b9550506040620002ff89828a016200020c565b94505060606200031289828a0162000251565b93505060806200032589828a0162000292565b92505060a06200033889828a01620001d1565b9150509295509295509295565b7f4e487b7100000000000000000000000000000000000000000000000000000000600052602160045260246000fd5b60805160a05160c05160e0516101005161012051610140516101605161137a620003ef60003960006105d6015260008181610426015261055201526000610405015260006103e2015260006103c101526000610385015260008181610644015261066a0152600081816102100152610264015261137a6000f3fe6080604052600436106100865760003560e01c806353a2c19a1161005957806353a2c19a146101455780636b68c03c146101705780636e04ff0d1461019b57806387bb7ae0146101d9578063edca914c1461020457610086565b80631fe543e31461008b5780634585e33b146100b4578063460e2049146100dd578063473f1ddc1461011a575b600080fd5b34801561009757600080fd5b506100b260048036038101906100ad9190610c52565b61020e565b005b3480156100c057600080fd5b506100db60048036038101906100d69190610d09565b6102ce565b005b3480156100e957600080fd5b5061010460048036038101906100ff9190610d56565b6104dd565b6040516101119190610dc4565b60405180910390f35b34801561012657600080fd5b5061012f610524565b60405161013c9190610e00565b60405180910390f35b34801561015157600080fd5b5061015a61054e565b6040516101679190610e2a565b60405180910390f35b34801561017c57600080fd5b5061018561057c565b6040516101929190610ebc565b60405180910390f35b3480156101a757600080fd5b506101c260048036038101906101bd9190610f8c565b610593565b6040516101d092919061106f565b60405180910390f35b3480156101e557600080fd5b506101ee610640565b6040516101fb9190610e2a565b60405180910390f35b61020c610668565b005b7f000000000000000000000000000000000000000000000000000000000000000073ffffffffffffffffffffffffffffffffffffffff163373ffffffffffffffffffffffffffffffffffffffff16146102c057337f00000000000000000000000000000000000000000000000000000000000000006040517f1cf993f40000000000000000000000000000000000000000000000000000000081526004016102b792919061109f565b60405180910390fd5b6102ca82826107d7565b5050565b60018060146101000a81548160ff021916908360018111156102f3576102f2610e45565b5b0217905550600061031260405180602001604052806000815250610593565b509050806103815747600080549050600160149054906101000a900460ff16600181111561034357610342610e45565b5b6040517fa52f617a000000000000000000000000000000000000000000000000000000008152600401610378939291906110c8565b60405180910390fd5b60007f000000000000000000000000000000000000000000000000000000000000000073ffffffffffffffffffffffffffffffffffffffff16635d3b1d307f00000000000000000000000000000000000000000000000000000000000000007f000000000000000000000000000000000000000000000000000000000000000060037f00000000000000000000000000000000000000000000000000000000000000007f00000000000000000000000000000000000000000000000000000000000000006040518663ffffffff1660e01b8152600401610465959493929190611177565b6020604051808303816000875af1158015610484573d6000803e3d6000fd5b505050506040513d601f19601f820116820180604052508101906104a891906111df565b9050807f10d712d992e93b5dcd2fb45b44dc511436ff77c66a5ca03bf2dbc89b07c160d160405160405180910390a250505050565b60008082815481106104f2576104f161120c565b5b9060005260206000200160009054906101000a900473ffffffffffffffffffffffffffffffffffffffff169050919050565b6000600160009054906101000a900473ffffffffffffffffffffffffffffffffffffffff16905090565b60007f000000000000000000000000000000000000000000000000000000000000000063ffffffff16905090565b6000600160149054906101000a900460ff16905090565b600060606000600160149054906101000a900460ff1660018111156105bb576105ba610e45565b5b600060018111156105cf576105ce610e45565b5b14905060007f000000000000000000000000000000000000000000000000000000000000000060025442610603919061126a565b119050600080600080549050119050600080471190508380156106235750825b801561062c5750815b80156106355750805b955050505050915091565b60007f0000000000000000000000000000000000000000000000000000000000000000905090565b7f00000000000000000000000000000000000000000000000000000000000000003410156106c2576040517f80ae043200000000000000000000000000000000000000000000000000000000815260040160405180910390fd5b600060018111156106d6576106d5610e45565b5b600160149054906101000a900460ff1660018111156106f8576106f7610e45565b5b1461072f576040517f7ec2ef9c00000000000000000000000000000000000000000000000000000000815260040160405180910390fd5b6000339080600181540180825580915050600190039060005260206000200160009091909190916101000a81548173ffffffffffffffffffffffffffffffffffffffff021916908373ffffffffffffffffffffffffffffffffffffffff1602179055503373ffffffffffffffffffffffffffffffffffffffff167fc013140ee7c0e76c7697e928d9a364c76f328b00fd4978e1b4ee61fa6974154d60405160405180910390a2565b60008080549050826000815181106107f2576107f161120c565b5b602002602001015161080491906112cd565b9050600080828154811061081b5761081a61120c565b5b9060005260206000200160009054906101000a900473ffffffffffffffffffffffffffffffffffffffff16905080600160006101000a81548173ffffffffffffffffffffffffffffffffffffffff021916908373ffffffffffffffffffffffffffffffffffffffff1602179055506000600160146101000a81548160ff021916908360018111156108af576108ae610e45565b5b0217905550600067ffffffffffffffff8111156108cf576108ce610b0f565b5b6040519080825280602002602001820160405280156108fd5781602001602082028036833780820191505090505b5060009080519060200190610913929190610a08565b504260028190555060008173ffffffffffffffffffffffffffffffffffffffff16476040516109419061132f565b60006040518083038185875af1925050503d806000811461097e576040519150601f19603f3d011682016040523d82523d6000602084013e610983565b606091505b50509050806109be576040517f760b301700000000000000000000000000000000000000000000000000000000815260040160405180910390fd5b8173ffffffffffffffffffffffffffffffffffffffff167f27385c6bce45eba0fa17e24b25cc6bea4edd17adc706c6c30b2cea8c1039356e60405160405180910390a25050505050565b828054828255906000526020600020908101928215610a81579160200282015b82811115610a805782518260006101000a81548173ffffffffffffffffffffffffffffffffffffffff021916908373ffffffffffffffffffffffffffffffffffffffff16021790555091602001919060010190610a28565b5b509050610a8e9190610a92565b5090565b5b80821115610aab576000816000905550600101610a93565b5090565b6000604051905090565b600080fd5b600080fd5b6000819050919050565b610ad681610ac3565b8114610ae157600080fd5b50565b600081359050610af381610acd565b92915050565b600080fd5b6000601f19601f8301169050919050565b7f4e487b7100000000000000000000000000000000000000000000000000000000600052604160045260246000fd5b610b4782610afe565b810181811067ffffffffffffffff82111715610b6657610b65610b0f565b5b80604052505050565b6000610b79610aaf565b9050610b858282610b3e565b919050565b600067ffffffffffffffff821115610ba557610ba4610b0f565b5b602082029050602081019050919050565b600080fd5b6000610bce610bc984610b8a565b610b6f565b90508083825260208201905060208402830185811115610bf157610bf0610bb6565b5b835b81811015610c1a5780610c068882610ae4565b845260208401935050602081019050610bf3565b5050509392505050565b600082601f830112610c3957610c38610af9565b5b8135610c49848260208601610bbb565b91505092915050565b60008060408385031215610c6957610c68610ab9565b5b6000610c7785828601610ae4565b925050602083013567ffffffffffffffff811115610c9857610c97610abe565b5b610ca485828601610c24565b9150509250929050565b600080fd5b60008083601f840112610cc957610cc8610af9565b5b8235905067ffffffffffffffff811115610ce657610ce5610cae565b5b602083019150836001820283011115610d0257610d01610bb6565b5b9250929050565b60008060208385031215610d2057610d1f610ab9565b5b600083013567ffffffffffffffff811115610d3e57610d3d610abe565b5b610d4a85828601610cb3565b92509250509250929050565b600060208284031215610d6c57610d6b610ab9565b5b6000610d7a84828501610ae4565b91505092915050565b600073ffffffffffffffffffffffffffffffffffffffff82169050919050565b6000610dae82610d83565b9050919050565b610dbe81610da3565b82525050565b6000602082019050610dd96000830184610db5565b92915050565b6000610dea82610d83565b9050919050565b610dfa81610ddf565b82525050565b6000602082019050610e156000830184610df1565b92915050565b610e2481610ac3565b82525050565b6000602082019050610e3f6000830184610e1b565b92915050565b7f4e487b7100000000000000000000000000000000000000000000000000000000600052602160045260246000fd5b60028110610e8557610e84610e45565b5b50565b6000819050610e9682610e74565b919050565b6000610ea682610e88565b9050919050565b610eb681610e9b565b82525050565b6000602082019050610ed16000830184610ead565b92915050565b600080fd5b600067ffffffffffffffff821115610ef757610ef6610b0f565b5b610f0082610afe565b9050602081019050919050565b82818337600083830152505050565b6000610f2f610f2a84610edc565b610b6f565b905082815260208101848484011115610f4b57610f4a610ed7565b5b610f56848285610f0d565b509392505050565b600082601f830112610f7357610f72610af9565b5b8135610f83848260208601610f1c565b91505092915050565b600060208284031215610fa257610fa1610ab9565b5b600082013567ffffffffffffffff811115610fc057610fbf610abe565b5b610fcc84828501610f5e565b91505092915050565b60008115159050919050565b610fea81610fd5565b82525050565b600081519050919050565b600082825260208201905092915050565b60005b8381101561102a57808201518184015260208101905061100f565b60008484015250505050565b600061104182610ff0565b61104b8185610ffb565b935061105b81856020860161100c565b61106481610afe565b840191505092915050565b60006040820190506110846000830185610fe1565b81810360208301526110968184611036565b90509392505050565b60006040820190506110b46000830185610df1565b6110c16020830184610df1565b9392505050565b60006060820190506110dd6000830186610e1b565b6110ea6020830185610e1b565b6110f76040830184610e1b565b949350505050565b6000819050919050565b611112816110ff565b82525050565b600067ffffffffffffffff82169050919050565b61113581611118565b82525050565b600061ffff82169050919050565b6111528161113b565b82525050565b600063ffffffff82169050919050565b61117181611158565b82525050565b600060a08201905061118c6000830188611109565b611199602083018761112c565b6111a66040830186611149565b6111b36060830185611168565b6111c06080830184611168565b9695505050505050565b6000815190506111d981610acd565b92915050565b6000602082840312156111f5576111f4610ab9565b5b6000611203848285016111ca565b91505092915050565b7f4e487b7100000000000000000000000000000000000000000000000000000000600052603260045260246000fd5b7f4e487b7100000000000000000000000000000000000000000000000000000000600052601160045260246000fd5b600061127582610ac3565b915061128083610ac3565b92508282039050818111156112985761129761123b565b5b92915050565b7f4e487b7100000000000000000000000000000000000000000000000000000000600052601260045260246000fd5b60006112d882610ac3565b91506112e383610ac3565b9250826112f3576112f261129e565b5b828206905092915050565b600081905092915050565b50565b60006113196000836112fe565b915061132482611309565b600082019050919050565b600061133a8261130c565b915081905091905056fea2646970667358221220fa78eacd48fd3d126f41cb91816807a6b9f85178d064691ed39e295e70d2df8064736f6c63430008120033","opcodes":"PUSH2 0x180 PUSH1 0x40 MSTORE PUSH1 0x1 PUSH4 0xFFFFFFFF AND PUSH2 0x140 SWAP1 PUSH4 0xFFFFFFFF AND DUP2 MSTORE POP CALLVALUE DUP1 ISZERO PUSH3 0x27 JUMPI PUSH1 0x0 DUP1 REVERT JUMPDEST POP PUSH1 0x40 MLOAD PUSH3 0x1769 CODESIZE SUB DUP1 PUSH3 0x1769 DUP4 CODECOPY DUP2 DUP2 ADD PUSH1 0x40 MSTORE DUP2 ADD SWAP1 PUSH3 0x4D SWAP2 SWAP1 PUSH3 0x2A9 JUMP JUMPDEST DUP6 DUP1 PUSH20 0xFFFFFFFFFFFFFFFFFFFFFFFFFFFFFFFFFFFFFFFF AND PUSH1 0x80 DUP2 PUSH20 0xFFFFFFFFFFFFFFFFFFFFFFFFFFFFFFFFFFFFFFFF AND DUP2 MSTORE POP POP POP DUP5 PUSH1 0xA0 DUP2 DUP2 MSTORE POP POP DUP6 PUSH20 0xFFFFFFFFFFFFFFFFFFFFFFFFFFFFFFFFFFFFFFFF AND PUSH1 0xC0 DUP2 PUSH20 0xFFFFFFFFFFFFFFFFFFFFFFFFFFFFFFFFFFFFFFFF AND DUP2 MSTORE POP POP DUP4 PUSH1 0xE0 DUP2 DUP2 MSTORE POP POP DUP3 PUSH8 0xFFFFFFFFFFFFFFFF AND PUSH2 0x100 DUP2 PUSH8 0xFFFFFFFFFFFFFFFF AND DUP2 MSTORE POP POP DUP2 PUSH4 0xFFFFFFFF AND PUSH2 0x120 DUP2 PUSH4 0xFFFFFFFF AND DUP2 MSTORE POP POP PUSH1 0x0 PUSH1 0x1 PUSH1 0x14 PUSH2 0x100 EXP DUP2 SLOAD DUP2 PUSH1 0xFF MUL NOT AND SWAP1 DUP4 PUSH1 0x1 DUP2 GT ISZERO PUSH3 0x122 JUMPI PUSH3 0x121 PUSH3 0x345 JUMP JUMPDEST JUMPDEST MUL OR SWAP1 SSTORE POP TIMESTAMP PUSH1 0x2 DUP2 SWAP1 SSTORE POP DUP1 PUSH2 0x160 DUP2 DUP2 MSTORE POP POP POP POP POP POP POP POP PUSH3 0x374 JUMP JUMPDEST PUSH1 0x0 DUP1 REVERT JUMPDEST PUSH1 0x0 PUSH20 0xFFFFFFFFFFFFFFFFFFFFFFFFFFFFFFFFFFFFFFFF DUP3 AND SWAP1 POP SWAP2 SWAP1 POP JUMP JUMPDEST PUSH1 0x0 PUSH3 0x175 DUP3 PUSH3 0x148 JUMP JUMPDEST SWAP1 POP SWAP2 SWAP1 POP JUMP JUMPDEST PUSH3 0x187 DUP2 PUSH3 0x168 JUMP JUMPDEST DUP2 EQ PUSH3 0x193 JUMPI PUSH1 0x0 DUP1 REVERT JUMPDEST POP JUMP JUMPDEST PUSH1 0x0 DUP2 MLOAD SWAP1 POP PUSH3 0x1A7 DUP2 PUSH3 0x17C JUMP JUMPDEST SWAP3 SWAP2 POP POP JUMP JUMPDEST PUSH1 0x0 DUP2 SWAP1 POP SWAP2 SWAP1 POP JUMP JUMPDEST PUSH3 0x1C2 DUP2 PUSH3 0x1AD JUMP JUMPDEST DUP2 EQ PUSH3 0x1CE JUMPI PUSH1 0x0 DUP1 REVERT JUMPDEST POP JUMP JUMPDEST PUSH1 0x0 DUP2 MLOAD SWAP1 POP PUSH3 0x1E2 DUP2 PUSH3 0x1B7 JUMP JUMPDEST SWAP3 SWAP2 POP POP JUMP JUMPDEST PUSH1 0x0 DUP2 SWAP1 POP SWAP2 SWAP1 POP JUMP JUMPDEST PUSH3 0x1FD DUP2 PUSH3 0x1E8 JUMP JUMPDEST DUP2 EQ PUSH3 0x209 JUMPI PUSH1 0x0 DUP1 REVERT JUMPDEST POP JUMP JUMPDEST PUSH1 0x0 DUP2 MLOAD SWAP1 POP PUSH3 0x21D DUP2 PUSH3 0x1F2 JUMP JUMPDEST SWAP3 SWAP2 POP POP JUMP JUMPDEST PUSH1 0x0 PUSH8 0xFFFFFFFFFFFFFFFF DUP3 AND SWAP1 POP SWAP2 SWAP1 POP JUMP JUMPDEST PUSH3 0x242 DUP2 PUSH3 0x223 JUMP JUMPDEST DUP2 EQ PUSH3 0x24E JUMPI PUSH1 0x0 DUP1 REVERT JUMPDEST POP JUMP JUMPDEST PUSH1 0x0 DUP2 MLOAD SWAP1 POP PUSH3 0x262 DUP2 PUSH3 0x237 JUMP JUMPDEST SWAP3 SWAP2 POP POP JUMP JUMPDEST PUSH1 0x0 PUSH4 0xFFFFFFFF DUP3 AND SWAP1 POP SWAP2 SWAP1 POP JUMP JUMPDEST PUSH3 0x283 DUP2 PUSH3 0x268 JUMP JUMPDEST DUP2 EQ PUSH3 0x28F JUMPI PUSH1 0x0 DUP1 REVERT JUMPDEST POP JUMP JUMPDEST PUSH1 0x0 DUP2 MLOAD SWAP1 POP PUSH3 0x2A3 DUP2 PUSH3 0x278 JUMP JUMPDEST SWAP3 SWAP2 POP POP JUMP JUMPDEST PUSH1 0x0 DUP1 PUSH1 0x0 DUP1 PUSH1 0x0 DUP1 PUSH1 0xC0 DUP8 DUP10 SUB SLT ISZERO PUSH3 0x2C9 JUMPI PUSH3 0x2C8 PUSH3 0x143 JUMP JUMPDEST JUMPDEST PUSH1 0x0 PUSH3 0x2D9 DUP10 DUP3 DUP11 ADD PUSH3 0x196 JUMP JUMPDEST SWAP7 POP POP PUSH1 0x20 PUSH3 0x2EC DUP10 DUP3 DUP11 ADD PUSH3 0x1D1 JUMP JUMPDEST SWAP6 POP POP PUSH1 0x40 PUSH3 0x2FF DUP10 DUP3 DUP11 ADD PUSH3 0x20C JUMP JUMPDEST SWAP5 POP POP PUSH1 0x60 PUSH3 0x312 DUP10 DUP3 DUP11 ADD PUSH3 0x251 JUMP JUMPDEST SWAP4 POP POP PUSH1 0x80 PUSH3 0x325 DUP10 DUP3 DUP11 ADD PUSH3 0x292 JUMP JUMPDEST SWAP3 POP POP PUSH1 0xA0 PUSH3 0x338 DUP10 DUP3 DUP11 ADD PUSH3 0x1D1 JUMP JUMPDEST SWAP2 POP POP SWAP3 SWAP6 POP SWAP3 SWAP6 POP SWAP3 SWAP6 JUMP JUMPDEST PUSH32 0x4E487B7100000000000000000000000000000000000000000000000000000000 PUSH1 0x0 MSTORE PUSH1 0x21 PUSH1 0x4 MSTORE PUSH1 0x24 PUSH1 0x0 REVERT JUMPDEST PUSH1 0x80 MLOAD PUSH1 0xA0 MLOAD PUSH1 0xC0 MLOAD PUSH1 0xE0 MLOAD PUSH2 0x100 MLOAD PUSH2 0x120 MLOAD PUSH2 0x140 MLOAD PUSH2 0x160 MLOAD PUSH2 0x137A PUSH3 0x3EF PUSH1 0x0 CODECOPY PUSH1 0x0 PUSH2 0x5D6 ADD MSTORE PUSH1 0x0 DUP2 DUP2 PUSH2 0x426 ADD MSTORE PUSH2 0x552 ADD MSTORE PUSH1 0x0 PUSH2 0x405 ADD MSTORE PUSH1 0x0 PUSH2 0x3E2 ADD MSTORE PUSH1 0x0 PUSH2 0x3C1 ADD MSTORE PUSH1 0x0 PUSH2 0x385 ADD MSTORE PUSH1 0x0 DUP2 DUP2 PUSH2 0x644 ADD MSTORE PUSH2 0x66A ADD MSTORE PUSH1 0x0 DUP2 DUP2 PUSH2 0x210 ADD MSTORE PUSH2 0x264 ADD MSTORE PUSH2 0x137A PUSH1 0x0 RETURN INVALID PUSH1 0x80 PUSH1 0x40 MSTORE PUSH1 0x4 CALLDATASIZE LT PUSH2 0x86 JUMPI PUSH1 0x0 CALLDATALOAD PUSH1 0xE0 SHR DUP1 PUSH4 0x53A2C19A GT PUSH2 0x59 JUMPI DUP1 PUSH4 0x53A2C19A EQ PUSH2 0x145 JUMPI DUP1 PUSH4 0x6B68C03C EQ PUSH2 0x170 JUMPI DUP1 PUSH4 0x6E04FF0D EQ PUSH2 0x19B JUMPI DUP1 PUSH4 0x87BB7AE0 EQ PUSH2 0x1D9 JUMPI DUP1 PUSH4 0xEDCA914C EQ PUSH2 0x204 JUMPI PUSH2 0x86 JUMP JUMPDEST DUP1 PUSH4 0x1FE543E3 EQ PUSH2 0x8B JUMPI DUP1 PUSH4 0x4585E33B EQ PUSH2 0xB4 JUMPI DUP1 PUSH4 0x460E2049 EQ PUSH2 0xDD JUMPI DUP1 PUSH4 0x473F1DDC EQ PUSH2 0x11A JUMPI JUMPDEST PUSH1 0x0 DUP1 REVERT JUMPDEST CALLVALUE DUP1 ISZERO PUSH2 0x97 JUMPI PUSH1 0x0 DUP1 REVERT JUMPDEST POP PUSH2 0xB2 PUSH1 0x4 DUP1 CALLDATASIZE SUB DUP2 ADD SWAP1 PUSH2 0xAD SWAP2 SWAP1 PUSH2 0xC52 JUMP JUMPDEST PUSH2 0x20E JUMP JUMPDEST STOP JUMPDEST CALLVALUE DUP1 ISZERO PUSH2 0xC0 JUMPI PUSH1 0x0 DUP1 REVERT JUMPDEST POP PUSH2 0xDB PUSH1 0x4 DUP1 CALLDATASIZE SUB DUP2 ADD SWAP1 PUSH2 0xD6 SWAP2 SWAP1 PUSH2 0xD09 JUMP JUMPDEST PUSH2 0x2CE JUMP JUMPDEST STOP JUMPDEST CALLVALUE DUP1 ISZERO PUSH2 0xE9 JUMPI PUSH1 0x0 DUP1 REVERT JUMPDEST POP PUSH2 0x104 PUSH1 0x4 DUP1 CALLDATASIZE SUB DUP2 ADD SWAP1 PUSH2 0xFF SWAP2 SWAP1 PUSH2 0xD56 JUMP JUMPDEST PUSH2 0x4DD JUMP JUMPDEST PUSH1 0x40 MLOAD PUSH2 0x111 SWAP2 SWAP1 PUSH2 0xDC4 JUMP JUMPDEST PUSH1 0x40 MLOAD DUP1 SWAP2 SUB SWAP1 RETURN JUMPDEST CALLVALUE DUP1 ISZERO PUSH2 0x126 JUMPI PUSH1 0x0 DUP1 REVERT JUMPDEST POP PUSH2 0x12F PUSH2 0x524 JUMP JUMPDEST PUSH1 0x40 MLOAD PUSH2 0x13C SWAP2 SWAP1 PUSH2 0xE00 JUMP JUMPDEST PUSH1 0x40 MLOAD DUP1 SWAP2 SUB SWAP1 RETURN JUMPDEST CALLVALUE DUP1 ISZERO PUSH2 0x151 JUMPI PUSH1 0x0 DUP1 REVERT JUMPDEST POP PUSH2 0x15A PUSH2 0x54E JUMP JUMPDEST PUSH1 0x40 MLOAD PUSH2 0x167 SWAP2 SWAP1 PUSH2 0xE2A JUMP JUMPDEST PUSH1 0x40 MLOAD DUP1 SWAP2 SUB SWAP1 RETURN JUMPDEST CALLVALUE DUP1 ISZERO PUSH2 0x17C JUMPI PUSH1 0x0 DUP1 REVERT JUMPDEST POP PUSH2 0x185 PUSH2 0x57C JUMP JUMPDEST PUSH1 0x40 MLOAD PUSH2 0x192 SWAP2 SWAP1 PUSH2 0xEBC JUMP JUMPDEST PUSH1 0x40 MLOAD DUP1 SWAP2 SUB SWAP1 RETURN JUMPDEST CALLVALUE DUP1 ISZERO PUSH2 0x1A7 JUMPI PUSH1 0x0 DUP1 REVERT JUMPDEST POP PUSH2 0x1C2 PUSH1 0x4 DUP1 CALLDATASIZE SUB DUP2 ADD SWAP1 PUSH2 0x1BD SWAP2 SWAP1 PUSH2 0xF8C JUMP JUMPDEST PUSH2 0x593 JUMP JUMPDEST PUSH1 0x40 MLOAD PUSH2 0x1D0 SWAP3 SWAP2 SWAP1 PUSH2 0x106F JUMP JUMPDEST PUSH1 0x40 MLOAD DUP1 SWAP2 SUB SWAP1 RETURN JUMPDEST CALLVALUE DUP1 ISZERO PUSH2 0x1E5 JUMPI PUSH1 0x0 DUP1 REVERT JUMPDEST POP PUSH2 0x1EE PUSH2 0x640 JUMP JUMPDEST PUSH1 0x40 MLOAD PUSH2 0x1FB SWAP2 SWAP1 PUSH2 0xE2A JUMP JUMPDEST PUSH1 0x40 MLOAD DUP1 SWAP2 SUB SWAP1 RETURN JUMPDEST PUSH2 0x20C PUSH2 0x668 JUMP JUMPDEST STOP JUMPDEST PUSH32 0x0 PUSH20 0xFFFFFFFFFFFFFFFFFFFFFFFFFFFFFFFFFFFFFFFF AND CALLER PUSH20 0xFFFFFFFFFFFFFFFFFFFFFFFFFFFFFFFFFFFFFFFF AND EQ PUSH2 0x2C0 JUMPI CALLER PUSH32 0x0 PUSH1 0x40 MLOAD PUSH32 0x1CF993F400000000000000000000000000000000000000000000000000000000 DUP2 MSTORE PUSH1 0x4 ADD PUSH2 0x2B7 SWAP3 SWAP2 SWAP1 PUSH2 0x109F JUMP JUMPDEST PUSH1 0x40 MLOAD DUP1 SWAP2 SUB SWAP1 REVERT JUMPDEST PUSH2 0x2CA DUP3 DUP3 PUSH2 0x7D7 JUMP JUMPDEST POP POP JUMP JUMPDEST PUSH1 0x1 DUP1 PUSH1 0x14 PUSH2 0x100 EXP DUP2 SLOAD DUP2 PUSH1 0xFF MUL NOT AND SWAP1 DUP4 PUSH1 0x1 DUP2 GT ISZERO PUSH2 0x2F3 JUMPI PUSH2 0x2F2 PUSH2 0xE45 JUMP JUMPDEST JUMPDEST MUL OR SWAP1 SSTORE POP PUSH1 0x0 PUSH2 0x312 PUSH1 0x40 MLOAD DUP1 PUSH1 0x20 ADD PUSH1 0x40 MSTORE DUP1 PUSH1 0x0 DUP2 MSTORE POP PUSH2 0x593 JUMP JUMPDEST POP SWAP1 POP DUP1 PUSH2 0x381 JUMPI SELFBALANCE PUSH1 0x0 DUP1 SLOAD SWAP1 POP PUSH1 0x1 PUSH1 0x14 SWAP1 SLOAD SWAP1 PUSH2 0x100 EXP SWAP1 DIV PUSH1 0xFF AND PUSH1 0x1 DUP2 GT ISZERO PUSH2 0x343 JUMPI PUSH2 0x342 PUSH2 0xE45 JUMP JUMPDEST JUMPDEST PUSH1 0x40 MLOAD PUSH32 0xA52F617A00000000000000000000000000000000000000000000000000000000 DUP2 MSTORE PUSH1 0x4 ADD PUSH2 0x378 SWAP4 SWAP3 SWAP2 SWAP1 PUSH2 0x10C8 JUMP JUMPDEST PUSH1 0x40 MLOAD DUP1 SWAP2 SUB SWAP1 REVERT JUMPDEST PUSH1 0x0 PUSH32 0x0 PUSH20 0xFFFFFFFFFFFFFFFFFFFFFFFFFFFFFFFFFFFFFFFF AND PUSH4 0x5D3B1D30 PUSH32 0x0 PUSH32 0x0 PUSH1 0x3 PUSH32 0x0 PUSH32 0x0 PUSH1 0x40 MLOAD DUP7 PUSH4 0xFFFFFFFF AND PUSH1 0xE0 SHL DUP2 MSTORE PUSH1 0x4 ADD PUSH2 0x465 SWAP6 SWAP5 SWAP4 SWAP3 SWAP2 SWAP1 PUSH2 0x1177 JUMP JUMPDEST PUSH1 0x20 PUSH1 0x40 MLOAD DUP1 DUP4 SUB DUP2 PUSH1 0x0 DUP8 GAS CALL ISZERO DUP1 ISZERO PUSH2 0x484 JUMPI RETURNDATASIZE PUSH1 0x0 DUP1 RETURNDATACOPY RETURNDATASIZE PUSH1 0x0 REVERT JUMPDEST POP POP POP POP PUSH1 0x40 MLOAD RETURNDATASIZE PUSH1 0x1F NOT PUSH1 0x1F DUP3 ADD AND DUP3 ADD DUP1 PUSH1 0x40 MSTORE POP DUP2 ADD SWAP1 PUSH2 0x4A8 SWAP2 SWAP1 PUSH2 0x11DF JUMP JUMPDEST SWAP1 POP DUP1 PUSH32 0x10D712D992E93B5DCD2FB45B44DC511436FF77C66A5CA03BF2DBC89B07C160D1 PUSH1 0x40 MLOAD PUSH1 0x40 MLOAD DUP1 SWAP2 SUB SWAP1 LOG2 POP POP POP POP JUMP JUMPDEST PUSH1 0x0 DUP1 DUP3 DUP2 SLOAD DUP2 LT PUSH2 0x4F2 JUMPI PUSH2 0x4F1 PUSH2 0x120C JUMP JUMPDEST JUMPDEST SWAP1 PUSH1 0x0 MSTORE PUSH1 0x20 PUSH1 0x0 KECCAK256 ADD PUSH1 0x0 SWAP1 SLOAD SWAP1 PUSH2 0x100 EXP SWAP1 DIV PUSH20 0xFFFFFFFFFFFFFFFFFFFFFFFFFFFFFFFFFFFFFFFF AND SWAP1 POP SWAP2 SWAP1 POP JUMP JUMPDEST PUSH1 0x0 PUSH1 0x1 PUSH1 0x0 SWAP1 SLOAD SWAP1 PUSH2 0x100 EXP SWAP1 DIV PUSH20 0xFFFFFFFFFFFFFFFFFFFFFFFFFFFFFFFFFFFFFFFF AND SWAP1 POP SWAP1 JUMP JUMPDEST PUSH1 0x0 PUSH32 0x0 PUSH4 0xFFFFFFFF AND SWAP1 POP SWAP1 JUMP JUMPDEST PUSH1 0x0 PUSH1 0x1 PUSH1 0x14 SWAP1 SLOAD SWAP1 PUSH2 0x100 EXP SWAP1 DIV PUSH1 0xFF AND SWAP1 POP SWAP1 JUMP JUMPDEST PUSH1 0x0 PUSH1 0x60 PUSH1 0x0 PUSH1 0x1 PUSH1 0x14 SWAP1 SLOAD SWAP1 PUSH2 0x100 EXP SWAP1 DIV PUSH1 0xFF AND PUSH1 0x1 DUP2 GT ISZERO PUSH2 0x5BB JUMPI PUSH2 0x5BA PUSH2 0xE45 JUMP JUMPDEST JUMPDEST PUSH1 0x0 PUSH1 0x1 DUP2 GT ISZERO PUSH2 0x5CF JUMPI PUSH2 0x5CE PUSH2 0xE45 JUMP JUMPDEST JUMPDEST EQ SWAP1 POP PUSH1 0x0 PUSH32 0x0 PUSH1 0x2 SLOAD TIMESTAMP PUSH2 0x603 SWAP2 SWAP1 PUSH2 0x126A JUMP JUMPDEST GT SWAP1 POP PUSH1 0x0 DUP1 PUSH1 0x0 DUP1 SLOAD SWAP1 POP GT SWAP1 POP PUSH1 0x0 DUP1 SELFBALANCE GT SWAP1 POP DUP4 DUP1 ISZERO PUSH2 0x623 JUMPI POP DUP3 JUMPDEST DUP1 ISZERO PUSH2 0x62C JUMPI POP DUP2 JUMPDEST DUP1 ISZERO PUSH2 0x635 JUMPI POP DUP1 JUMPDEST SWAP6 POP POP POP POP POP SWAP2 POP SWAP2 JUMP JUMPDEST PUSH1 0x0 PUSH32 0x0 SWAP1 POP SWAP1 JUMP JUMPDEST PUSH32 0x0 CALLVALUE LT ISZERO PUSH2 0x6C2 JUMPI PUSH1 0x40 MLOAD PUSH32 0x80AE043200000000000000000000000000000000000000000000000000000000 DUP2 MSTORE PUSH1 0x4 ADD PUSH1 0x40 MLOAD DUP1 SWAP2 SUB SWAP1 REVERT JUMPDEST PUSH1 0x0 PUSH1 0x1 DUP2 GT ISZERO PUSH2 0x6D6 JUMPI PUSH2 0x6D5 PUSH2 0xE45 JUMP JUMPDEST JUMPDEST PUSH1 0x1 PUSH1 0x14 SWAP1 SLOAD SWAP1 PUSH2 0x100 EXP SWAP1 DIV PUSH1 0xFF AND PUSH1 0x1 DUP2 GT ISZERO PUSH2 0x6F8 JUMPI PUSH2 0x6F7 PUSH2 0xE45 JUMP JUMPDEST JUMPDEST EQ PUSH2 0x72F JUMPI PUSH1 0x40 MLOAD PUSH32 0x7EC2EF9C00000000000000000000000000000000000000000000000000000000 DUP2 MSTORE PUSH1 0x4 ADD PUSH1 0x40 MLOAD DUP1 SWAP2 SUB SWAP1 REVERT JUMPDEST PUSH1 0x0 CALLER SWAP1 DUP1 PUSH1 0x1 DUP2 SLOAD ADD DUP1 DUP3 SSTORE DUP1 SWAP2 POP POP PUSH1 0x1 SWAP1 SUB SWAP1 PUSH1 0x0 MSTORE PUSH1 0x20 PUSH1 0x0 KECCAK256 ADD PUSH1 0x0 SWAP1 SWAP2 SWAP1 SWAP2 SWAP1 SWAP2 PUSH2 0x100 EXP DUP2 SLOAD DUP2 PUSH20 0xFFFFFFFFFFFFFFFFFFFFFFFFFFFFFFFFFFFFFFFF MUL NOT AND SWAP1 DUP4 PUSH20 0xFFFFFFFFFFFFFFFFFFFFFFFFFFFFFFFFFFFFFFFF AND MUL OR SWAP1 SSTORE POP CALLER PUSH20 0xFFFFFFFFFFFFFFFFFFFFFFFFFFFFFFFFFFFFFFFF AND PUSH32 0xC013140EE7C0E76C7697E928D9A364C76F328B00FD4978E1B4EE61FA6974154D PUSH1 0x40 MLOAD PUSH1 0x40 MLOAD DUP1 SWAP2 SUB SWAP1 LOG2 JUMP JUMPDEST PUSH1 0x0 DUP1 DUP1 SLOAD SWAP1 POP DUP3 PUSH1 0x0 DUP2 MLOAD DUP2 LT PUSH2 0x7F2 JUMPI PUSH2 0x7F1 PUSH2 0x120C JUMP JUMPDEST JUMPDEST PUSH1 0x20 MUL PUSH1 0x20 ADD ADD MLOAD PUSH2 0x804 SWAP2 SWAP1 PUSH2 0x12CD JUMP JUMPDEST SWAP1 POP PUSH1 0x0 DUP1 DUP3 DUP2 SLOAD DUP2 LT PUSH2 0x81B JUMPI PUSH2 0x81A PUSH2 0x120C JUMP JUMPDEST JUMPDEST SWAP1 PUSH1 0x0 MSTORE PUSH1 0x20 PUSH1 0x0 KECCAK256 ADD PUSH1 0x0 SWAP1 SLOAD SWAP1 PUSH2 0x100 EXP SWAP1 DIV PUSH20 0xFFFFFFFFFFFFFFFFFFFFFFFFFFFFFFFFFFFFFFFF AND SWAP1 POP DUP1 PUSH1 0x1 PUSH1 0x0 PUSH2 0x100 EXP DUP2 SLOAD DUP2 PUSH20 0xFFFFFFFFFFFFFFFFFFFFFFFFFFFFFFFFFFFFFFFF MUL NOT AND SWAP1 DUP4 PUSH20 0xFFFFFFFFFFFFFFFFFFFFFFFFFFFFFFFFFFFFFFFF AND MUL OR SWAP1 SSTORE POP PUSH1 0x0 PUSH1 0x1 PUSH1 0x14 PUSH2 0x100 EXP DUP2 SLOAD DUP2 PUSH1 0xFF MUL NOT AND SWAP1 DUP4 PUSH1 0x1 DUP2 GT ISZERO PUSH2 0x8AF JUMPI PUSH2 0x8AE PUSH2 0xE45 JUMP JUMPDEST JUMPDEST MUL OR SWAP1 SSTORE POP PUSH1 0x0 PUSH8 0xFFFFFFFFFFFFFFFF DUP2 GT ISZERO PUSH2 0x8CF JUMPI PUSH2 0x8CE PUSH2 0xB0F JUMP JUMPDEST JUMPDEST PUSH1 0x40 MLOAD SWAP1 DUP1 DUP3 MSTORE DUP1 PUSH1 0x20 MUL PUSH1 0x20 ADD DUP3 ADD PUSH1 0x40 MSTORE DUP1 ISZERO PUSH2 0x8FD JUMPI DUP2 PUSH1 0x20 ADD PUSH1 0x20 DUP3 MUL DUP1 CALLDATASIZE DUP4 CALLDATACOPY DUP1 DUP3 ADD SWAP2 POP POP SWAP1 POP JUMPDEST POP PUSH1 0x0 SWAP1 DUP1 MLOAD SWAP1 PUSH1 0x20 ADD SWAP1 PUSH2 0x913 SWAP3 SWAP2 SWAP1 PUSH2 0xA08 JUMP JUMPDEST POP TIMESTAMP PUSH1 0x2 DUP2 SWAP1 SSTORE POP PUSH1 0x0 DUP2 PUSH20 0xFFFFFFFFFFFFFFFFFFFFFFFFFFFFFFFFFFFFFFFF AND SELFBALANCE PUSH1 0x40 MLOAD PUSH2 0x941 SWAP1 PUSH2 0x132F JUMP JUMPDEST PUSH1 0x0 PUSH1 0x40 MLOAD DUP1 DUP4 SUB DUP2 DUP6 DUP8 GAS CALL SWAP3 POP POP POP RETURNDATASIZE DUP1 PUSH1 0x0 DUP2 EQ PUSH2 0x97E JUMPI PUSH1 0x40 MLOAD SWAP2 POP PUSH1 0x1F NOT PUSH1 0x3F RETURNDATASIZE ADD AND DUP3 ADD PUSH1 0x40 MSTORE RETURNDATASIZE DUP3 MSTORE RETURNDATASIZE PUSH1 0x0 PUSH1 0x20 DUP5 ADD RETURNDATACOPY PUSH2 0x983 JUMP JUMPDEST PUSH1 0x60 SWAP2 POP JUMPDEST POP POP SWAP1 POP DUP1 PUSH2 0x9BE JUMPI PUSH1 0x40 MLOAD PUSH32 0x760B301700000000000000000000000000000000000000000000000000000000 DUP2 MSTORE PUSH1 0x4 ADD PUSH1 0x40 MLOAD DUP1 SWAP2 SUB SWAP1 REVERT JUMPDEST DUP2 PUSH20 0xFFFFFFFFFFFFFFFFFFFFFFFFFFFFFFFFFFFFFFFF AND PUSH32 0x27385C6BCE45EBA0FA17E24B25CC6BEA4EDD17ADC706C6C30B2CEA8C1039356E PUSH1 0x40 MLOAD PUSH1 0x40 MLOAD DUP1 SWAP2 SUB SWAP1 LOG2 POP POP POP POP POP JUMP JUMPDEST DUP3 DUP1 SLOAD DUP3 DUP3 SSTORE SWAP1 PUSH1 0x0 MSTORE PUSH1 0x20 PUSH1 0x0 KECCAK256 SWAP1 DUP2 ADD SWAP3 DUP3 ISZERO PUSH2 0xA81 JUMPI SWAP2 PUSH1 0x20 MUL DUP3 ADD JUMPDEST DUP3 DUP2 GT ISZERO PUSH2 0xA80 JUMPI DUP3 MLOAD DUP3 PUSH1 0x0 PUSH2 0x100 EXP DUP2 SLOAD DUP2 PUSH20 0xFFFFFFFFFFFFFFFFFFFFFFFFFFFFFFFFFFFFFFFF MUL NOT AND SWAP1 DUP4 PUSH20 0xFFFFFFFFFFFFFFFFFFFFFFFFFFFFFFFFFFFFFFFF AND MUL OR SWAP1 SSTORE POP SWAP2 PUSH1 0x20 ADD SWAP2 SWAP1 PUSH1 0x1 ADD SWAP1 PUSH2 0xA28 JUMP JUMPDEST JUMPDEST POP SWAP1 POP PUSH2 0xA8E SWAP2 SWAP1 PUSH2 0xA92 JUMP JUMPDEST POP SWAP1 JUMP JUMPDEST JUMPDEST DUP1 DUP3 GT ISZERO PUSH2 0xAAB JUMPI PUSH1 0x0 DUP2 PUSH1 0x0 SWAP1 SSTORE POP PUSH1 0x1 ADD PUSH2 0xA93 JUMP JUMPDEST POP SWAP1 JUMP JUMPDEST PUSH1 0x0 PUSH1 0x40 MLOAD SWAP1 POP SWAP1 JUMP JUMPDEST PUSH1 0x0 DUP1 REVERT JUMPDEST PUSH1 0x0 DUP1 REVERT JUMPDEST PUSH1 0x0 DUP2 SWAP1 POP SWAP2 SWAP1 POP JUMP JUMPDEST PUSH2 0xAD6 DUP2 PUSH2 0xAC3 JUMP JUMPDEST DUP2 EQ PUSH2 0xAE1 JUMPI PUSH1 0x0 DUP1 REVERT JUMPDEST POP JUMP JUMPDEST PUSH1 0x0 DUP2 CALLDATALOAD SWAP1 POP PUSH2 0xAF3 DUP2 PUSH2 0xACD JUMP JUMPDEST SWAP3 SWAP2 POP POP JUMP JUMPDEST PUSH1 0x0 DUP1 REVERT JUMPDEST PUSH1 0x0 PUSH1 0x1F NOT PUSH1 0x1F DUP4 ADD AND SWAP1 POP SWAP2 SWAP1 POP JUMP JUMPDEST PUSH32 0x4E487B7100000000000000000000000000000000000000000000000000000000 PUSH1 0x0 MSTORE PUSH1 0x41 PUSH1 0x4 MSTORE PUSH1 0x24 PUSH1 0x0 REVERT JUMPDEST PUSH2 0xB47 DUP3 PUSH2 0xAFE JUMP JUMPDEST DUP2 ADD DUP2 DUP2 LT PUSH8 0xFFFFFFFFFFFFFFFF DUP3 GT OR ISZERO PUSH2 0xB66 JUMPI PUSH2 0xB65 PUSH2 0xB0F JUMP JUMPDEST JUMPDEST DUP1 PUSH1 0x40 MSTORE POP POP POP JUMP JUMPDEST PUSH1 0x0 PUSH2 0xB79 PUSH2 0xAAF JUMP JUMPDEST SWAP1 POP PUSH2 0xB85 DUP3 DUP3 PUSH2 0xB3E JUMP JUMPDEST SWAP2 SWAP1 POP JUMP JUMPDEST PUSH1 0x0 PUSH8 0xFFFFFFFFFFFFFFFF DUP3 GT ISZERO PUSH2 0xBA5 JUMPI PUSH2 0xBA4 PUSH2 0xB0F JUMP JUMPDEST JUMPDEST PUSH1 0x20 DUP3 MUL SWAP1 POP PUSH1 0x20 DUP2 ADD SWAP1 POP SWAP2 SWAP1 POP JUMP JUMPDEST PUSH1 0x0 DUP1 REVERT JUMPDEST PUSH1 0x0 PUSH2 0xBCE PUSH2 0xBC9 DUP5 PUSH2 0xB8A JUMP JUMPDEST PUSH2 0xB6F JUMP JUMPDEST SWAP1 POP DUP1 DUP4 DUP3 MSTORE PUSH1 0x20 DUP3 ADD SWAP1 POP PUSH1 0x20 DUP5 MUL DUP4 ADD DUP6 DUP2 GT ISZERO PUSH2 0xBF1 JUMPI PUSH2 0xBF0 PUSH2 0xBB6 JUMP JUMPDEST JUMPDEST DUP4 JUMPDEST DUP2 DUP2 LT ISZERO PUSH2 0xC1A JUMPI DUP1 PUSH2 0xC06 DUP9 DUP3 PUSH2 0xAE4 JUMP JUMPDEST DUP5 MSTORE PUSH1 0x20 DUP5 ADD SWAP4 POP POP PUSH1 0x20 DUP2 ADD SWAP1 POP PUSH2 0xBF3 JUMP JUMPDEST POP POP POP SWAP4 SWAP3 POP POP POP JUMP JUMPDEST PUSH1 0x0 DUP3 PUSH1 0x1F DUP4 ADD SLT PUSH2 0xC39 JUMPI PUSH2 0xC38 PUSH2 0xAF9 JUMP JUMPDEST JUMPDEST DUP2 CALLDATALOAD PUSH2 0xC49 DUP5 DUP3 PUSH1 0x20 DUP7 ADD PUSH2 0xBBB JUMP JUMPDEST SWAP2 POP POP SWAP3 SWAP2 POP POP JUMP JUMPDEST PUSH1 0x0 DUP1 PUSH1 0x40 DUP4 DUP6 SUB SLT ISZERO PUSH2 0xC69 JUMPI PUSH2 0xC68 PUSH2 0xAB9 JUMP JUMPDEST JUMPDEST PUSH1 0x0 PUSH2 0xC77 DUP6 DUP3 DUP7 ADD PUSH2 0xAE4 JUMP JUMPDEST SWAP3 POP POP PUSH1 0x20 DUP4 ADD CALLDATALOAD PUSH8 0xFFFFFFFFFFFFFFFF DUP2 GT ISZERO PUSH2 0xC98 JUMPI PUSH2 0xC97 PUSH2 0xABE JUMP JUMPDEST JUMPDEST PUSH2 0xCA4 DUP6 DUP3 DUP7 ADD PUSH2 0xC24 JUMP JUMPDEST SWAP2 POP POP SWAP3 POP SWAP3 SWAP1 POP JUMP JUMPDEST PUSH1 0x0 DUP1 REVERT JUMPDEST PUSH1 0x0 DUP1 DUP4 PUSH1 0x1F DUP5 ADD SLT PUSH2 0xCC9 JUMPI PUSH2 0xCC8 PUSH2 0xAF9 JUMP JUMPDEST JUMPDEST DUP3 CALLDATALOAD SWAP1 POP PUSH8 0xFFFFFFFFFFFFFFFF DUP2 GT ISZERO PUSH2 0xCE6 JUMPI PUSH2 0xCE5 PUSH2 0xCAE JUMP JUMPDEST JUMPDEST PUSH1 0x20 DUP4 ADD SWAP2 POP DUP4 PUSH1 0x1 DUP3 MUL DUP4 ADD GT ISZERO PUSH2 0xD02 JUMPI PUSH2 0xD01 PUSH2 0xBB6 JUMP JUMPDEST JUMPDEST SWAP3 POP SWAP3 SWAP1 POP JUMP JUMPDEST PUSH1 0x0 DUP1 PUSH1 0x20 DUP4 DUP6 SUB SLT ISZERO PUSH2 0xD20 JUMPI PUSH2 0xD1F PUSH2 0xAB9 JUMP JUMPDEST JUMPDEST PUSH1 0x0 DUP4 ADD CALLDATALOAD PUSH8 0xFFFFFFFFFFFFFFFF DUP2 GT ISZERO PUSH2 0xD3E JUMPI PUSH2 0xD3D PUSH2 0xABE JUMP JUMPDEST JUMPDEST PUSH2 0xD4A DUP6 DUP3 DUP7 ADD PUSH2 0xCB3 JUMP JUMPDEST SWAP3 POP SWAP3 POP POP SWAP3 POP SWAP3 SWAP1 POP JUMP JUMPDEST PUSH1 0x0 PUSH1 0x20 DUP3 DUP5 SUB SLT ISZERO PUSH2 0xD6C JUMPI PUSH2 0xD6B PUSH2 0xAB9 JUMP JUMPDEST JUMPDEST PUSH1 0x0 PUSH2 0xD7A DUP5 DUP3 DUP6 ADD PUSH2 0xAE4 JUMP JUMPDEST SWAP2 POP POP SWAP3 SWAP2 POP POP JUMP JUMPDEST PUSH1 0x0 PUSH20 0xFFFFFFFFFFFFFFFFFFFFFFFFFFFFFFFFFFFFFFFF DUP3 AND SWAP1 POP SWAP2 SWAP1 POP JUMP JUMPDEST PUSH1 0x0 PUSH2 0xDAE DUP3 PUSH2 0xD83 JUMP JUMPDEST SWAP1 POP SWAP2 SWAP1 POP JUMP JUMPDEST PUSH2 0xDBE DUP2 PUSH2 0xDA3 JUMP JUMPDEST DUP3 MSTORE POP POP JUMP JUMPDEST PUSH1 0x0 PUSH1 0x20 DUP3 ADD SWAP1 POP PUSH2 0xDD9 PUSH1 0x0 DUP4 ADD DUP5 PUSH2 0xDB5 JUMP JUMPDEST SWAP3 SWAP2 POP POP JUMP JUMPDEST PUSH1 0x0 PUSH2 0xDEA DUP3 PUSH2 0xD83 JUMP JUMPDEST SWAP1 POP SWAP2 SWAP1 POP JUMP JUMPDEST PUSH2 0xDFA DUP2 PUSH2 0xDDF JUMP JUMPDEST DUP3 MSTORE POP POP JUMP JUMPDEST PUSH1 0x0 PUSH1 0x20 DUP3 ADD SWAP1 POP PUSH2 0xE15 PUSH1 0x0 DUP4 ADD DUP5 PUSH2 0xDF1 JUMP JUMPDEST SWAP3 SWAP2 POP POP JUMP JUMPDEST PUSH2 0xE24 DUP2 PUSH2 0xAC3 JUMP JUMPDEST DUP3 MSTORE POP POP JUMP JUMPDEST PUSH1 0x0 PUSH1 0x20 DUP3 ADD SWAP1 POP PUSH2 0xE3F PUSH1 0x0 DUP4 ADD DUP5 PUSH2 0xE1B JUMP JUMPDEST SWAP3 SWAP2 POP POP JUMP JUMPDEST PUSH32 0x4E487B7100000000000000000000000000000000000000000000000000000000 PUSH1 0x0 MSTORE PUSH1 0x21 PUSH1 0x4 MSTORE PUSH1 0x24 PUSH1 0x0 REVERT JUMPDEST PUSH1 0x2 DUP2 LT PUSH2 0xE85 JUMPI PUSH2 0xE84 PUSH2 0xE45 JUMP JUMPDEST JUMPDEST POP JUMP JUMPDEST PUSH1 0x0 DUP2 SWAP1 POP PUSH2 0xE96 DUP3 PUSH2 0xE74 JUMP JUMPDEST SWAP2 SWAP1 POP JUMP JUMPDEST PUSH1 0x0 PUSH2 0xEA6 DUP3 PUSH2 0xE88 JUMP JUMPDEST SWAP1 POP SWAP2 SWAP1 POP JUMP JUMPDEST PUSH2 0xEB6 DUP2 PUSH2 0xE9B JUMP JUMPDEST DUP3 MSTORE POP POP JUMP JUMPDEST PUSH1 0x0 PUSH1 0x20 DUP3 ADD SWAP1 POP PUSH2 0xED1 PUSH1 0x0 DUP4 ADD DUP5 PUSH2 0xEAD JUMP JUMPDEST SWAP3 SWAP2 POP POP JUMP JUMPDEST PUSH1 0x0 DUP1 REVERT JUMPDEST PUSH1 0x0 PUSH8 0xFFFFFFFFFFFFFFFF DUP3 GT ISZERO PUSH2 0xEF7 JUMPI PUSH2 0xEF6 PUSH2 0xB0F JUMP JUMPDEST JUMPDEST PUSH2 0xF00 DUP3 PUSH2 0xAFE JUMP JUMPDEST SWAP1 POP PUSH1 0x20 DUP2 ADD SWAP1 POP SWAP2 SWAP1 POP JUMP JUMPDEST DUP3 DUP2 DUP4 CALLDATACOPY PUSH1 0x0 DUP4 DUP4 ADD MSTORE POP POP POP JUMP JUMPDEST PUSH1 0x0 PUSH2 0xF2F PUSH2 0xF2A DUP5 PUSH2 0xEDC JUMP JUMPDEST PUSH2 0xB6F JUMP JUMPDEST SWAP1 POP DUP3 DUP2 MSTORE PUSH1 0x20 DUP2 ADD DUP5 DUP5 DUP5 ADD GT ISZERO PUSH2 0xF4B JUMPI PUSH2 0xF4A PUSH2 0xED7 JUMP JUMPDEST JUMPDEST PUSH2 0xF56 DUP5 DUP3 DUP6 PUSH2 0xF0D JUMP JUMPDEST POP SWAP4 SWAP3 POP POP POP JUMP JUMPDEST PUSH1 0x0 DUP3 PUSH1 0x1F DUP4 ADD SLT PUSH2 0xF73 JUMPI PUSH2 0xF72 PUSH2 0xAF9 JUMP JUMPDEST JUMPDEST DUP2 CALLDATALOAD PUSH2 0xF83 DUP5 DUP3 PUSH1 0x20 DUP7 ADD PUSH2 0xF1C JUMP JUMPDEST SWAP2 POP POP SWAP3 SWAP2 POP POP JUMP JUMPDEST PUSH1 0x0 PUSH1 0x20 DUP3 DUP5 SUB SLT ISZERO PUSH2 0xFA2 JUMPI PUSH2 0xFA1 PUSH2 0xAB9 JUMP JUMPDEST JUMPDEST PUSH1 0x0 DUP3 ADD CALLDATALOAD PUSH8 0xFFFFFFFFFFFFFFFF DUP2 GT ISZERO PUSH2 0xFC0 JUMPI PUSH2 0xFBF PUSH2 0xABE JUMP JUMPDEST JUMPDEST PUSH2 0xFCC DUP5 DUP3 DUP6 ADD PUSH2 0xF5E JUMP JUMPDEST SWAP2 POP POP SWAP3 SWAP2 POP POP JUMP JUMPDEST PUSH1 0x0 DUP2 ISZERO ISZERO SWAP1 POP SWAP2 SWAP1 POP JUMP JUMPDEST PUSH2 0xFEA DUP2 PUSH2 0xFD5 JUMP JUMPDEST DUP3 MSTORE POP POP JUMP JUMPDEST PUSH1 0x0 DUP2 MLOAD SWAP1 POP SWAP2 SWAP1 POP JUMP JUMPDEST PUSH1 0x0 DUP3 DUP3 MSTORE PUSH1 0x20 DUP3 ADD SWAP1 POP SWAP3 SWAP2 POP POP JUMP JUMPDEST PUSH1 0x0 JUMPDEST DUP4 DUP2 LT ISZERO PUSH2 0x102A JUMPI DUP1 DUP3 ADD MLOAD DUP2 DUP5 ADD MSTORE PUSH1 0x20 DUP2 ADD SWAP1 POP PUSH2 0x100F JUMP JUMPDEST PUSH1 0x0 DUP5 DUP5 ADD MSTORE POP POP POP POP JUMP JUMPDEST PUSH1 0x0 PUSH2 0x1041 DUP3 PUSH2 0xFF0 JUMP JUMPDEST PUSH2 0x104B DUP2 DUP6 PUSH2 0xFFB JUMP JUMPDEST SWAP4 POP PUSH2 0x105B DUP2 DUP6 PUSH1 0x20 DUP7 ADD PUSH2 0x100C JUMP JUMPDEST PUSH2 0x1064 DUP2 PUSH2 0xAFE JUMP JUMPDEST DUP5 ADD SWAP2 POP POP SWAP3 SWAP2 POP POP JUMP JUMPDEST PUSH1 0x0 PUSH1 0x40 DUP3 ADD SWAP1 POP PUSH2 0x1084 PUSH1 0x0 DUP4 ADD DUP6 PUSH2 0xFE1 JUMP JUMPDEST DUP2 DUP2 SUB PUSH1 0x20 DUP4 ADD MSTORE PUSH2 0x1096 DUP2 DUP5 PUSH2 0x1036 JUMP JUMPDEST SWAP1 POP SWAP4 SWAP3 POP POP POP JUMP JUMPDEST PUSH1 0x0 PUSH1 0x40 DUP3 ADD SWAP1 POP PUSH2 0x10B4 PUSH1 0x0 DUP4 ADD DUP6 PUSH2 0xDF1 JUMP JUMPDEST PUSH2 0x10C1 PUSH1 0x20 DUP4 ADD DUP5 PUSH2 0xDF1 JUMP JUMPDEST SWAP4 SWAP3 POP POP POP JUMP JUMPDEST PUSH1 0x0 PUSH1 0x60 DUP3 ADD SWAP1 POP PUSH2 0x10DD PUSH1 0x0 DUP4 ADD DUP7 PUSH2 0xE1B JUMP JUMPDEST PUSH2 0x10EA PUSH1 0x20 DUP4 ADD DUP6 PUSH2 0xE1B JUMP JUMPDEST PUSH2 0x10F7 PUSH1 0x40 DUP4 ADD DUP5 PUSH2 0xE1B JUMP JUMPDEST SWAP5 SWAP4 POP POP POP POP JUMP JUMPDEST PUSH1 0x0 DUP2 SWAP1 POP SWAP2 SWAP1 POP JUMP JUMPDEST PUSH2 0x1112 DUP2 PUSH2 0x10FF JUMP JUMPDEST DUP3 MSTORE POP POP JUMP JUMPDEST PUSH1 0x0 PUSH8 0xFFFFFFFFFFFFFFFF DUP3 AND SWAP1 POP SWAP2 SWAP1 POP JUMP JUMPDEST PUSH2 0x1135 DUP2 PUSH2 0x1118 JUMP JUMPDEST DUP3 MSTORE POP POP JUMP JUMPDEST PUSH1 0x0 PUSH2 0xFFFF DUP3 AND SWAP1 POP SWAP2 SWAP1 POP JUMP JUMPDEST PUSH2 0x1152 DUP2 PUSH2 0x113B JUMP JUMPDEST DUP3 MSTORE POP POP JUMP JUMPDEST PUSH1 0x0 PUSH4 0xFFFFFFFF DUP3 AND SWAP1 POP SWAP2 SWAP1 POP JUMP JUMPDEST PUSH2 0x1171 DUP2 PUSH2 0x1158 JUMP JUMPDEST DUP3 MSTORE POP POP JUMP JUMPDEST PUSH1 0x0 PUSH1 0xA0 DUP3 ADD SWAP1 POP PUSH2 0x118C PUSH1 0x0 DUP4 ADD DUP9 PUSH2 0x1109 JUMP JUMPDEST PUSH2 0x1199 PUSH1 0x20 DUP4 ADD DUP8 PUSH2 0x112C JUMP JUMPDEST PUSH2 0x11A6 PUSH1 0x40 DUP4 ADD DUP7 PUSH2 0x1149 JUMP JUMPDEST PUSH2 0x11B3 PUSH1 0x60 DUP4 ADD DUP6 PUSH2 0x1168 JUMP JUMPDEST PUSH2 0x11C0 PUSH1 0x80 DUP4 ADD DUP5 PUSH2 0x1168 JUMP JUMPDEST SWAP7 SWAP6 POP POP POP POP POP POP JUMP JUMPDEST PUSH1 0x0 DUP2 MLOAD SWAP1 POP PUSH2 0x11D9 DUP2 PUSH2 0xACD JUMP JUMPDEST SWAP3 SWAP2 POP POP JUMP JUMPDEST PUSH1 0x0 PUSH1 0x20 DUP3 DUP5 SUB SLT ISZERO PUSH2 0x11F5 JUMPI PUSH2 0x11F4 PUSH2 0xAB9 JUMP JUMPDEST JUMPDEST PUSH1 0x0 PUSH2 0x1203 DUP5 DUP3 DUP6 ADD PUSH2 0x11CA JUMP JUMPDEST SWAP2 POP POP SWAP3 SWAP2 POP POP JUMP JUMPDEST PUSH32 0x4E487B7100000000000000000000000000000000000000000000000000000000 PUSH1 0x0 MSTORE PUSH1 0x32 PUSH1 0x4 MSTORE PUSH1 0x24 PUSH1 0x0 REVERT JUMPDEST PUSH32 0x4E487B7100000000000000000000000000000000000000000000000000000000 PUSH1 0x0 MSTORE PUSH1 0x11 PUSH1 0x4 MSTORE PUSH1 0x24 PUSH1 0x0 REVERT JUMPDEST PUSH1 0x0 PUSH2 0x1275 DUP3 PUSH2 0xAC3 JUMP JUMPDEST SWAP2 POP PUSH2 0x1280 DUP4 PUSH2 0xAC3 JUMP JUMPDEST SWAP3 POP DUP3 DUP3 SUB SWAP1 POP DUP2 DUP2 GT ISZERO PUSH2 0x1298 JUMPI PUSH2 0x1297 PUSH2 0x123B JUMP JUMPDEST JUMPDEST SWAP3 SWAP2 POP POP JUMP JUMPDEST PUSH32 0x4E487B7100000000000000000000000000000000000000000000000000000000 PUSH1 0x0 MSTORE PUSH1 0x12 PUSH1 0x4 MSTORE PUSH1 0x24 PUSH1 0x0 REVERT JUMPDEST PUSH1 0x0 PUSH2 0x12D8 DUP3 PUSH2 0xAC3 JUMP JUMPDEST SWAP2 POP PUSH2 0x12E3 DUP4 PUSH2 0xAC3 JUMP JUMPDEST SWAP3 POP DUP3 PUSH2 0x12F3 JUMPI PUSH2 0x12F2 PUSH2 0x129E JUMP JUMPDEST JUMPDEST DUP3 DUP3 MOD SWAP1 POP SWAP3 SWAP2 POP POP JUMP JUMPDEST PUSH1 0x0 DUP2 SWAP1 POP SWAP3 SWAP2 POP POP JUMP JUMPDEST POP JUMP JUMPDEST PUSH1 0x0 PUSH2 0x1319 PUSH1 0x0 DUP4 PUSH2 0x12FE JUMP JUMPDEST SWAP2 POP PUSH2 0x1324 DUP3 PUSH2 0x1309 JUMP JUMPDEST PUSH1 0x0 DUP3 ADD SWAP1 POP SWAP2 SWAP1 POP JUMP JUMPDEST PUSH1 0x0 PUSH2 0x133A DUP3 PUSH2 0x130C JUMP JUMPDEST SWAP2 POP DUP2 SWAP1 POP SWAP2 SWAP1 POP JUMP INVALID LOG2 PUSH5 0x6970667358 0x22 SLT KECCAK256 STATICCALL PUSH25 0xEACD48FD3D126F41CB91816807A6B9F85178D064691ED39E29 0x5E PUSH17 0xD2DF8064736F6C63430008120033000000 "},"gasEstimates":{"creation":{"codeDepositCost":"997200","executionCost":"infinite","totalCost":"infinite"},"external":{"buyTicket()":"infinite","checkUpkeep(bytes)":"infinite","getLotteryState()":"2640","getNumWords()":"infinite","getPlayers(uint256)":"5012","getRecentWinner()":"2589","getTicketPrice()":"infinite","performUpkeep(bytes)":"infinite","rawFulfillRandomWords(uint256,uint256[])":"infinite"},"internal":{"fulfillRandomWords(uint256,uint256[] memory)":"infinite"}},"methodIdentifiers":{"buyTicket()":"edca914c","checkUpkeep(bytes)":"6e04ff0d","getLotteryState()":"6b68c03c","getNumWords()":"53a2c19a","getPlayers(uint256)":"460e2049","getRecentWinner()":"473f1ddc","getTicketPrice()":"87bb7ae0","performUpkeep(bytes)":"4585e33b","rawFulfillRandomWords(uint256,uint256[])":"1fe543e3"}},"storageLayout":{"storage":[{"astId":193,"contract":"contracts/Lottery.sol:Lottery","label":"s_players","offset":0,"slot":"0","type":"t_array(t_address_payable)dyn_storage"},{"astId":210,"contract":"contracts/Lottery.sol:Lottery","label":"s_recentWinner","offset":0,"slot":"1","type":"t_address"},{"astId":213,"contract":"contracts/Lottery.sol:Lottery","label":"s_lotteryState","offset":20,"slot":"1","type":"t_enum(LotteryState)188"},{"astId":215,"contract":"contracts/Lottery.sol:Lottery","label":"s_previousBlockTimestamp","offset":0,"slot":"2","type":"t_uint256"}],"types":{"t_address":{"encoding":"inplace","label":"address","numberOfBytes":"20"},"t_address_payable":{"encoding":"inplace","label":"address payable","numberOfBytes":"20"},"t_array(t_address_payable)dyn_storage":{"base":"t_address_payable","encoding":"dynamic_array","label":"address payable[]","numberOfBytes":"32"},"t_enum(LotteryState)188":{"encoding":"inplace","label":"enum Lottery.LotteryState","numberOfBytes":"1"},"t_uint256":{"encoding":"inplace","label":"uint256","numberOfBytes":"32"}}},"userdoc":{"kind":"user","methods":{"performUpkeep(bytes)":{"notice":"Fase 1: custom name external are cheaper than public functions"}},"version":1}}}}