{"contracts/Lottery.sol":{"Lottery":{"abi":[{"inputs":[{"internalType":"address","name":"vrfCoordinatorV2","type":"address"},{"internalType":"uint256","name":"ticketPrice","type":"uint256"},{"internalType":"bytes32","name":"gasLane","type":"bytes32"},{"internalType":"uint64","name":"subscriptionId","type":"uint64"},{"internalType":"uint32","name":"callbackGasLimit","type":"uint32"},{"internalType":"uint256","name":"interval","type":"uint256"}],"stateMutability":"nonpayable","type":"constructor"},{"inputs":[],"name":"ErrorLottery__Busy","type":"error"},{"inputs":[],"name":"ErrorLottery__InsufficientTicketAmount","type":"error"},{"inputs":[],"name":"ErrorLottery__PayingWinnerFailed","type":"error"},{"inputs":[{"internalType":"uint256","name":"currentBalance","type":"uint256"},{"internalType":"uint256","name":"numPlayers","type":"uint256"},{"internalType":"uint256","name":"lotteryState","type":"uint256"}],"name":"ErrorLottery__PerformUpkeepNotNeeded","type":"error"},{"inputs":[{"internalType":"address","name":"have","type":"address"},{"internalType":"address","name":"want","type":"address"}],"name":"OnlyCoordinatorCanFulfill","type":"error"},{"anonymous":false,"inputs":[{"indexed":true,"internalType":"bool","name":"upkeep","type":"bool"}],"name":"EventLottery__IsUpkeepTrue","type":"event"},{"anonymous":false,"inputs":[{"indexed":true,"internalType":"uint256","name":"requestId","type":"uint256"}],"name":"EventLottery__RequestRandomWords","type":"event"},{"anonymous":false,"inputs":[{"indexed":true,"internalType":"address","name":"player","type":"address"}],"name":"EventLottery__TicketBuyed","type":"event"},{"anonymous":false,"inputs":[{"indexed":true,"internalType":"address","name":"winner","type":"address"}],"name":"EventLottery__WinnerSelectedAndPaid","type":"event"},{"inputs":[],"name":"buyTicket","outputs":[],"stateMutability":"payable","type":"function"},{"inputs":[{"internalType":"bytes","name":"","type":"bytes"}],"name":"checkUpkeep","outputs":[{"internalType":"bool","name":"upkeepNeeded","type":"bool"},{"internalType":"bytes","name":"performData","type":"bytes"}],"stateMutability":"nonpayable","type":"function"},{"inputs":[],"name":"getInterval","outputs":[{"internalType":"uint256","name":"","type":"uint256"}],"stateMutability":"view","type":"function"},{"inputs":[],"name":"getLatestTimestamp","outputs":[{"internalType":"uint256","name":"","type":"uint256"}],"stateMutability":"view","type":"function"},{"inputs":[],"name":"getLotteryState","outputs":[{"internalType":"enum Lottery.LotteryState","name":"","type":"uint8"}],"stateMutability":"view","type":"function"},{"inputs":[],"name":"getNumPlayers","outputs":[{"internalType":"uint256","name":"","type":"uint256"}],"stateMutability":"view","type":"function"},{"inputs":[],"name":"getNumWords","outputs":[{"internalType":"uint256","name":"","type":"uint256"}],"stateMutability":"pure","type":"function"},{"inputs":[{"internalType":"uint256","name":"index","type":"uint256"}],"name":"getPlayer","outputs":[{"internalType":"address payable","name":"","type":"address"}],"stateMutability":"view","type":"function"},{"inputs":[],"name":"getRecentWinner","outputs":[{"internalType":"address","name":"","type":"address"}],"stateMutability":"view","type":"function"},{"inputs":[],"name":"getRequestConfirmations","outputs":[{"internalType":"uint256","name":"","type":"uint256"}],"stateMutability":"pure","type":"function"},{"inputs":[],"name":"getTicketPrice","outputs":[{"internalType":"uint256","name":"","type":"uint256"}],"stateMutability":"view","type":"function"},{"inputs":[{"internalType":"bytes","name":"","type":"bytes"}],"name":"performUpkeep","outputs":[],"stateMutability":"nonpayable","type":"function"},{"inputs":[{"internalType":"uint256","name":"requestId","type":"uint256"},{"internalType":"uint256[]","name":"randomWords","type":"uint256[]"}],"name":"rawFulfillRandomWords","outputs":[],"stateMutability":"nonpayable","type":"function"},{"inputs":[{"internalType":"enum Lottery.LotteryState","name":"_state","type":"uint8"}],"name":"setState","outputs":[],"stateMutability":"nonpayable","type":"function"}],"devdoc":{"kind":"dev","methods":{"checkUpkeep(bytes)":{"details":"the chainlink keeper waits that upkeepNeeded becomes true in order to performUpkeep and select the winner 1. the state of the Lottery is OPEN 2. every 30 seconds 3. at least 1 player 4. the contract has more than 0 ETH 5. subscription is fundedsince calldata does not work with strings, we use memory","params":{"performData":"is used when you want to perform some actions,  depending on the result of upkeeepNeeded >> used by performUpkeep","upkeepNeeded":"is returned: no need to specify the type."}},"constructor":{"details":"the constructor of VRFConsumerBaseV2 is called and Lottery gains access to the requestRandomness function*"},"performUpkeep(bytes)":{"details":"This method is called by the keepers when upkeepNeeded is true: we dont have to interact with it! Security feature / Escape the reentracy attack: This is a 2 tx process (no simulation can be performed) 1. request the random number - performUpkeep 2. number is returned from the chainlink and then we send money to the winner - fulfillRandomWords"}},"version":1},"evm":{"bytecode":{"linkReferences":{},"object":"610180604052600163ffffffff166101409063ffffffff168152503480156200002757600080fd5b506040516200196e3803806200196e83398181016040528101906200004d9190620002a9565b858073ffffffffffffffffffffffffffffffffffffffff1660808173ffffffffffffffffffffffffffffffffffffffff1681525050508460a081815250508573ffffffffffffffffffffffffffffffffffffffff1660c08173ffffffffffffffffffffffffffffffffffffffff16815250508360e081815250508267ffffffffffffffff166101008167ffffffffffffffff16815250508163ffffffff166101208163ffffffff16815250506000600160146101000a81548160ff0219169083600181111562000122576200012162000345565b5b02179055504260028190555080610160818152505050505050505062000374565b600080fd5b600073ffffffffffffffffffffffffffffffffffffffff82169050919050565b6000620001758262000148565b9050919050565b620001878162000168565b81146200019357600080fd5b50565b600081519050620001a7816200017c565b92915050565b6000819050919050565b620001c281620001ad565b8114620001ce57600080fd5b50565b600081519050620001e281620001b7565b92915050565b6000819050919050565b620001fd81620001e8565b81146200020957600080fd5b50565b6000815190506200021d81620001f2565b92915050565b600067ffffffffffffffff82169050919050565b620002428162000223565b81146200024e57600080fd5b50565b600081519050620002628162000237565b92915050565b600063ffffffff82169050919050565b620002838162000268565b81146200028f57600080fd5b50565b600081519050620002a38162000278565b92915050565b60008060008060008060c08789031215620002c957620002c862000143565b5b6000620002d989828a0162000196565b9650506020620002ec89828a01620001d1565b9550506040620002ff89828a016200020c565b94505060606200031289828a0162000251565b93505060806200032589828a0162000292565b92505060a06200033889828a01620001d1565b9150509295509295509295565b7f4e487b7100000000000000000000000000000000000000000000000000000000600052602160045260246000fd5b60805160a05160c05160e05161010051610120516101405161016051611578620003f6600039600081816106d4015261079f015260008181610552015261060a015260006105310152600061050e015260006104ed015260006104b1015260008181610777015261080c01526000818161033c015261039001526115786000f3fe6080604052600436106100dd5760003560e01c80636b68c03c1161007f57806391ad27b41161005957806391ad27b41461029d578063e55ae4e8146102c8578063edca914c14610305578063f43b52cb1461030f576100dd565b80636b68c03c146102095780636e04ff0d1461023457806387bb7ae014610272576100dd565b806353a2c19a116100bb57806353a2c19a1461015f57806355c9e9261461018a57806356de96db146101b55780635f1b0fd8146101de576100dd565b80631fe543e3146100e25780634585e33b1461010b578063473f1ddc14610134575b600080fd5b3480156100ee57600080fd5b5061010960048036038101906101049190610dfe565b61033a565b005b34801561011757600080fd5b50610132600480360381019061012d9190610eb5565b6103fa565b005b34801561014057600080fd5b506101496105dc565b6040516101569190610f43565b60405180910390f35b34801561016b57600080fd5b50610174610606565b6040516101819190610f6d565b60405180910390f35b34801561019657600080fd5b5061019f610634565b6040516101ac9190610f6d565b60405180910390f35b3480156101c157600080fd5b506101dc60048036038101906101d79190610fad565b610640565b005b3480156101ea57600080fd5b506101f361066d565b6040516102009190610f6d565b60405180910390f35b34801561021557600080fd5b5061021e61067a565b60405161022b9190611051565b60405180910390f35b34801561024057600080fd5b5061025b60048036038101906102569190611121565b610691565b604051610269929190611204565b60405180910390f35b34801561027e57600080fd5b50610287610773565b6040516102949190610f6d565b60405180910390f35b3480156102a957600080fd5b506102b261079b565b6040516102bf9190610f6d565b60405180910390f35b3480156102d457600080fd5b506102ef60048036038101906102ea9190611234565b6107c3565b6040516102fc9190611282565b60405180910390f35b61030d61080a565b005b34801561031b57600080fd5b50610324610979565b6040516103319190610f6d565b60405180910390f35b7f000000000000000000000000000000000000000000000000000000000000000073ffffffffffffffffffffffffffffffffffffffff163373ffffffffffffffffffffffffffffffffffffffff16146103ec57337f00000000000000000000000000000000000000000000000000000000000000006040517f1cf993f40000000000000000000000000000000000000000000000000000000081526004016103e392919061129d565b60405180910390fd5b6103f68282610983565b5050565b600061041460405180602001604052806000815250610691565b509050806104835747600080549050600160149054906101000a900460ff16600181111561044557610444610fda565b5b6040517fa52f617a00000000000000000000000000000000000000000000000000000000815260040161047a939291906112c6565b60405180910390fd5b60018060146101000a81548160ff021916908360018111156104a8576104a7610fda565b5b021790555060007f000000000000000000000000000000000000000000000000000000000000000073ffffffffffffffffffffffffffffffffffffffff16635d3b1d307f00000000000000000000000000000000000000000000000000000000000000007f000000000000000000000000000000000000000000000000000000000000000060037f00000000000000000000000000000000000000000000000000000000000000007f00000000000000000000000000000000000000000000000000000000000000006040518663ffffffff1660e01b8152600401610591959493929190611375565b6020604051808303816000875af11580156105b0573d6000803e3d6000fd5b505050506040513d601f19601f820116820180604052508101906105d491906113dd565b905050505050565b6000600160009054906101000a900473ffffffffffffffffffffffffffffffffffffffff16905090565b60007f000000000000000000000000000000000000000000000000000000000000000063ffffffff16905090565b60008080549050905090565b80600160146101000a81548160ff0219169083600181111561066557610664610fda565b5b021790555050565b6000600361ffff16905090565b6000600160149054906101000a900460ff16905090565b600060606000600160149054906101000a900460ff1660018111156106b9576106b8610fda565b5b600060018111156106cd576106cc610fda565b5b14905060007f0000000000000000000000000000000000000000000000000000000000000000600254426107019190611439565b1190506000806000805490501190506000804711905060008480156107235750835b801561072c5750825b80156107355750815b90508015157f554fc1fd4b418f0afea2764fbe56a9342e175c4d47816662c6dd9d916adb7d8d60405160405180910390a28096505050505050915091565b60007f0000000000000000000000000000000000000000000000000000000000000000905090565b60007f0000000000000000000000000000000000000000000000000000000000000000905090565b60008082815481106107d8576107d761146d565b5b9060005260206000200160009054906101000a900473ffffffffffffffffffffffffffffffffffffffff169050919050565b7f0000000000000000000000000000000000000000000000000000000000000000341015610864576040517f80ae043200000000000000000000000000000000000000000000000000000000815260040160405180910390fd5b6000600181111561087857610877610fda565b5b600160149054906101000a900460ff16600181111561089a57610899610fda565b5b146108d1576040517f7ec2ef9c00000000000000000000000000000000000000000000000000000000815260040160405180910390fd5b6000339080600181540180825580915050600190039060005260206000200160009091909190916101000a81548173ffffffffffffffffffffffffffffffffffffffff021916908373ffffffffffffffffffffffffffffffffffffffff1602179055503373ffffffffffffffffffffffffffffffffffffffff167fc013140ee7c0e76c7697e928d9a364c76f328b00fd4978e1b4ee61fa6974154d60405160405180910390a2565b6000600254905090565b600080805490508260008151811061099e5761099d61146d565b5b60200260200101516109b091906114cb565b905060008082815481106109c7576109c661146d565b5b9060005260206000200160009054906101000a900473ffffffffffffffffffffffffffffffffffffffff16905080600160006101000a81548173ffffffffffffffffffffffffffffffffffffffff021916908373ffffffffffffffffffffffffffffffffffffffff1602179055506000600160146101000a81548160ff02191690836001811115610a5b57610a5a610fda565b5b0217905550600067ffffffffffffffff811115610a7b57610a7a610cbb565b5b604051908082528060200260200182016040528015610aa95781602001602082028036833780820191505090505b5060009080519060200190610abf929190610bb4565b504260028190555060008173ffffffffffffffffffffffffffffffffffffffff1647604051610aed9061152d565b60006040518083038185875af1925050503d8060008114610b2a576040519150601f19603f3d011682016040523d82523d6000602084013e610b2f565b606091505b5050905080610b6a576040517f760b301700000000000000000000000000000000000000000000000000000000815260040160405180910390fd5b8173ffffffffffffffffffffffffffffffffffffffff167f27385c6bce45eba0fa17e24b25cc6bea4edd17adc706c6c30b2cea8c1039356e60405160405180910390a25050505050565b828054828255906000526020600020908101928215610c2d579160200282015b82811115610c2c5782518260006101000a81548173ffffffffffffffffffffffffffffffffffffffff021916908373ffffffffffffffffffffffffffffffffffffffff16021790555091602001919060010190610bd4565b5b509050610c3a9190610c3e565b5090565b5b80821115610c57576000816000905550600101610c3f565b5090565b6000604051905090565b600080fd5b600080fd5b6000819050919050565b610c8281610c6f565b8114610c8d57600080fd5b50565b600081359050610c9f81610c79565b92915050565b600080fd5b6000601f19601f8301169050919050565b7f4e487b7100000000000000000000000000000000000000000000000000000000600052604160045260246000fd5b610cf382610caa565b810181811067ffffffffffffffff82111715610d1257610d11610cbb565b5b80604052505050565b6000610d25610c5b565b9050610d318282610cea565b919050565b600067ffffffffffffffff821115610d5157610d50610cbb565b5b602082029050602081019050919050565b600080fd5b6000610d7a610d7584610d36565b610d1b565b90508083825260208201905060208402830185811115610d9d57610d9c610d62565b5b835b81811015610dc65780610db28882610c90565b845260208401935050602081019050610d9f565b5050509392505050565b600082601f830112610de557610de4610ca5565b5b8135610df5848260208601610d67565b91505092915050565b60008060408385031215610e1557610e14610c65565b5b6000610e2385828601610c90565b925050602083013567ffffffffffffffff811115610e4457610e43610c6a565b5b610e5085828601610dd0565b9150509250929050565b600080fd5b60008083601f840112610e7557610e74610ca5565b5b8235905067ffffffffffffffff811115610e9257610e91610e5a565b5b602083019150836001820283011115610eae57610ead610d62565b5b9250929050565b60008060208385031215610ecc57610ecb610c65565b5b600083013567ffffffffffffffff811115610eea57610ee9610c6a565b5b610ef685828601610e5f565b92509250509250929050565b600073ffffffffffffffffffffffffffffffffffffffff82169050919050565b6000610f2d82610f02565b9050919050565b610f3d81610f22565b82525050565b6000602082019050610f586000830184610f34565b92915050565b610f6781610c6f565b82525050565b6000602082019050610f826000830184610f5e565b92915050565b60028110610f9557600080fd5b50565b600081359050610fa781610f88565b92915050565b600060208284031215610fc357610fc2610c65565b5b6000610fd184828501610f98565b91505092915050565b7f4e487b7100000000000000000000000000000000000000000000000000000000600052602160045260246000fd5b6002811061101a57611019610fda565b5b50565b600081905061102b82611009565b919050565b600061103b8261101d565b9050919050565b61104b81611030565b82525050565b60006020820190506110666000830184611042565b92915050565b600080fd5b600067ffffffffffffffff82111561108c5761108b610cbb565b5b61109582610caa565b9050602081019050919050565b82818337600083830152505050565b60006110c46110bf84611071565b610d1b565b9050828152602081018484840111156110e0576110df61106c565b5b6110eb8482856110a2565b509392505050565b600082601f83011261110857611107610ca5565b5b81356111188482602086016110b1565b91505092915050565b60006020828403121561113757611136610c65565b5b600082013567ffffffffffffffff81111561115557611154610c6a565b5b611161848285016110f3565b91505092915050565b60008115159050919050565b61117f8161116a565b82525050565b600081519050919050565b600082825260208201905092915050565b60005b838110156111bf5780820151818401526020810190506111a4565b60008484015250505050565b60006111d682611185565b6111e08185611190565b93506111f08185602086016111a1565b6111f981610caa565b840191505092915050565b60006040820190506112196000830185611176565b818103602083015261122b81846111cb565b90509392505050565b60006020828403121561124a57611249610c65565b5b600061125884828501610c90565b91505092915050565b600061126c82610f02565b9050919050565b61127c81611261565b82525050565b60006020820190506112976000830184611273565b92915050565b60006040820190506112b26000830185610f34565b6112bf6020830184610f34565b9392505050565b60006060820190506112db6000830186610f5e565b6112e86020830185610f5e565b6112f56040830184610f5e565b949350505050565b6000819050919050565b611310816112fd565b82525050565b600067ffffffffffffffff82169050919050565b61133381611316565b82525050565b600061ffff82169050919050565b61135081611339565b82525050565b600063ffffffff82169050919050565b61136f81611356565b82525050565b600060a08201905061138a6000830188611307565b611397602083018761132a565b6113a46040830186611347565b6113b16060830185611366565b6113be6080830184611366565b9695505050505050565b6000815190506113d781610c79565b92915050565b6000602082840312156113f3576113f2610c65565b5b6000611401848285016113c8565b91505092915050565b7f4e487b7100000000000000000000000000000000000000000000000000000000600052601160045260246000fd5b600061144482610c6f565b915061144f83610c6f565b92508282039050818111156114675761146661140a565b5b92915050565b7f4e487b7100000000000000000000000000000000000000000000000000000000600052603260045260246000fd5b7f4e487b7100000000000000000000000000000000000000000000000000000000600052601260045260246000fd5b60006114d682610c6f565b91506114e183610c6f565b9250826114f1576114f061149c565b5b828206905092915050565b600081905092915050565b50565b60006115176000836114fc565b915061152282611507565b600082019050919050565b60006115388261150a565b915081905091905056fea2646970667358221220d7eacc09f74505c6a154b023fb0be4f4303a21c37f7a996d9afa241e7e6cfa0764736f6c63430008120033","opcodes":"PUSH2 0x180 PUSH1 0x40 MSTORE PUSH1 0x1 PUSH4 0xFFFFFFFF AND PUSH2 0x140 SWAP1 PUSH4 0xFFFFFFFF AND DUP2 MSTORE POP CALLVALUE DUP1 ISZERO PUSH3 0x27 JUMPI PUSH1 0x0 DUP1 REVERT JUMPDEST POP PUSH1 0x40 MLOAD PUSH3 0x196E CODESIZE SUB DUP1 PUSH3 0x196E DUP4 CODECOPY DUP2 DUP2 ADD PUSH1 0x40 MSTORE DUP2 ADD SWAP1 PUSH3 0x4D SWAP2 SWAP1 PUSH3 0x2A9 JUMP JUMPDEST DUP6 DUP1 PUSH20 0xFFFFFFFFFFFFFFFFFFFFFFFFFFFFFFFFFFFFFFFF AND PUSH1 0x80 DUP2 PUSH20 0xFFFFFFFFFFFFFFFFFFFFFFFFFFFFFFFFFFFFFFFF AND DUP2 MSTORE POP POP POP DUP5 PUSH1 0xA0 DUP2 DUP2 MSTORE POP POP DUP6 PUSH20 0xFFFFFFFFFFFFFFFFFFFFFFFFFFFFFFFFFFFFFFFF AND PUSH1 0xC0 DUP2 PUSH20 0xFFFFFFFFFFFFFFFFFFFFFFFFFFFFFFFFFFFFFFFF AND DUP2 MSTORE POP POP DUP4 PUSH1 0xE0 DUP2 DUP2 MSTORE POP POP DUP3 PUSH8 0xFFFFFFFFFFFFFFFF AND PUSH2 0x100 DUP2 PUSH8 0xFFFFFFFFFFFFFFFF AND DUP2 MSTORE POP POP DUP2 PUSH4 0xFFFFFFFF AND PUSH2 0x120 DUP2 PUSH4 0xFFFFFFFF AND DUP2 MSTORE POP POP PUSH1 0x0 PUSH1 0x1 PUSH1 0x14 PUSH2 0x100 EXP DUP2 SLOAD DUP2 PUSH1 0xFF MUL NOT AND SWAP1 DUP4 PUSH1 0x1 DUP2 GT ISZERO PUSH3 0x122 JUMPI PUSH3 0x121 PUSH3 0x345 JUMP JUMPDEST JUMPDEST MUL OR SWAP1 SSTORE POP TIMESTAMP PUSH1 0x2 DUP2 SWAP1 SSTORE POP DUP1 PUSH2 0x160 DUP2 DUP2 MSTORE POP POP POP POP POP POP POP POP PUSH3 0x374 JUMP JUMPDEST PUSH1 0x0 DUP1 REVERT JUMPDEST PUSH1 0x0 PUSH20 0xFFFFFFFFFFFFFFFFFFFFFFFFFFFFFFFFFFFFFFFF DUP3 AND SWAP1 POP SWAP2 SWAP1 POP JUMP JUMPDEST PUSH1 0x0 PUSH3 0x175 DUP3 PUSH3 0x148 JUMP JUMPDEST SWAP1 POP SWAP2 SWAP1 POP JUMP JUMPDEST PUSH3 0x187 DUP2 PUSH3 0x168 JUMP JUMPDEST DUP2 EQ PUSH3 0x193 JUMPI PUSH1 0x0 DUP1 REVERT JUMPDEST POP JUMP JUMPDEST PUSH1 0x0 DUP2 MLOAD SWAP1 POP PUSH3 0x1A7 DUP2 PUSH3 0x17C JUMP JUMPDEST SWAP3 SWAP2 POP POP JUMP JUMPDEST PUSH1 0x0 DUP2 SWAP1 POP SWAP2 SWAP1 POP JUMP JUMPDEST PUSH3 0x1C2 DUP2 PUSH3 0x1AD JUMP JUMPDEST DUP2 EQ PUSH3 0x1CE JUMPI PUSH1 0x0 DUP1 REVERT JUMPDEST POP JUMP JUMPDEST PUSH1 0x0 DUP2 MLOAD SWAP1 POP PUSH3 0x1E2 DUP2 PUSH3 0x1B7 JUMP JUMPDEST SWAP3 SWAP2 POP POP JUMP JUMPDEST PUSH1 0x0 DUP2 SWAP1 POP SWAP2 SWAP1 POP JUMP JUMPDEST PUSH3 0x1FD DUP2 PUSH3 0x1E8 JUMP JUMPDEST DUP2 EQ PUSH3 0x209 JUMPI PUSH1 0x0 DUP1 REVERT JUMPDEST POP JUMP JUMPDEST PUSH1 0x0 DUP2 MLOAD SWAP1 POP PUSH3 0x21D DUP2 PUSH3 0x1F2 JUMP JUMPDEST SWAP3 SWAP2 POP POP JUMP JUMPDEST PUSH1 0x0 PUSH8 0xFFFFFFFFFFFFFFFF DUP3 AND SWAP1 POP SWAP2 SWAP1 POP JUMP JUMPDEST PUSH3 0x242 DUP2 PUSH3 0x223 JUMP JUMPDEST DUP2 EQ PUSH3 0x24E JUMPI PUSH1 0x0 DUP1 REVERT JUMPDEST POP JUMP JUMPDEST PUSH1 0x0 DUP2 MLOAD SWAP1 POP PUSH3 0x262 DUP2 PUSH3 0x237 JUMP JUMPDEST SWAP3 SWAP2 POP POP JUMP JUMPDEST PUSH1 0x0 PUSH4 0xFFFFFFFF DUP3 AND SWAP1 POP SWAP2 SWAP1 POP JUMP JUMPDEST PUSH3 0x283 DUP2 PUSH3 0x268 JUMP JUMPDEST DUP2 EQ PUSH3 0x28F JUMPI PUSH1 0x0 DUP1 REVERT JUMPDEST POP JUMP JUMPDEST PUSH1 0x0 DUP2 MLOAD SWAP1 POP PUSH3 0x2A3 DUP2 PUSH3 0x278 JUMP JUMPDEST SWAP3 SWAP2 POP POP JUMP JUMPDEST PUSH1 0x0 DUP1 PUSH1 0x0 DUP1 PUSH1 0x0 DUP1 PUSH1 0xC0 DUP8 DUP10 SUB SLT ISZERO PUSH3 0x2C9 JUMPI PUSH3 0x2C8 PUSH3 0x143 JUMP JUMPDEST JUMPDEST PUSH1 0x0 PUSH3 0x2D9 DUP10 DUP3 DUP11 ADD PUSH3 0x196 JUMP JUMPDEST SWAP7 POP POP PUSH1 0x20 PUSH3 0x2EC DUP10 DUP3 DUP11 ADD PUSH3 0x1D1 JUMP JUMPDEST SWAP6 POP POP PUSH1 0x40 PUSH3 0x2FF DUP10 DUP3 DUP11 ADD PUSH3 0x20C JUMP JUMPDEST SWAP5 POP POP PUSH1 0x60 PUSH3 0x312 DUP10 DUP3 DUP11 ADD PUSH3 0x251 JUMP JUMPDEST SWAP4 POP POP PUSH1 0x80 PUSH3 0x325 DUP10 DUP3 DUP11 ADD PUSH3 0x292 JUMP JUMPDEST SWAP3 POP POP PUSH1 0xA0 PUSH3 0x338 DUP10 DUP3 DUP11 ADD PUSH3 0x1D1 JUMP JUMPDEST SWAP2 POP POP SWAP3 SWAP6 POP SWAP3 SWAP6 POP SWAP3 SWAP6 JUMP JUMPDEST PUSH32 0x4E487B7100000000000000000000000000000000000000000000000000000000 PUSH1 0x0 MSTORE PUSH1 0x21 PUSH1 0x4 MSTORE PUSH1 0x24 PUSH1 0x0 REVERT JUMPDEST PUSH1 0x80 MLOAD PUSH1 0xA0 MLOAD PUSH1 0xC0 MLOAD PUSH1 0xE0 MLOAD PUSH2 0x100 MLOAD PUSH2 0x120 MLOAD PUSH2 0x140 MLOAD PUSH2 0x160 MLOAD PUSH2 0x1578 PUSH3 0x3F6 PUSH1 0x0 CODECOPY PUSH1 0x0 DUP2 DUP2 PUSH2 0x6D4 ADD MSTORE PUSH2 0x79F ADD MSTORE PUSH1 0x0 DUP2 DUP2 PUSH2 0x552 ADD MSTORE PUSH2 0x60A ADD MSTORE PUSH1 0x0 PUSH2 0x531 ADD MSTORE PUSH1 0x0 PUSH2 0x50E ADD MSTORE PUSH1 0x0 PUSH2 0x4ED ADD MSTORE PUSH1 0x0 PUSH2 0x4B1 ADD MSTORE PUSH1 0x0 DUP2 DUP2 PUSH2 0x777 ADD MSTORE PUSH2 0x80C ADD MSTORE PUSH1 0x0 DUP2 DUP2 PUSH2 0x33C ADD MSTORE PUSH2 0x390 ADD MSTORE PUSH2 0x1578 PUSH1 0x0 RETURN INVALID PUSH1 0x80 PUSH1 0x40 MSTORE PUSH1 0x4 CALLDATASIZE LT PUSH2 0xDD JUMPI PUSH1 0x0 CALLDATALOAD PUSH1 0xE0 SHR DUP1 PUSH4 0x6B68C03C GT PUSH2 0x7F JUMPI DUP1 PUSH4 0x91AD27B4 GT PUSH2 0x59 JUMPI DUP1 PUSH4 0x91AD27B4 EQ PUSH2 0x29D JUMPI DUP1 PUSH4 0xE55AE4E8 EQ PUSH2 0x2C8 JUMPI DUP1 PUSH4 0xEDCA914C EQ PUSH2 0x305 JUMPI DUP1 PUSH4 0xF43B52CB EQ PUSH2 0x30F JUMPI PUSH2 0xDD JUMP JUMPDEST DUP1 PUSH4 0x6B68C03C EQ PUSH2 0x209 JUMPI DUP1 PUSH4 0x6E04FF0D EQ PUSH2 0x234 JUMPI DUP1 PUSH4 0x87BB7AE0 EQ PUSH2 0x272 JUMPI PUSH2 0xDD JUMP JUMPDEST DUP1 PUSH4 0x53A2C19A GT PUSH2 0xBB JUMPI DUP1 PUSH4 0x53A2C19A EQ PUSH2 0x15F JUMPI DUP1 PUSH4 0x55C9E926 EQ PUSH2 0x18A JUMPI DUP1 PUSH4 0x56DE96DB EQ PUSH2 0x1B5 JUMPI DUP1 PUSH4 0x5F1B0FD8 EQ PUSH2 0x1DE JUMPI PUSH2 0xDD JUMP JUMPDEST DUP1 PUSH4 0x1FE543E3 EQ PUSH2 0xE2 JUMPI DUP1 PUSH4 0x4585E33B EQ PUSH2 0x10B JUMPI DUP1 PUSH4 0x473F1DDC EQ PUSH2 0x134 JUMPI JUMPDEST PUSH1 0x0 DUP1 REVERT JUMPDEST CALLVALUE DUP1 ISZERO PUSH2 0xEE JUMPI PUSH1 0x0 DUP1 REVERT JUMPDEST POP PUSH2 0x109 PUSH1 0x4 DUP1 CALLDATASIZE SUB DUP2 ADD SWAP1 PUSH2 0x104 SWAP2 SWAP1 PUSH2 0xDFE JUMP JUMPDEST PUSH2 0x33A JUMP JUMPDEST STOP JUMPDEST CALLVALUE DUP1 ISZERO PUSH2 0x117 JUMPI PUSH1 0x0 DUP1 REVERT JUMPDEST POP PUSH2 0x132 PUSH1 0x4 DUP1 CALLDATASIZE SUB DUP2 ADD SWAP1 PUSH2 0x12D SWAP2 SWAP1 PUSH2 0xEB5 JUMP JUMPDEST PUSH2 0x3FA JUMP JUMPDEST STOP JUMPDEST CALLVALUE DUP1 ISZERO PUSH2 0x140 JUMPI PUSH1 0x0 DUP1 REVERT JUMPDEST POP PUSH2 0x149 PUSH2 0x5DC JUMP JUMPDEST PUSH1 0x40 MLOAD PUSH2 0x156 SWAP2 SWAP1 PUSH2 0xF43 JUMP JUMPDEST PUSH1 0x40 MLOAD DUP1 SWAP2 SUB SWAP1 RETURN JUMPDEST CALLVALUE DUP1 ISZERO PUSH2 0x16B JUMPI PUSH1 0x0 DUP1 REVERT JUMPDEST POP PUSH2 0x174 PUSH2 0x606 JUMP JUMPDEST PUSH1 0x40 MLOAD PUSH2 0x181 SWAP2 SWAP1 PUSH2 0xF6D JUMP JUMPDEST PUSH1 0x40 MLOAD DUP1 SWAP2 SUB SWAP1 RETURN JUMPDEST CALLVALUE DUP1 ISZERO PUSH2 0x196 JUMPI PUSH1 0x0 DUP1 REVERT JUMPDEST POP PUSH2 0x19F PUSH2 0x634 JUMP JUMPDEST PUSH1 0x40 MLOAD PUSH2 0x1AC SWAP2 SWAP1 PUSH2 0xF6D JUMP JUMPDEST PUSH1 0x40 MLOAD DUP1 SWAP2 SUB SWAP1 RETURN JUMPDEST CALLVALUE DUP1 ISZERO PUSH2 0x1C1 JUMPI PUSH1 0x0 DUP1 REVERT JUMPDEST POP PUSH2 0x1DC PUSH1 0x4 DUP1 CALLDATASIZE SUB DUP2 ADD SWAP1 PUSH2 0x1D7 SWAP2 SWAP1 PUSH2 0xFAD JUMP JUMPDEST PUSH2 0x640 JUMP JUMPDEST STOP JUMPDEST CALLVALUE DUP1 ISZERO PUSH2 0x1EA JUMPI PUSH1 0x0 DUP1 REVERT JUMPDEST POP PUSH2 0x1F3 PUSH2 0x66D JUMP JUMPDEST PUSH1 0x40 MLOAD PUSH2 0x200 SWAP2 SWAP1 PUSH2 0xF6D JUMP JUMPDEST PUSH1 0x40 MLOAD DUP1 SWAP2 SUB SWAP1 RETURN JUMPDEST CALLVALUE DUP1 ISZERO PUSH2 0x215 JUMPI PUSH1 0x0 DUP1 REVERT JUMPDEST POP PUSH2 0x21E PUSH2 0x67A JUMP JUMPDEST PUSH1 0x40 MLOAD PUSH2 0x22B SWAP2 SWAP1 PUSH2 0x1051 JUMP JUMPDEST PUSH1 0x40 MLOAD DUP1 SWAP2 SUB SWAP1 RETURN JUMPDEST CALLVALUE DUP1 ISZERO PUSH2 0x240 JUMPI PUSH1 0x0 DUP1 REVERT JUMPDEST POP PUSH2 0x25B PUSH1 0x4 DUP1 CALLDATASIZE SUB DUP2 ADD SWAP1 PUSH2 0x256 SWAP2 SWAP1 PUSH2 0x1121 JUMP JUMPDEST PUSH2 0x691 JUMP JUMPDEST PUSH1 0x40 MLOAD PUSH2 0x269 SWAP3 SWAP2 SWAP1 PUSH2 0x1204 JUMP JUMPDEST PUSH1 0x40 MLOAD DUP1 SWAP2 SUB SWAP1 RETURN JUMPDEST CALLVALUE DUP1 ISZERO PUSH2 0x27E JUMPI PUSH1 0x0 DUP1 REVERT JUMPDEST POP PUSH2 0x287 PUSH2 0x773 JUMP JUMPDEST PUSH1 0x40 MLOAD PUSH2 0x294 SWAP2 SWAP1 PUSH2 0xF6D JUMP JUMPDEST PUSH1 0x40 MLOAD DUP1 SWAP2 SUB SWAP1 RETURN JUMPDEST CALLVALUE DUP1 ISZERO PUSH2 0x2A9 JUMPI PUSH1 0x0 DUP1 REVERT JUMPDEST POP PUSH2 0x2B2 PUSH2 0x79B JUMP JUMPDEST PUSH1 0x40 MLOAD PUSH2 0x2BF SWAP2 SWAP1 PUSH2 0xF6D JUMP JUMPDEST PUSH1 0x40 MLOAD DUP1 SWAP2 SUB SWAP1 RETURN JUMPDEST CALLVALUE DUP1 ISZERO PUSH2 0x2D4 JUMPI PUSH1 0x0 DUP1 REVERT JUMPDEST POP PUSH2 0x2EF PUSH1 0x4 DUP1 CALLDATASIZE SUB DUP2 ADD SWAP1 PUSH2 0x2EA SWAP2 SWAP1 PUSH2 0x1234 JUMP JUMPDEST PUSH2 0x7C3 JUMP JUMPDEST PUSH1 0x40 MLOAD PUSH2 0x2FC SWAP2 SWAP1 PUSH2 0x1282 JUMP JUMPDEST PUSH1 0x40 MLOAD DUP1 SWAP2 SUB SWAP1 RETURN JUMPDEST PUSH2 0x30D PUSH2 0x80A JUMP JUMPDEST STOP JUMPDEST CALLVALUE DUP1 ISZERO PUSH2 0x31B JUMPI PUSH1 0x0 DUP1 REVERT JUMPDEST POP PUSH2 0x324 PUSH2 0x979 JUMP JUMPDEST PUSH1 0x40 MLOAD PUSH2 0x331 SWAP2 SWAP1 PUSH2 0xF6D JUMP JUMPDEST PUSH1 0x40 MLOAD DUP1 SWAP2 SUB SWAP1 RETURN JUMPDEST PUSH32 0x0 PUSH20 0xFFFFFFFFFFFFFFFFFFFFFFFFFFFFFFFFFFFFFFFF AND CALLER PUSH20 0xFFFFFFFFFFFFFFFFFFFFFFFFFFFFFFFFFFFFFFFF AND EQ PUSH2 0x3EC JUMPI CALLER PUSH32 0x0 PUSH1 0x40 MLOAD PUSH32 0x1CF993F400000000000000000000000000000000000000000000000000000000 DUP2 MSTORE PUSH1 0x4 ADD PUSH2 0x3E3 SWAP3 SWAP2 SWAP1 PUSH2 0x129D JUMP JUMPDEST PUSH1 0x40 MLOAD DUP1 SWAP2 SUB SWAP1 REVERT JUMPDEST PUSH2 0x3F6 DUP3 DUP3 PUSH2 0x983 JUMP JUMPDEST POP POP JUMP JUMPDEST PUSH1 0x0 PUSH2 0x414 PUSH1 0x40 MLOAD DUP1 PUSH1 0x20 ADD PUSH1 0x40 MSTORE DUP1 PUSH1 0x0 DUP2 MSTORE POP PUSH2 0x691 JUMP JUMPDEST POP SWAP1 POP DUP1 PUSH2 0x483 JUMPI SELFBALANCE PUSH1 0x0 DUP1 SLOAD SWAP1 POP PUSH1 0x1 PUSH1 0x14 SWAP1 SLOAD SWAP1 PUSH2 0x100 EXP SWAP1 DIV PUSH1 0xFF AND PUSH1 0x1 DUP2 GT ISZERO PUSH2 0x445 JUMPI PUSH2 0x444 PUSH2 0xFDA JUMP JUMPDEST JUMPDEST PUSH1 0x40 MLOAD PUSH32 0xA52F617A00000000000000000000000000000000000000000000000000000000 DUP2 MSTORE PUSH1 0x4 ADD PUSH2 0x47A SWAP4 SWAP3 SWAP2 SWAP1 PUSH2 0x12C6 JUMP JUMPDEST PUSH1 0x40 MLOAD DUP1 SWAP2 SUB SWAP1 REVERT JUMPDEST PUSH1 0x1 DUP1 PUSH1 0x14 PUSH2 0x100 EXP DUP2 SLOAD DUP2 PUSH1 0xFF MUL NOT AND SWAP1 DUP4 PUSH1 0x1 DUP2 GT ISZERO PUSH2 0x4A8 JUMPI PUSH2 0x4A7 PUSH2 0xFDA JUMP JUMPDEST JUMPDEST MUL OR SWAP1 SSTORE POP PUSH1 0x0 PUSH32 0x0 PUSH20 0xFFFFFFFFFFFFFFFFFFFFFFFFFFFFFFFFFFFFFFFF AND PUSH4 0x5D3B1D30 PUSH32 0x0 PUSH32 0x0 PUSH1 0x3 PUSH32 0x0 PUSH32 0x0 PUSH1 0x40 MLOAD DUP7 PUSH4 0xFFFFFFFF AND PUSH1 0xE0 SHL DUP2 MSTORE PUSH1 0x4 ADD PUSH2 0x591 SWAP6 SWAP5 SWAP4 SWAP3 SWAP2 SWAP1 PUSH2 0x1375 JUMP JUMPDEST PUSH1 0x20 PUSH1 0x40 MLOAD DUP1 DUP4 SUB DUP2 PUSH1 0x0 DUP8 GAS CALL ISZERO DUP1 ISZERO PUSH2 0x5B0 JUMPI RETURNDATASIZE PUSH1 0x0 DUP1 RETURNDATACOPY RETURNDATASIZE PUSH1 0x0 REVERT JUMPDEST POP POP POP POP PUSH1 0x40 MLOAD RETURNDATASIZE PUSH1 0x1F NOT PUSH1 0x1F DUP3 ADD AND DUP3 ADD DUP1 PUSH1 0x40 MSTORE POP DUP2 ADD SWAP1 PUSH2 0x5D4 SWAP2 SWAP1 PUSH2 0x13DD JUMP JUMPDEST SWAP1 POP POP POP POP POP JUMP JUMPDEST PUSH1 0x0 PUSH1 0x1 PUSH1 0x0 SWAP1 SLOAD SWAP1 PUSH2 0x100 EXP SWAP1 DIV PUSH20 0xFFFFFFFFFFFFFFFFFFFFFFFFFFFFFFFFFFFFFFFF AND SWAP1 POP SWAP1 JUMP JUMPDEST PUSH1 0x0 PUSH32 0x0 PUSH4 0xFFFFFFFF AND SWAP1 POP SWAP1 JUMP JUMPDEST PUSH1 0x0 DUP1 DUP1 SLOAD SWAP1 POP SWAP1 POP SWAP1 JUMP JUMPDEST DUP1 PUSH1 0x1 PUSH1 0x14 PUSH2 0x100 EXP DUP2 SLOAD DUP2 PUSH1 0xFF MUL NOT AND SWAP1 DUP4 PUSH1 0x1 DUP2 GT ISZERO PUSH2 0x665 JUMPI PUSH2 0x664 PUSH2 0xFDA JUMP JUMPDEST JUMPDEST MUL OR SWAP1 SSTORE POP POP JUMP JUMPDEST PUSH1 0x0 PUSH1 0x3 PUSH2 0xFFFF AND SWAP1 POP SWAP1 JUMP JUMPDEST PUSH1 0x0 PUSH1 0x1 PUSH1 0x14 SWAP1 SLOAD SWAP1 PUSH2 0x100 EXP SWAP1 DIV PUSH1 0xFF AND SWAP1 POP SWAP1 JUMP JUMPDEST PUSH1 0x0 PUSH1 0x60 PUSH1 0x0 PUSH1 0x1 PUSH1 0x14 SWAP1 SLOAD SWAP1 PUSH2 0x100 EXP SWAP1 DIV PUSH1 0xFF AND PUSH1 0x1 DUP2 GT ISZERO PUSH2 0x6B9 JUMPI PUSH2 0x6B8 PUSH2 0xFDA JUMP JUMPDEST JUMPDEST PUSH1 0x0 PUSH1 0x1 DUP2 GT ISZERO PUSH2 0x6CD JUMPI PUSH2 0x6CC PUSH2 0xFDA JUMP JUMPDEST JUMPDEST EQ SWAP1 POP PUSH1 0x0 PUSH32 0x0 PUSH1 0x2 SLOAD TIMESTAMP PUSH2 0x701 SWAP2 SWAP1 PUSH2 0x1439 JUMP JUMPDEST GT SWAP1 POP PUSH1 0x0 DUP1 PUSH1 0x0 DUP1 SLOAD SWAP1 POP GT SWAP1 POP PUSH1 0x0 DUP1 SELFBALANCE GT SWAP1 POP PUSH1 0x0 DUP5 DUP1 ISZERO PUSH2 0x723 JUMPI POP DUP4 JUMPDEST DUP1 ISZERO PUSH2 0x72C JUMPI POP DUP3 JUMPDEST DUP1 ISZERO PUSH2 0x735 JUMPI POP DUP2 JUMPDEST SWAP1 POP DUP1 ISZERO ISZERO PUSH32 0x554FC1FD4B418F0AFEA2764FBE56A9342E175C4D47816662C6DD9D916ADB7D8D PUSH1 0x40 MLOAD PUSH1 0x40 MLOAD DUP1 SWAP2 SUB SWAP1 LOG2 DUP1 SWAP7 POP POP POP POP POP POP SWAP2 POP SWAP2 JUMP JUMPDEST PUSH1 0x0 PUSH32 0x0 SWAP1 POP SWAP1 JUMP JUMPDEST PUSH1 0x0 PUSH32 0x0 SWAP1 POP SWAP1 JUMP JUMPDEST PUSH1 0x0 DUP1 DUP3 DUP2 SLOAD DUP2 LT PUSH2 0x7D8 JUMPI PUSH2 0x7D7 PUSH2 0x146D JUMP JUMPDEST JUMPDEST SWAP1 PUSH1 0x0 MSTORE PUSH1 0x20 PUSH1 0x0 KECCAK256 ADD PUSH1 0x0 SWAP1 SLOAD SWAP1 PUSH2 0x100 EXP SWAP1 DIV PUSH20 0xFFFFFFFFFFFFFFFFFFFFFFFFFFFFFFFFFFFFFFFF AND SWAP1 POP SWAP2 SWAP1 POP JUMP JUMPDEST PUSH32 0x0 CALLVALUE LT ISZERO PUSH2 0x864 JUMPI PUSH1 0x40 MLOAD PUSH32 0x80AE043200000000000000000000000000000000000000000000000000000000 DUP2 MSTORE PUSH1 0x4 ADD PUSH1 0x40 MLOAD DUP1 SWAP2 SUB SWAP1 REVERT JUMPDEST PUSH1 0x0 PUSH1 0x1 DUP2 GT ISZERO PUSH2 0x878 JUMPI PUSH2 0x877 PUSH2 0xFDA JUMP JUMPDEST JUMPDEST PUSH1 0x1 PUSH1 0x14 SWAP1 SLOAD SWAP1 PUSH2 0x100 EXP SWAP1 DIV PUSH1 0xFF AND PUSH1 0x1 DUP2 GT ISZERO PUSH2 0x89A JUMPI PUSH2 0x899 PUSH2 0xFDA JUMP JUMPDEST JUMPDEST EQ PUSH2 0x8D1 JUMPI PUSH1 0x40 MLOAD PUSH32 0x7EC2EF9C00000000000000000000000000000000000000000000000000000000 DUP2 MSTORE PUSH1 0x4 ADD PUSH1 0x40 MLOAD DUP1 SWAP2 SUB SWAP1 REVERT JUMPDEST PUSH1 0x0 CALLER SWAP1 DUP1 PUSH1 0x1 DUP2 SLOAD ADD DUP1 DUP3 SSTORE DUP1 SWAP2 POP POP PUSH1 0x1 SWAP1 SUB SWAP1 PUSH1 0x0 MSTORE PUSH1 0x20 PUSH1 0x0 KECCAK256 ADD PUSH1 0x0 SWAP1 SWAP2 SWAP1 SWAP2 SWAP1 SWAP2 PUSH2 0x100 EXP DUP2 SLOAD DUP2 PUSH20 0xFFFFFFFFFFFFFFFFFFFFFFFFFFFFFFFFFFFFFFFF MUL NOT AND SWAP1 DUP4 PUSH20 0xFFFFFFFFFFFFFFFFFFFFFFFFFFFFFFFFFFFFFFFF AND MUL OR SWAP1 SSTORE POP CALLER PUSH20 0xFFFFFFFFFFFFFFFFFFFFFFFFFFFFFFFFFFFFFFFF AND PUSH32 0xC013140EE7C0E76C7697E928D9A364C76F328B00FD4978E1B4EE61FA6974154D PUSH1 0x40 MLOAD PUSH1 0x40 MLOAD DUP1 SWAP2 SUB SWAP1 LOG2 JUMP JUMPDEST PUSH1 0x0 PUSH1 0x2 SLOAD SWAP1 POP SWAP1 JUMP JUMPDEST PUSH1 0x0 DUP1 DUP1 SLOAD SWAP1 POP DUP3 PUSH1 0x0 DUP2 MLOAD DUP2 LT PUSH2 0x99E JUMPI PUSH2 0x99D PUSH2 0x146D JUMP JUMPDEST JUMPDEST PUSH1 0x20 MUL PUSH1 0x20 ADD ADD MLOAD PUSH2 0x9B0 SWAP2 SWAP1 PUSH2 0x14CB JUMP JUMPDEST SWAP1 POP PUSH1 0x0 DUP1 DUP3 DUP2 SLOAD DUP2 LT PUSH2 0x9C7 JUMPI PUSH2 0x9C6 PUSH2 0x146D JUMP JUMPDEST JUMPDEST SWAP1 PUSH1 0x0 MSTORE PUSH1 0x20 PUSH1 0x0 KECCAK256 ADD PUSH1 0x0 SWAP1 SLOAD SWAP1 PUSH2 0x100 EXP SWAP1 DIV PUSH20 0xFFFFFFFFFFFFFFFFFFFFFFFFFFFFFFFFFFFFFFFF AND SWAP1 POP DUP1 PUSH1 0x1 PUSH1 0x0 PUSH2 0x100 EXP DUP2 SLOAD DUP2 PUSH20 0xFFFFFFFFFFFFFFFFFFFFFFFFFFFFFFFFFFFFFFFF MUL NOT AND SWAP1 DUP4 PUSH20 0xFFFFFFFFFFFFFFFFFFFFFFFFFFFFFFFFFFFFFFFF AND MUL OR SWAP1 SSTORE POP PUSH1 0x0 PUSH1 0x1 PUSH1 0x14 PUSH2 0x100 EXP DUP2 SLOAD DUP2 PUSH1 0xFF MUL NOT AND SWAP1 DUP4 PUSH1 0x1 DUP2 GT ISZERO PUSH2 0xA5B JUMPI PUSH2 0xA5A PUSH2 0xFDA JUMP JUMPDEST JUMPDEST MUL OR SWAP1 SSTORE POP PUSH1 0x0 PUSH8 0xFFFFFFFFFFFFFFFF DUP2 GT ISZERO PUSH2 0xA7B JUMPI PUSH2 0xA7A PUSH2 0xCBB JUMP JUMPDEST JUMPDEST PUSH1 0x40 MLOAD SWAP1 DUP1 DUP3 MSTORE DUP1 PUSH1 0x20 MUL PUSH1 0x20 ADD DUP3 ADD PUSH1 0x40 MSTORE DUP1 ISZERO PUSH2 0xAA9 JUMPI DUP2 PUSH1 0x20 ADD PUSH1 0x20 DUP3 MUL DUP1 CALLDATASIZE DUP4 CALLDATACOPY DUP1 DUP3 ADD SWAP2 POP POP SWAP1 POP JUMPDEST POP PUSH1 0x0 SWAP1 DUP1 MLOAD SWAP1 PUSH1 0x20 ADD SWAP1 PUSH2 0xABF SWAP3 SWAP2 SWAP1 PUSH2 0xBB4 JUMP JUMPDEST POP TIMESTAMP PUSH1 0x2 DUP2 SWAP1 SSTORE POP PUSH1 0x0 DUP2 PUSH20 0xFFFFFFFFFFFFFFFFFFFFFFFFFFFFFFFFFFFFFFFF AND SELFBALANCE PUSH1 0x40 MLOAD PUSH2 0xAED SWAP1 PUSH2 0x152D JUMP JUMPDEST PUSH1 0x0 PUSH1 0x40 MLOAD DUP1 DUP4 SUB DUP2 DUP6 DUP8 GAS CALL SWAP3 POP POP POP RETURNDATASIZE DUP1 PUSH1 0x0 DUP2 EQ PUSH2 0xB2A JUMPI PUSH1 0x40 MLOAD SWAP2 POP PUSH1 0x1F NOT PUSH1 0x3F RETURNDATASIZE ADD AND DUP3 ADD PUSH1 0x40 MSTORE RETURNDATASIZE DUP3 MSTORE RETURNDATASIZE PUSH1 0x0 PUSH1 0x20 DUP5 ADD RETURNDATACOPY PUSH2 0xB2F JUMP JUMPDEST PUSH1 0x60 SWAP2 POP JUMPDEST POP POP SWAP1 POP DUP1 PUSH2 0xB6A JUMPI PUSH1 0x40 MLOAD PUSH32 0x760B301700000000000000000000000000000000000000000000000000000000 DUP2 MSTORE PUSH1 0x4 ADD PUSH1 0x40 MLOAD DUP1 SWAP2 SUB SWAP1 REVERT JUMPDEST DUP2 PUSH20 0xFFFFFFFFFFFFFFFFFFFFFFFFFFFFFFFFFFFFFFFF AND PUSH32 0x27385C6BCE45EBA0FA17E24B25CC6BEA4EDD17ADC706C6C30B2CEA8C1039356E PUSH1 0x40 MLOAD PUSH1 0x40 MLOAD DUP1 SWAP2 SUB SWAP1 LOG2 POP POP POP POP POP JUMP JUMPDEST DUP3 DUP1 SLOAD DUP3 DUP3 SSTORE SWAP1 PUSH1 0x0 MSTORE PUSH1 0x20 PUSH1 0x0 KECCAK256 SWAP1 DUP2 ADD SWAP3 DUP3 ISZERO PUSH2 0xC2D JUMPI SWAP2 PUSH1 0x20 MUL DUP3 ADD JUMPDEST DUP3 DUP2 GT ISZERO PUSH2 0xC2C JUMPI DUP3 MLOAD DUP3 PUSH1 0x0 PUSH2 0x100 EXP DUP2 SLOAD DUP2 PUSH20 0xFFFFFFFFFFFFFFFFFFFFFFFFFFFFFFFFFFFFFFFF MUL NOT AND SWAP1 DUP4 PUSH20 0xFFFFFFFFFFFFFFFFFFFFFFFFFFFFFFFFFFFFFFFF AND MUL OR SWAP1 SSTORE POP SWAP2 PUSH1 0x20 ADD SWAP2 SWAP1 PUSH1 0x1 ADD SWAP1 PUSH2 0xBD4 JUMP JUMPDEST JUMPDEST POP SWAP1 POP PUSH2 0xC3A SWAP2 SWAP1 PUSH2 0xC3E JUMP JUMPDEST POP SWAP1 JUMP JUMPDEST JUMPDEST DUP1 DUP3 GT ISZERO PUSH2 0xC57 JUMPI PUSH1 0x0 DUP2 PUSH1 0x0 SWAP1 SSTORE POP PUSH1 0x1 ADD PUSH2 0xC3F JUMP JUMPDEST POP SWAP1 JUMP JUMPDEST PUSH1 0x0 PUSH1 0x40 MLOAD SWAP1 POP SWAP1 JUMP JUMPDEST PUSH1 0x0 DUP1 REVERT JUMPDEST PUSH1 0x0 DUP1 REVERT JUMPDEST PUSH1 0x0 DUP2 SWAP1 POP SWAP2 SWAP1 POP JUMP JUMPDEST PUSH2 0xC82 DUP2 PUSH2 0xC6F JUMP JUMPDEST DUP2 EQ PUSH2 0xC8D JUMPI PUSH1 0x0 DUP1 REVERT JUMPDEST POP JUMP JUMPDEST PUSH1 0x0 DUP2 CALLDATALOAD SWAP1 POP PUSH2 0xC9F DUP2 PUSH2 0xC79 JUMP JUMPDEST SWAP3 SWAP2 POP POP JUMP JUMPDEST PUSH1 0x0 DUP1 REVERT JUMPDEST PUSH1 0x0 PUSH1 0x1F NOT PUSH1 0x1F DUP4 ADD AND SWAP1 POP SWAP2 SWAP1 POP JUMP JUMPDEST PUSH32 0x4E487B7100000000000000000000000000000000000000000000000000000000 PUSH1 0x0 MSTORE PUSH1 0x41 PUSH1 0x4 MSTORE PUSH1 0x24 PUSH1 0x0 REVERT JUMPDEST PUSH2 0xCF3 DUP3 PUSH2 0xCAA JUMP JUMPDEST DUP2 ADD DUP2 DUP2 LT PUSH8 0xFFFFFFFFFFFFFFFF DUP3 GT OR ISZERO PUSH2 0xD12 JUMPI PUSH2 0xD11 PUSH2 0xCBB JUMP JUMPDEST JUMPDEST DUP1 PUSH1 0x40 MSTORE POP POP POP JUMP JUMPDEST PUSH1 0x0 PUSH2 0xD25 PUSH2 0xC5B JUMP JUMPDEST SWAP1 POP PUSH2 0xD31 DUP3 DUP3 PUSH2 0xCEA JUMP JUMPDEST SWAP2 SWAP1 POP JUMP JUMPDEST PUSH1 0x0 PUSH8 0xFFFFFFFFFFFFFFFF DUP3 GT ISZERO PUSH2 0xD51 JUMPI PUSH2 0xD50 PUSH2 0xCBB JUMP JUMPDEST JUMPDEST PUSH1 0x20 DUP3 MUL SWAP1 POP PUSH1 0x20 DUP2 ADD SWAP1 POP SWAP2 SWAP1 POP JUMP JUMPDEST PUSH1 0x0 DUP1 REVERT JUMPDEST PUSH1 0x0 PUSH2 0xD7A PUSH2 0xD75 DUP5 PUSH2 0xD36 JUMP JUMPDEST PUSH2 0xD1B JUMP JUMPDEST SWAP1 POP DUP1 DUP4 DUP3 MSTORE PUSH1 0x20 DUP3 ADD SWAP1 POP PUSH1 0x20 DUP5 MUL DUP4 ADD DUP6 DUP2 GT ISZERO PUSH2 0xD9D JUMPI PUSH2 0xD9C PUSH2 0xD62 JUMP JUMPDEST JUMPDEST DUP4 JUMPDEST DUP2 DUP2 LT ISZERO PUSH2 0xDC6 JUMPI DUP1 PUSH2 0xDB2 DUP9 DUP3 PUSH2 0xC90 JUMP JUMPDEST DUP5 MSTORE PUSH1 0x20 DUP5 ADD SWAP4 POP POP PUSH1 0x20 DUP2 ADD SWAP1 POP PUSH2 0xD9F JUMP JUMPDEST POP POP POP SWAP4 SWAP3 POP POP POP JUMP JUMPDEST PUSH1 0x0 DUP3 PUSH1 0x1F DUP4 ADD SLT PUSH2 0xDE5 JUMPI PUSH2 0xDE4 PUSH2 0xCA5 JUMP JUMPDEST JUMPDEST DUP2 CALLDATALOAD PUSH2 0xDF5 DUP5 DUP3 PUSH1 0x20 DUP7 ADD PUSH2 0xD67 JUMP JUMPDEST SWAP2 POP POP SWAP3 SWAP2 POP POP JUMP JUMPDEST PUSH1 0x0 DUP1 PUSH1 0x40 DUP4 DUP6 SUB SLT ISZERO PUSH2 0xE15 JUMPI PUSH2 0xE14 PUSH2 0xC65 JUMP JUMPDEST JUMPDEST PUSH1 0x0 PUSH2 0xE23 DUP6 DUP3 DUP7 ADD PUSH2 0xC90 JUMP JUMPDEST SWAP3 POP POP PUSH1 0x20 DUP4 ADD CALLDATALOAD PUSH8 0xFFFFFFFFFFFFFFFF DUP2 GT ISZERO PUSH2 0xE44 JUMPI PUSH2 0xE43 PUSH2 0xC6A JUMP JUMPDEST JUMPDEST PUSH2 0xE50 DUP6 DUP3 DUP7 ADD PUSH2 0xDD0 JUMP JUMPDEST SWAP2 POP POP SWAP3 POP SWAP3 SWAP1 POP JUMP JUMPDEST PUSH1 0x0 DUP1 REVERT JUMPDEST PUSH1 0x0 DUP1 DUP4 PUSH1 0x1F DUP5 ADD SLT PUSH2 0xE75 JUMPI PUSH2 0xE74 PUSH2 0xCA5 JUMP JUMPDEST JUMPDEST DUP3 CALLDATALOAD SWAP1 POP PUSH8 0xFFFFFFFFFFFFFFFF DUP2 GT ISZERO PUSH2 0xE92 JUMPI PUSH2 0xE91 PUSH2 0xE5A JUMP JUMPDEST JUMPDEST PUSH1 0x20 DUP4 ADD SWAP2 POP DUP4 PUSH1 0x1 DUP3 MUL DUP4 ADD GT ISZERO PUSH2 0xEAE JUMPI PUSH2 0xEAD PUSH2 0xD62 JUMP JUMPDEST JUMPDEST SWAP3 POP SWAP3 SWAP1 POP JUMP JUMPDEST PUSH1 0x0 DUP1 PUSH1 0x20 DUP4 DUP6 SUB SLT ISZERO PUSH2 0xECC JUMPI PUSH2 0xECB PUSH2 0xC65 JUMP JUMPDEST JUMPDEST PUSH1 0x0 DUP4 ADD CALLDATALOAD PUSH8 0xFFFFFFFFFFFFFFFF DUP2 GT ISZERO PUSH2 0xEEA JUMPI PUSH2 0xEE9 PUSH2 0xC6A JUMP JUMPDEST JUMPDEST PUSH2 0xEF6 DUP6 DUP3 DUP7 ADD PUSH2 0xE5F JUMP JUMPDEST SWAP3 POP SWAP3 POP POP SWAP3 POP SWAP3 SWAP1 POP JUMP JUMPDEST PUSH1 0x0 PUSH20 0xFFFFFFFFFFFFFFFFFFFFFFFFFFFFFFFFFFFFFFFF DUP3 AND SWAP1 POP SWAP2 SWAP1 POP JUMP JUMPDEST PUSH1 0x0 PUSH2 0xF2D DUP3 PUSH2 0xF02 JUMP JUMPDEST SWAP1 POP SWAP2 SWAP1 POP JUMP JUMPDEST PUSH2 0xF3D DUP2 PUSH2 0xF22 JUMP JUMPDEST DUP3 MSTORE POP POP JUMP JUMPDEST PUSH1 0x0 PUSH1 0x20 DUP3 ADD SWAP1 POP PUSH2 0xF58 PUSH1 0x0 DUP4 ADD DUP5 PUSH2 0xF34 JUMP JUMPDEST SWAP3 SWAP2 POP POP JUMP JUMPDEST PUSH2 0xF67 DUP2 PUSH2 0xC6F JUMP JUMPDEST DUP3 MSTORE POP POP JUMP JUMPDEST PUSH1 0x0 PUSH1 0x20 DUP3 ADD SWAP1 POP PUSH2 0xF82 PUSH1 0x0 DUP4 ADD DUP5 PUSH2 0xF5E JUMP JUMPDEST SWAP3 SWAP2 POP POP JUMP JUMPDEST PUSH1 0x2 DUP2 LT PUSH2 0xF95 JUMPI PUSH1 0x0 DUP1 REVERT JUMPDEST POP JUMP JUMPDEST PUSH1 0x0 DUP2 CALLDATALOAD SWAP1 POP PUSH2 0xFA7 DUP2 PUSH2 0xF88 JUMP JUMPDEST SWAP3 SWAP2 POP POP JUMP JUMPDEST PUSH1 0x0 PUSH1 0x20 DUP3 DUP5 SUB SLT ISZERO PUSH2 0xFC3 JUMPI PUSH2 0xFC2 PUSH2 0xC65 JUMP JUMPDEST JUMPDEST PUSH1 0x0 PUSH2 0xFD1 DUP5 DUP3 DUP6 ADD PUSH2 0xF98 JUMP JUMPDEST SWAP2 POP POP SWAP3 SWAP2 POP POP JUMP JUMPDEST PUSH32 0x4E487B7100000000000000000000000000000000000000000000000000000000 PUSH1 0x0 MSTORE PUSH1 0x21 PUSH1 0x4 MSTORE PUSH1 0x24 PUSH1 0x0 REVERT JUMPDEST PUSH1 0x2 DUP2 LT PUSH2 0x101A JUMPI PUSH2 0x1019 PUSH2 0xFDA JUMP JUMPDEST JUMPDEST POP JUMP JUMPDEST PUSH1 0x0 DUP2 SWAP1 POP PUSH2 0x102B DUP3 PUSH2 0x1009 JUMP JUMPDEST SWAP2 SWAP1 POP JUMP JUMPDEST PUSH1 0x0 PUSH2 0x103B DUP3 PUSH2 0x101D JUMP JUMPDEST SWAP1 POP SWAP2 SWAP1 POP JUMP JUMPDEST PUSH2 0x104B DUP2 PUSH2 0x1030 JUMP JUMPDEST DUP3 MSTORE POP POP JUMP JUMPDEST PUSH1 0x0 PUSH1 0x20 DUP3 ADD SWAP1 POP PUSH2 0x1066 PUSH1 0x0 DUP4 ADD DUP5 PUSH2 0x1042 JUMP JUMPDEST SWAP3 SWAP2 POP POP JUMP JUMPDEST PUSH1 0x0 DUP1 REVERT JUMPDEST PUSH1 0x0 PUSH8 0xFFFFFFFFFFFFFFFF DUP3 GT ISZERO PUSH2 0x108C JUMPI PUSH2 0x108B PUSH2 0xCBB JUMP JUMPDEST JUMPDEST PUSH2 0x1095 DUP3 PUSH2 0xCAA JUMP JUMPDEST SWAP1 POP PUSH1 0x20 DUP2 ADD SWAP1 POP SWAP2 SWAP1 POP JUMP JUMPDEST DUP3 DUP2 DUP4 CALLDATACOPY PUSH1 0x0 DUP4 DUP4 ADD MSTORE POP POP POP JUMP JUMPDEST PUSH1 0x0 PUSH2 0x10C4 PUSH2 0x10BF DUP5 PUSH2 0x1071 JUMP JUMPDEST PUSH2 0xD1B JUMP JUMPDEST SWAP1 POP DUP3 DUP2 MSTORE PUSH1 0x20 DUP2 ADD DUP5 DUP5 DUP5 ADD GT ISZERO PUSH2 0x10E0 JUMPI PUSH2 0x10DF PUSH2 0x106C JUMP JUMPDEST JUMPDEST PUSH2 0x10EB DUP5 DUP3 DUP6 PUSH2 0x10A2 JUMP JUMPDEST POP SWAP4 SWAP3 POP POP POP JUMP JUMPDEST PUSH1 0x0 DUP3 PUSH1 0x1F DUP4 ADD SLT PUSH2 0x1108 JUMPI PUSH2 0x1107 PUSH2 0xCA5 JUMP JUMPDEST JUMPDEST DUP2 CALLDATALOAD PUSH2 0x1118 DUP5 DUP3 PUSH1 0x20 DUP7 ADD PUSH2 0x10B1 JUMP JUMPDEST SWAP2 POP POP SWAP3 SWAP2 POP POP JUMP JUMPDEST PUSH1 0x0 PUSH1 0x20 DUP3 DUP5 SUB SLT ISZERO PUSH2 0x1137 JUMPI PUSH2 0x1136 PUSH2 0xC65 JUMP JUMPDEST JUMPDEST PUSH1 0x0 DUP3 ADD CALLDATALOAD PUSH8 0xFFFFFFFFFFFFFFFF DUP2 GT ISZERO PUSH2 0x1155 JUMPI PUSH2 0x1154 PUSH2 0xC6A JUMP JUMPDEST JUMPDEST PUSH2 0x1161 DUP5 DUP3 DUP6 ADD PUSH2 0x10F3 JUMP JUMPDEST SWAP2 POP POP SWAP3 SWAP2 POP POP JUMP JUMPDEST PUSH1 0x0 DUP2 ISZERO ISZERO SWAP1 POP SWAP2 SWAP1 POP JUMP JUMPDEST PUSH2 0x117F DUP2 PUSH2 0x116A JUMP JUMPDEST DUP3 MSTORE POP POP JUMP JUMPDEST PUSH1 0x0 DUP2 MLOAD SWAP1 POP SWAP2 SWAP1 POP JUMP JUMPDEST PUSH1 0x0 DUP3 DUP3 MSTORE PUSH1 0x20 DUP3 ADD SWAP1 POP SWAP3 SWAP2 POP POP JUMP JUMPDEST PUSH1 0x0 JUMPDEST DUP4 DUP2 LT ISZERO PUSH2 0x11BF JUMPI DUP1 DUP3 ADD MLOAD DUP2 DUP5 ADD MSTORE PUSH1 0x20 DUP2 ADD SWAP1 POP PUSH2 0x11A4 JUMP JUMPDEST PUSH1 0x0 DUP5 DUP5 ADD MSTORE POP POP POP POP JUMP JUMPDEST PUSH1 0x0 PUSH2 0x11D6 DUP3 PUSH2 0x1185 JUMP JUMPDEST PUSH2 0x11E0 DUP2 DUP6 PUSH2 0x1190 JUMP JUMPDEST SWAP4 POP PUSH2 0x11F0 DUP2 DUP6 PUSH1 0x20 DUP7 ADD PUSH2 0x11A1 JUMP JUMPDEST PUSH2 0x11F9 DUP2 PUSH2 0xCAA JUMP JUMPDEST DUP5 ADD SWAP2 POP POP SWAP3 SWAP2 POP POP JUMP JUMPDEST PUSH1 0x0 PUSH1 0x40 DUP3 ADD SWAP1 POP PUSH2 0x1219 PUSH1 0x0 DUP4 ADD DUP6 PUSH2 0x1176 JUMP JUMPDEST DUP2 DUP2 SUB PUSH1 0x20 DUP4 ADD MSTORE PUSH2 0x122B DUP2 DUP5 PUSH2 0x11CB JUMP JUMPDEST SWAP1 POP SWAP4 SWAP3 POP POP POP JUMP JUMPDEST PUSH1 0x0 PUSH1 0x20 DUP3 DUP5 SUB SLT ISZERO PUSH2 0x124A JUMPI PUSH2 0x1249 PUSH2 0xC65 JUMP JUMPDEST JUMPDEST PUSH1 0x0 PUSH2 0x1258 DUP5 DUP3 DUP6 ADD PUSH2 0xC90 JUMP JUMPDEST SWAP2 POP POP SWAP3 SWAP2 POP POP JUMP JUMPDEST PUSH1 0x0 PUSH2 0x126C DUP3 PUSH2 0xF02 JUMP JUMPDEST SWAP1 POP SWAP2 SWAP1 POP JUMP JUMPDEST PUSH2 0x127C DUP2 PUSH2 0x1261 JUMP JUMPDEST DUP3 MSTORE POP POP JUMP JUMPDEST PUSH1 0x0 PUSH1 0x20 DUP3 ADD SWAP1 POP PUSH2 0x1297 PUSH1 0x0 DUP4 ADD DUP5 PUSH2 0x1273 JUMP JUMPDEST SWAP3 SWAP2 POP POP JUMP JUMPDEST PUSH1 0x0 PUSH1 0x40 DUP3 ADD SWAP1 POP PUSH2 0x12B2 PUSH1 0x0 DUP4 ADD DUP6 PUSH2 0xF34 JUMP JUMPDEST PUSH2 0x12BF PUSH1 0x20 DUP4 ADD DUP5 PUSH2 0xF34 JUMP JUMPDEST SWAP4 SWAP3 POP POP POP JUMP JUMPDEST PUSH1 0x0 PUSH1 0x60 DUP3 ADD SWAP1 POP PUSH2 0x12DB PUSH1 0x0 DUP4 ADD DUP7 PUSH2 0xF5E JUMP JUMPDEST PUSH2 0x12E8 PUSH1 0x20 DUP4 ADD DUP6 PUSH2 0xF5E JUMP JUMPDEST PUSH2 0x12F5 PUSH1 0x40 DUP4 ADD DUP5 PUSH2 0xF5E JUMP JUMPDEST SWAP5 SWAP4 POP POP POP POP JUMP JUMPDEST PUSH1 0x0 DUP2 SWAP1 POP SWAP2 SWAP1 POP JUMP JUMPDEST PUSH2 0x1310 DUP2 PUSH2 0x12FD JUMP JUMPDEST DUP3 MSTORE POP POP JUMP JUMPDEST PUSH1 0x0 PUSH8 0xFFFFFFFFFFFFFFFF DUP3 AND SWAP1 POP SWAP2 SWAP1 POP JUMP JUMPDEST PUSH2 0x1333 DUP2 PUSH2 0x1316 JUMP JUMPDEST DUP3 MSTORE POP POP JUMP JUMPDEST PUSH1 0x0 PUSH2 0xFFFF DUP3 AND SWAP1 POP SWAP2 SWAP1 POP JUMP JUMPDEST PUSH2 0x1350 DUP2 PUSH2 0x1339 JUMP JUMPDEST DUP3 MSTORE POP POP JUMP JUMPDEST PUSH1 0x0 PUSH4 0xFFFFFFFF DUP3 AND SWAP1 POP SWAP2 SWAP1 POP JUMP JUMPDEST PUSH2 0x136F DUP2 PUSH2 0x1356 JUMP JUMPDEST DUP3 MSTORE POP POP JUMP JUMPDEST PUSH1 0x0 PUSH1 0xA0 DUP3 ADD SWAP1 POP PUSH2 0x138A PUSH1 0x0 DUP4 ADD DUP9 PUSH2 0x1307 JUMP JUMPDEST PUSH2 0x1397 PUSH1 0x20 DUP4 ADD DUP8 PUSH2 0x132A JUMP JUMPDEST PUSH2 0x13A4 PUSH1 0x40 DUP4 ADD DUP7 PUSH2 0x1347 JUMP JUMPDEST PUSH2 0x13B1 PUSH1 0x60 DUP4 ADD DUP6 PUSH2 0x1366 JUMP JUMPDEST PUSH2 0x13BE PUSH1 0x80 DUP4 ADD DUP5 PUSH2 0x1366 JUMP JUMPDEST SWAP7 SWAP6 POP POP POP POP POP POP JUMP JUMPDEST PUSH1 0x0 DUP2 MLOAD SWAP1 POP PUSH2 0x13D7 DUP2 PUSH2 0xC79 JUMP JUMPDEST SWAP3 SWAP2 POP POP JUMP JUMPDEST PUSH1 0x0 PUSH1 0x20 DUP3 DUP5 SUB SLT ISZERO PUSH2 0x13F3 JUMPI PUSH2 0x13F2 PUSH2 0xC65 JUMP JUMPDEST JUMPDEST PUSH1 0x0 PUSH2 0x1401 DUP5 DUP3 DUP6 ADD PUSH2 0x13C8 JUMP JUMPDEST SWAP2 POP POP SWAP3 SWAP2 POP POP JUMP JUMPDEST PUSH32 0x4E487B7100000000000000000000000000000000000000000000000000000000 PUSH1 0x0 MSTORE PUSH1 0x11 PUSH1 0x4 MSTORE PUSH1 0x24 PUSH1 0x0 REVERT JUMPDEST PUSH1 0x0 PUSH2 0x1444 DUP3 PUSH2 0xC6F JUMP JUMPDEST SWAP2 POP PUSH2 0x144F DUP4 PUSH2 0xC6F JUMP JUMPDEST SWAP3 POP DUP3 DUP3 SUB SWAP1 POP DUP2 DUP2 GT ISZERO PUSH2 0x1467 JUMPI PUSH2 0x1466 PUSH2 0x140A JUMP JUMPDEST JUMPDEST SWAP3 SWAP2 POP POP JUMP JUMPDEST PUSH32 0x4E487B7100000000000000000000000000000000000000000000000000000000 PUSH1 0x0 MSTORE PUSH1 0x32 PUSH1 0x4 MSTORE PUSH1 0x24 PUSH1 0x0 REVERT JUMPDEST PUSH32 0x4E487B7100000000000000000000000000000000000000000000000000000000 PUSH1 0x0 MSTORE PUSH1 0x12 PUSH1 0x4 MSTORE PUSH1 0x24 PUSH1 0x0 REVERT JUMPDEST PUSH1 0x0 PUSH2 0x14D6 DUP3 PUSH2 0xC6F JUMP JUMPDEST SWAP2 POP PUSH2 0x14E1 DUP4 PUSH2 0xC6F JUMP JUMPDEST SWAP3 POP DUP3 PUSH2 0x14F1 JUMPI PUSH2 0x14F0 PUSH2 0x149C JUMP JUMPDEST JUMPDEST DUP3 DUP3 MOD SWAP1 POP SWAP3 SWAP2 POP POP JUMP JUMPDEST PUSH1 0x0 DUP2 SWAP1 POP SWAP3 SWAP2 POP POP JUMP JUMPDEST POP JUMP JUMPDEST PUSH1 0x0 PUSH2 0x1517 PUSH1 0x0 DUP4 PUSH2 0x14FC JUMP JUMPDEST SWAP2 POP PUSH2 0x1522 DUP3 PUSH2 0x1507 JUMP JUMPDEST PUSH1 0x0 DUP3 ADD SWAP1 POP SWAP2 SWAP1 POP JUMP JUMPDEST PUSH1 0x0 PUSH2 0x1538 DUP3 PUSH2 0x150A JUMP JUMPDEST SWAP2 POP DUP2 SWAP1 POP SWAP2 SWAP1 POP JUMP INVALID LOG2 PUSH5 0x6970667358 0x22 SLT KECCAK256 0xD7 0xEA 0xCC MULMOD 0xF7 GASLIMIT SDIV 0xC6 LOG1 SLOAD 0xB0 0x23 0xFB SIGNEXTEND 0xE4 DELEGATECALL ADDRESS GASPRICE 0x21 0xC3 PUSH32 0x7A996D9AFA241E7E6CFA0764736F6C6343000812003300000000000000000000 "},"gasEstimates":{"creation":{"codeDepositCost":"1099200","executionCost":"infinite","totalCost":"infinite"},"external":{"buyTicket()":"infinite","checkUpkeep(bytes)":"infinite","getInterval()":"infinite","getLatestTimestamp()":"2525","getLotteryState()":"2641","getNumPlayers()":"2490","getNumWords()":"infinite","getPlayer(uint256)":"5011","getRecentWinner()":"2590","getRequestConfirmations()":"432","getTicketPrice()":"infinite","performUpkeep(bytes)":"infinite","rawFulfillRandomWords(uint256,uint256[])":"infinite","setState(uint8)":"24767"},"internal":{"fulfillRandomWords(uint256,uint256[] memory)":"infinite"}},"methodIdentifiers":{"buyTicket()":"edca914c","checkUpkeep(bytes)":"6e04ff0d","getInterval()":"91ad27b4","getLatestTimestamp()":"f43b52cb","getLotteryState()":"6b68c03c","getNumPlayers()":"55c9e926","getNumWords()":"53a2c19a","getPlayer(uint256)":"e55ae4e8","getRecentWinner()":"473f1ddc","getRequestConfirmations()":"5f1b0fd8","getTicketPrice()":"87bb7ae0","performUpkeep(bytes)":"4585e33b","rawFulfillRandomWords(uint256,uint256[])":"1fe543e3","setState(uint8)":"56de96db"}},"storageLayout":{"storage":[{"astId":193,"contract":"contracts/Lottery.sol:Lottery","label":"s_players","offset":0,"slot":"0","type":"t_array(t_address_payable)dyn_storage"},{"astId":210,"contract":"contracts/Lottery.sol:Lottery","label":"s_recentWinner","offset":0,"slot":"1","type":"t_address"},{"astId":213,"contract":"contracts/Lottery.sol:Lottery","label":"s_lotteryState","offset":20,"slot":"1","type":"t_enum(LotteryState)188"},{"astId":215,"contract":"contracts/Lottery.sol:Lottery","label":"s_previousBlockTimestamp","offset":0,"slot":"2","type":"t_uint256"}],"types":{"t_address":{"encoding":"inplace","label":"address","numberOfBytes":"20"},"t_address_payable":{"encoding":"inplace","label":"address payable","numberOfBytes":"20"},"t_array(t_address_payable)dyn_storage":{"base":"t_address_payable","encoding":"dynamic_array","label":"address payable[]","numberOfBytes":"32"},"t_enum(LotteryState)188":{"encoding":"inplace","label":"enum Lottery.LotteryState","numberOfBytes":"1"},"t_uint256":{"encoding":"inplace","label":"uint256","numberOfBytes":"32"}}},"userdoc":{"kind":"user","methods":{"performUpkeep(bytes)":{"notice":"Fase 1 KEEPEERS: custom name external are cheaper than public functions"}},"version":1}}}}