{
  "address": "0x1b84CFb90257eE70dCE2f699750E66bf461BB42f",
  "abi": [
    {
      "inputs": [
        {
          "internalType": "address",
          "name": "vrfCoordinatorV2",
          "type": "address"
        },
        {
          "internalType": "uint256",
          "name": "ticketPrice",
          "type": "uint256"
        },
        {
          "internalType": "bytes32",
          "name": "gasLane",
          "type": "bytes32"
        },
        {
          "internalType": "uint64",
          "name": "subscriptionId",
          "type": "uint64"
        },
        {
          "internalType": "uint32",
          "name": "callbackGasLimit",
          "type": "uint32"
        },
        {
          "internalType": "uint256",
          "name": "interval",
          "type": "uint256"
        }
      ],
      "stateMutability": "nonpayable",
      "type": "constructor"
    },
    {
      "inputs": [],
      "name": "ErrorLottery__Busy",
      "type": "error"
    },
    {
      "inputs": [],
      "name": "ErrorLottery__InsufficientTicketAmount",
      "type": "error"
    },
    {
      "inputs": [],
      "name": "ErrorLottery__PayingWinnerFailed",
      "type": "error"
    },
    {
      "inputs": [
        {
          "internalType": "uint256",
          "name": "currentBalance",
          "type": "uint256"
        },
        {
          "internalType": "uint256",
          "name": "numPlayers",
          "type": "uint256"
        },
        {
          "internalType": "uint256",
          "name": "lotteryState",
          "type": "uint256"
        }
      ],
      "name": "ErrorLottery__PerformUpkeepNotNeeded",
      "type": "error"
    },
    {
      "inputs": [
        {
          "internalType": "address",
          "name": "have",
          "type": "address"
        },
        {
          "internalType": "address",
          "name": "want",
          "type": "address"
        }
      ],
      "name": "OnlyCoordinatorCanFulfill",
      "type": "error"
    },
    {
      "anonymous": false,
      "inputs": [
        {
          "indexed": true,
          "internalType": "bool",
          "name": "upkeep",
          "type": "bool"
        }
      ],
      "name": "EventLottery__IsUpkeepTrue",
      "type": "event"
    },
    {
      "anonymous": false,
      "inputs": [
        {
          "indexed": true,
          "internalType": "uint256",
          "name": "requestId",
          "type": "uint256"
        }
      ],
      "name": "EventLottery__RequestRandomWords",
      "type": "event"
    },
    {
      "anonymous": false,
      "inputs": [
        {
          "indexed": true,
          "internalType": "address",
          "name": "player",
          "type": "address"
        }
      ],
      "name": "EventLottery__TicketBuyed",
      "type": "event"
    },
    {
      "anonymous": false,
      "inputs": [
        {
          "indexed": true,
          "internalType": "address",
          "name": "winner",
          "type": "address"
        }
      ],
      "name": "EventLottery__WinnerSelectedAndPaid",
      "type": "event"
    },
    {
      "inputs": [],
      "name": "buyTicket",
      "outputs": [],
      "stateMutability": "payable",
      "type": "function"
    },
    {
      "inputs": [
        {
          "internalType": "bytes",
          "name": "",
          "type": "bytes"
        }
      ],
      "name": "checkUpkeep",
      "outputs": [
        {
          "internalType": "bool",
          "name": "upkeepNeeded",
          "type": "bool"
        },
        {
          "internalType": "bytes",
          "name": "performData",
          "type": "bytes"
        }
      ],
      "stateMutability": "nonpayable",
      "type": "function"
    },
    {
      "inputs": [],
      "name": "getInterval",
      "outputs": [
        {
          "internalType": "uint256",
          "name": "",
          "type": "uint256"
        }
      ],
      "stateMutability": "view",
      "type": "function"
    },
    {
      "inputs": [],
      "name": "getLatestTimestamp",
      "outputs": [
        {
          "internalType": "uint256",
          "name": "",
          "type": "uint256"
        }
      ],
      "stateMutability": "view",
      "type": "function"
    },
    {
      "inputs": [],
      "name": "getLotteryState",
      "outputs": [
        {
          "internalType": "enum Lottery.LotteryState",
          "name": "",
          "type": "uint8"
        }
      ],
      "stateMutability": "view",
      "type": "function"
    },
    {
      "inputs": [],
      "name": "getNumPlayers",
      "outputs": [
        {
          "internalType": "uint256",
          "name": "",
          "type": "uint256"
        }
      ],
      "stateMutability": "view",
      "type": "function"
    },
    {
      "inputs": [],
      "name": "getNumWords",
      "outputs": [
        {
          "internalType": "uint256",
          "name": "",
          "type": "uint256"
        }
      ],
      "stateMutability": "pure",
      "type": "function"
    },
    {
      "inputs": [
        {
          "internalType": "uint256",
          "name": "index",
          "type": "uint256"
        }
      ],
      "name": "getPlayer",
      "outputs": [
        {
          "internalType": "address payable",
          "name": "",
          "type": "address"
        }
      ],
      "stateMutability": "view",
      "type": "function"
    },
    {
      "inputs": [],
      "name": "getRecentWinner",
      "outputs": [
        {
          "internalType": "address",
          "name": "",
          "type": "address"
        }
      ],
      "stateMutability": "view",
      "type": "function"
    },
    {
      "inputs": [],
      "name": "getRequestConfirmations",
      "outputs": [
        {
          "internalType": "uint256",
          "name": "",
          "type": "uint256"
        }
      ],
      "stateMutability": "pure",
      "type": "function"
    },
    {
      "inputs": [],
      "name": "getTicketPrice",
      "outputs": [
        {
          "internalType": "uint256",
          "name": "",
          "type": "uint256"
        }
      ],
      "stateMutability": "view",
      "type": "function"
    },
    {
      "inputs": [
        {
          "internalType": "bytes",
          "name": "",
          "type": "bytes"
        }
      ],
      "name": "performUpkeep",
      "outputs": [],
      "stateMutability": "nonpayable",
      "type": "function"
    },
    {
      "inputs": [
        {
          "internalType": "uint256",
          "name": "requestId",
          "type": "uint256"
        },
        {
          "internalType": "uint256[]",
          "name": "randomWords",
          "type": "uint256[]"
        }
      ],
      "name": "rawFulfillRandomWords",
      "outputs": [],
      "stateMutability": "nonpayable",
      "type": "function"
    },
    {
      "inputs": [
        {
          "internalType": "enum Lottery.LotteryState",
          "name": "_state",
          "type": "uint8"
        }
      ],
      "name": "setState",
      "outputs": [],
      "stateMutability": "nonpayable",
      "type": "function"
    }
  ],
  "transactionHash": "0x778197ab57302ebefe8cfde79a93a412284a2c4afea86cdd47ec3dadf1e6da26",
  "args": [
    "0x8103B0A8A00be2DDC778e6e7eaa21791Cd364625",
    "1000000000000000",
    "0x474e34a077df58807dbe9c96d3c009b23b3c6d0cce433e59bbf5b34f823bc56c",
    1703,
    500000,
    "30"
  ],
  "numDeployments": 1,
  "solcInputHash": "b317f6e9e2b9394db8a1df7c7cbeed51",
  "bytecode": "0x610180604052600163ffffffff166101409063ffffffff168152503480156200002757600080fd5b506040516200196e3803806200196e83398181016040528101906200004d9190620002a9565b858073ffffffffffffffffffffffffffffffffffffffff1660808173ffffffffffffffffffffffffffffffffffffffff1681525050508460a081815250508573ffffffffffffffffffffffffffffffffffffffff1660c08173ffffffffffffffffffffffffffffffffffffffff16815250508360e081815250508267ffffffffffffffff166101008167ffffffffffffffff16815250508163ffffffff166101208163ffffffff16815250506000600160146101000a81548160ff0219169083600181111562000122576200012162000345565b5b02179055504260028190555080610160818152505050505050505062000374565b600080fd5b600073ffffffffffffffffffffffffffffffffffffffff82169050919050565b6000620001758262000148565b9050919050565b620001878162000168565b81146200019357600080fd5b50565b600081519050620001a7816200017c565b92915050565b6000819050919050565b620001c281620001ad565b8114620001ce57600080fd5b50565b600081519050620001e281620001b7565b92915050565b6000819050919050565b620001fd81620001e8565b81146200020957600080fd5b50565b6000815190506200021d81620001f2565b92915050565b600067ffffffffffffffff82169050919050565b620002428162000223565b81146200024e57600080fd5b50565b600081519050620002628162000237565b92915050565b600063ffffffff82169050919050565b620002838162000268565b81146200028f57600080fd5b50565b600081519050620002a38162000278565b92915050565b60008060008060008060c08789031215620002c957620002c862000143565b5b6000620002d989828a0162000196565b9650506020620002ec89828a01620001d1565b9550506040620002ff89828a016200020c565b94505060606200031289828a0162000251565b93505060806200032589828a0162000292565b92505060a06200033889828a01620001d1565b9150509295509295509295565b7f4e487b7100000000000000000000000000000000000000000000000000000000600052602160045260246000fd5b60805160a05160c05160e05161010051610120516101405161016051611578620003f6600039600081816106d4015261079f015260008181610552015261060a015260006105310152600061050e015260006104ed015260006104b1015260008181610777015261080c01526000818161033c015261039001526115786000f3fe6080604052600436106100dd5760003560e01c80636b68c03c1161007f57806391ad27b41161005957806391ad27b41461029d578063e55ae4e8146102c8578063edca914c14610305578063f43b52cb1461030f576100dd565b80636b68c03c146102095780636e04ff0d1461023457806387bb7ae014610272576100dd565b806353a2c19a116100bb57806353a2c19a1461015f57806355c9e9261461018a57806356de96db146101b55780635f1b0fd8146101de576100dd565b80631fe543e3146100e25780634585e33b1461010b578063473f1ddc14610134575b600080fd5b3480156100ee57600080fd5b5061010960048036038101906101049190610dfe565b61033a565b005b34801561011757600080fd5b50610132600480360381019061012d9190610eb5565b6103fa565b005b34801561014057600080fd5b506101496105dc565b6040516101569190610f43565b60405180910390f35b34801561016b57600080fd5b50610174610606565b6040516101819190610f6d565b60405180910390f35b34801561019657600080fd5b5061019f610634565b6040516101ac9190610f6d565b60405180910390f35b3480156101c157600080fd5b506101dc60048036038101906101d79190610fad565b610640565b005b3480156101ea57600080fd5b506101f361066d565b6040516102009190610f6d565b60405180910390f35b34801561021557600080fd5b5061021e61067a565b60405161022b9190611051565b60405180910390f35b34801561024057600080fd5b5061025b60048036038101906102569190611121565b610691565b604051610269929190611204565b60405180910390f35b34801561027e57600080fd5b50610287610773565b6040516102949190610f6d565b60405180910390f35b3480156102a957600080fd5b506102b261079b565b6040516102bf9190610f6d565b60405180910390f35b3480156102d457600080fd5b506102ef60048036038101906102ea9190611234565b6107c3565b6040516102fc9190611282565b60405180910390f35b61030d61080a565b005b34801561031b57600080fd5b50610324610979565b6040516103319190610f6d565b60405180910390f35b7f000000000000000000000000000000000000000000000000000000000000000073ffffffffffffffffffffffffffffffffffffffff163373ffffffffffffffffffffffffffffffffffffffff16146103ec57337f00000000000000000000000000000000000000000000000000000000000000006040517f1cf993f40000000000000000000000000000000000000000000000000000000081526004016103e392919061129d565b60405180910390fd5b6103f68282610983565b5050565b600061041460405180602001604052806000815250610691565b509050806104835747600080549050600160149054906101000a900460ff16600181111561044557610444610fda565b5b6040517fa52f617a00000000000000000000000000000000000000000000000000000000815260040161047a939291906112c6565b60405180910390fd5b60018060146101000a81548160ff021916908360018111156104a8576104a7610fda565b5b021790555060007f000000000000000000000000000000000000000000000000000000000000000073ffffffffffffffffffffffffffffffffffffffff16635d3b1d307f00000000000000000000000000000000000000000000000000000000000000007f000000000000000000000000000000000000000000000000000000000000000060037f00000000000000000000000000000000000000000000000000000000000000007f00000000000000000000000000000000000000000000000000000000000000006040518663ffffffff1660e01b8152600401610591959493929190611375565b6020604051808303816000875af11580156105b0573d6000803e3d6000fd5b505050506040513d601f19601f820116820180604052508101906105d491906113dd565b905050505050565b6000600160009054906101000a900473ffffffffffffffffffffffffffffffffffffffff16905090565b60007f000000000000000000000000000000000000000000000000000000000000000063ffffffff16905090565b60008080549050905090565b80600160146101000a81548160ff0219169083600181111561066557610664610fda565b5b021790555050565b6000600361ffff16905090565b6000600160149054906101000a900460ff16905090565b600060606000600160149054906101000a900460ff1660018111156106b9576106b8610fda565b5b600060018111156106cd576106cc610fda565b5b14905060007f0000000000000000000000000000000000000000000000000000000000000000600254426107019190611439565b1190506000806000805490501190506000804711905060008480156107235750835b801561072c5750825b80156107355750815b90508015157f554fc1fd4b418f0afea2764fbe56a9342e175c4d47816662c6dd9d916adb7d8d60405160405180910390a28096505050505050915091565b60007f0000000000000000000000000000000000000000000000000000000000000000905090565b60007f0000000000000000000000000000000000000000000000000000000000000000905090565b60008082815481106107d8576107d761146d565b5b9060005260206000200160009054906101000a900473ffffffffffffffffffffffffffffffffffffffff169050919050565b7f0000000000000000000000000000000000000000000000000000000000000000341015610864576040517f80ae043200000000000000000000000000000000000000000000000000000000815260040160405180910390fd5b6000600181111561087857610877610fda565b5b600160149054906101000a900460ff16600181111561089a57610899610fda565b5b146108d1576040517f7ec2ef9c00000000000000000000000000000000000000000000000000000000815260040160405180910390fd5b6000339080600181540180825580915050600190039060005260206000200160009091909190916101000a81548173ffffffffffffffffffffffffffffffffffffffff021916908373ffffffffffffffffffffffffffffffffffffffff1602179055503373ffffffffffffffffffffffffffffffffffffffff167fc013140ee7c0e76c7697e928d9a364c76f328b00fd4978e1b4ee61fa6974154d60405160405180910390a2565b6000600254905090565b600080805490508260008151811061099e5761099d61146d565b5b60200260200101516109b091906114cb565b905060008082815481106109c7576109c661146d565b5b9060005260206000200160009054906101000a900473ffffffffffffffffffffffffffffffffffffffff16905080600160006101000a81548173ffffffffffffffffffffffffffffffffffffffff021916908373ffffffffffffffffffffffffffffffffffffffff1602179055506000600160146101000a81548160ff02191690836001811115610a5b57610a5a610fda565b5b0217905550600067ffffffffffffffff811115610a7b57610a7a610cbb565b5b604051908082528060200260200182016040528015610aa95781602001602082028036833780820191505090505b5060009080519060200190610abf929190610bb4565b504260028190555060008173ffffffffffffffffffffffffffffffffffffffff1647604051610aed9061152d565b60006040518083038185875af1925050503d8060008114610b2a576040519150601f19603f3d011682016040523d82523d6000602084013e610b2f565b606091505b5050905080610b6a576040517f760b301700000000000000000000000000000000000000000000000000000000815260040160405180910390fd5b8173ffffffffffffffffffffffffffffffffffffffff167f27385c6bce45eba0fa17e24b25cc6bea4edd17adc706c6c30b2cea8c1039356e60405160405180910390a25050505050565b828054828255906000526020600020908101928215610c2d579160200282015b82811115610c2c5782518260006101000a81548173ffffffffffffffffffffffffffffffffffffffff021916908373ffffffffffffffffffffffffffffffffffffffff16021790555091602001919060010190610bd4565b5b509050610c3a9190610c3e565b5090565b5b80821115610c57576000816000905550600101610c3f565b5090565b6000604051905090565b600080fd5b600080fd5b6000819050919050565b610c8281610c6f565b8114610c8d57600080fd5b50565b600081359050610c9f81610c79565b92915050565b600080fd5b6000601f19601f8301169050919050565b7f4e487b7100000000000000000000000000000000000000000000000000000000600052604160045260246000fd5b610cf382610caa565b810181811067ffffffffffffffff82111715610d1257610d11610cbb565b5b80604052505050565b6000610d25610c5b565b9050610d318282610cea565b919050565b600067ffffffffffffffff821115610d5157610d50610cbb565b5b602082029050602081019050919050565b600080fd5b6000610d7a610d7584610d36565b610d1b565b90508083825260208201905060208402830185811115610d9d57610d9c610d62565b5b835b81811015610dc65780610db28882610c90565b845260208401935050602081019050610d9f565b5050509392505050565b600082601f830112610de557610de4610ca5565b5b8135610df5848260208601610d67565b91505092915050565b60008060408385031215610e1557610e14610c65565b5b6000610e2385828601610c90565b925050602083013567ffffffffffffffff811115610e4457610e43610c6a565b5b610e5085828601610dd0565b9150509250929050565b600080fd5b60008083601f840112610e7557610e74610ca5565b5b8235905067ffffffffffffffff811115610e9257610e91610e5a565b5b602083019150836001820283011115610eae57610ead610d62565b5b9250929050565b60008060208385031215610ecc57610ecb610c65565b5b600083013567ffffffffffffffff811115610eea57610ee9610c6a565b5b610ef685828601610e5f565b92509250509250929050565b600073ffffffffffffffffffffffffffffffffffffffff82169050919050565b6000610f2d82610f02565b9050919050565b610f3d81610f22565b82525050565b6000602082019050610f586000830184610f34565b92915050565b610f6781610c6f565b82525050565b6000602082019050610f826000830184610f5e565b92915050565b60028110610f9557600080fd5b50565b600081359050610fa781610f88565b92915050565b600060208284031215610fc357610fc2610c65565b5b6000610fd184828501610f98565b91505092915050565b7f4e487b7100000000000000000000000000000000000000000000000000000000600052602160045260246000fd5b6002811061101a57611019610fda565b5b50565b600081905061102b82611009565b919050565b600061103b8261101d565b9050919050565b61104b81611030565b82525050565b60006020820190506110666000830184611042565b92915050565b600080fd5b600067ffffffffffffffff82111561108c5761108b610cbb565b5b61109582610caa565b9050602081019050919050565b82818337600083830152505050565b60006110c46110bf84611071565b610d1b565b9050828152602081018484840111156110e0576110df61106c565b5b6110eb8482856110a2565b509392505050565b600082601f83011261110857611107610ca5565b5b81356111188482602086016110b1565b91505092915050565b60006020828403121561113757611136610c65565b5b600082013567ffffffffffffffff81111561115557611154610c6a565b5b611161848285016110f3565b91505092915050565b60008115159050919050565b61117f8161116a565b82525050565b600081519050919050565b600082825260208201905092915050565b60005b838110156111bf5780820151818401526020810190506111a4565b60008484015250505050565b60006111d682611185565b6111e08185611190565b93506111f08185602086016111a1565b6111f981610caa565b840191505092915050565b60006040820190506112196000830185611176565b818103602083015261122b81846111cb565b90509392505050565b60006020828403121561124a57611249610c65565b5b600061125884828501610c90565b91505092915050565b600061126c82610f02565b9050919050565b61127c81611261565b82525050565b60006020820190506112976000830184611273565b92915050565b60006040820190506112b26000830185610f34565b6112bf6020830184610f34565b9392505050565b60006060820190506112db6000830186610f5e565b6112e86020830185610f5e565b6112f56040830184610f5e565b949350505050565b6000819050919050565b611310816112fd565b82525050565b600067ffffffffffffffff82169050919050565b61133381611316565b82525050565b600061ffff82169050919050565b61135081611339565b82525050565b600063ffffffff82169050919050565b61136f81611356565b82525050565b600060a08201905061138a6000830188611307565b611397602083018761132a565b6113a46040830186611347565b6113b16060830185611366565b6113be6080830184611366565b9695505050505050565b6000815190506113d781610c79565b92915050565b6000602082840312156113f3576113f2610c65565b5b6000611401848285016113c8565b91505092915050565b7f4e487b7100000000000000000000000000000000000000000000000000000000600052601160045260246000fd5b600061144482610c6f565b915061144f83610c6f565b92508282039050818111156114675761146661140a565b5b92915050565b7f4e487b7100000000000000000000000000000000000000000000000000000000600052603260045260246000fd5b7f4e487b7100000000000000000000000000000000000000000000000000000000600052601260045260246000fd5b60006114d682610c6f565b91506114e183610c6f565b9250826114f1576114f061149c565b5b828206905092915050565b600081905092915050565b50565b60006115176000836114fc565b915061152282611507565b600082019050919050565b60006115388261150a565b915081905091905056fea2646970667358221220d7eacc09f74505c6a154b023fb0be4f4303a21c37f7a996d9afa241e7e6cfa0764736f6c63430008120033",
  "devdoc": {
    "kind": "dev",
    "methods": {
      "checkUpkeep(bytes)": {
        "details": "the chainlink keeper waits that upkeepNeeded becomes true in order to performUpkeep and select the winner 1. the state of the Lottery is OPEN 2. every 30 seconds 3. at least 1 player 4. the contract has more than 0 ETH 5. subscription is fundedsince calldata does not work with strings, we use memory",
        "params": {
          "performData": "is used when you want to perform some actions,  depending on the result of upkeeepNeeded >> used by performUpkeep",
          "upkeepNeeded": "is returned: no need to specify the type."
        }
      },
      "constructor": {
        "details": "the constructor of VRFConsumerBaseV2 is called and Lottery gains access to the requestRandomness function*"
      },
      "performUpkeep(bytes)": {
        "details": "This method is called by the keepers when upkeepNeeded is true: we dont have to interact with it! Security feature / Escape the reentracy attack: This is a 2 tx process (no simulation can be performed) 1. request the random number - performUpkeep 2. number is returned from the chainlink and then we send money to the winner - fulfillRandomWords"
      }
    },
    "version": 1
  },
  "userdoc": {
    "kind": "user",
    "methods": {
      "performUpkeep(bytes)": {
        "notice": "Fase 1 KEEPEERS: custom name external are cheaper than public functions"
      }
    },
    "version": 1
  },
  "storageLayout": {
    "storage": [
      {
        "astId": 193,
        "contract": "contracts/Lottery.sol:Lottery",
        "label": "s_players",
        "offset": 0,
        "slot": "0",
        "type": "t_array(t_address_payable)dyn_storage"
      },
      {
        "astId": 210,
        "contract": "contracts/Lottery.sol:Lottery",
        "label": "s_recentWinner",
        "offset": 0,
        "slot": "1",
        "type": "t_address"
      },
      {
        "astId": 213,
        "contract": "contracts/Lottery.sol:Lottery",
        "label": "s_lotteryState",
        "offset": 20,
        "slot": "1",
        "type": "t_enum(LotteryState)188"
      },
      {
        "astId": 215,
        "contract": "contracts/Lottery.sol:Lottery",
        "label": "s_previousBlockTimestamp",
        "offset": 0,
        "slot": "2",
        "type": "t_uint256"
      }
    ],
    "types": {
      "t_address": {
        "encoding": "inplace",
        "label": "address",
        "numberOfBytes": "20"
      },
      "t_address_payable": {
        "encoding": "inplace",
        "label": "address payable",
        "numberOfBytes": "20"
      },
      "t_array(t_address_payable)dyn_storage": {
        "base": "t_address_payable",
        "encoding": "dynamic_array",
        "label": "address payable[]",
        "numberOfBytes": "32"
      },
      "t_enum(LotteryState)188": {
        "encoding": "inplace",
        "label": "enum Lottery.LotteryState",
        "numberOfBytes": "1"
      },
      "t_uint256": {
        "encoding": "inplace",
        "label": "uint256",
        "numberOfBytes": "32"
      }
    }
  }
}