{
  "_format": "hh-sol-artifact-1",
  "contractName": "Lottery",
  "sourceName": "contracts/Lottery.sol",
  "abi": [
    {
      "inputs": [
        {
          "internalType": "address",
          "name": "vrfCoordinatorV2",
          "type": "address"
        },
        {
          "internalType": "uint256",
          "name": "ticketPrice",
          "type": "uint256"
        },
        {
          "internalType": "bytes32",
          "name": "gasLane",
          "type": "bytes32"
        },
        {
          "internalType": "uint64",
          "name": "subscriptionId",
          "type": "uint64"
        },
        {
          "internalType": "uint32",
          "name": "callbackGasLimit",
          "type": "uint32"
        },
        {
          "internalType": "uint256",
          "name": "interval",
          "type": "uint256"
        }
      ],
      "stateMutability": "nonpayable",
      "type": "constructor"
    },
    {
      "inputs": [],
      "name": "ErrorLottery__Busy",
      "type": "error"
    },
    {
      "inputs": [],
      "name": "ErrorLottery__InsufficientTicketAmount",
      "type": "error"
    },
    {
      "inputs": [],
      "name": "ErrorLottery__PayingWinnerFailed",
      "type": "error"
    },
    {
      "inputs": [],
      "name": "ErrorLottery__PerformUpkeepNotNeeded",
      "type": "error"
    },
    {
      "inputs": [
        {
          "internalType": "address",
          "name": "have",
          "type": "address"
        },
        {
          "internalType": "address",
          "name": "want",
          "type": "address"
        }
      ],
      "name": "OnlyCoordinatorCanFulfill",
      "type": "error"
    },
    {
      "anonymous": false,
      "inputs": [
        {
          "indexed": true,
          "internalType": "bool",
          "name": "upkeep",
          "type": "bool"
        }
      ],
      "name": "EventLottery__IsUpkeepTrue",
      "type": "event"
    },
    {
      "anonymous": false,
      "inputs": [
        {
          "indexed": true,
          "internalType": "uint256",
          "name": "requestId",
          "type": "uint256"
        }
      ],
      "name": "EventLottery__RequestRandomWords",
      "type": "event"
    },
    {
      "anonymous": false,
      "inputs": [
        {
          "indexed": true,
          "internalType": "address",
          "name": "player",
          "type": "address"
        }
      ],
      "name": "EventLottery__TicketBuyed",
      "type": "event"
    },
    {
      "anonymous": false,
      "inputs": [
        {
          "indexed": true,
          "internalType": "address",
          "name": "winner",
          "type": "address"
        }
      ],
      "name": "EventLottery__WinnerSelectedAndPaid",
      "type": "event"
    },
    {
      "inputs": [],
      "name": "buyTicket",
      "outputs": [],
      "stateMutability": "payable",
      "type": "function"
    },
    {
      "inputs": [
        {
          "internalType": "bytes",
          "name": "",
          "type": "bytes"
        }
      ],
      "name": "checkUpkeep",
      "outputs": [
        {
          "internalType": "bool",
          "name": "upkeepNeeded",
          "type": "bool"
        },
        {
          "internalType": "bytes",
          "name": "performData",
          "type": "bytes"
        }
      ],
      "stateMutability": "nonpayable",
      "type": "function"
    },
    {
      "inputs": [],
      "name": "getInterval",
      "outputs": [
        {
          "internalType": "uint256",
          "name": "",
          "type": "uint256"
        }
      ],
      "stateMutability": "view",
      "type": "function"
    },
    {
      "inputs": [],
      "name": "getLatestTimestamp",
      "outputs": [
        {
          "internalType": "uint256",
          "name": "",
          "type": "uint256"
        }
      ],
      "stateMutability": "view",
      "type": "function"
    },
    {
      "inputs": [],
      "name": "getLotteryState",
      "outputs": [
        {
          "internalType": "enum Lottery.LotteryState",
          "name": "",
          "type": "uint8"
        }
      ],
      "stateMutability": "view",
      "type": "function"
    },
    {
      "inputs": [],
      "name": "getNumPlayers",
      "outputs": [
        {
          "internalType": "uint256",
          "name": "",
          "type": "uint256"
        }
      ],
      "stateMutability": "view",
      "type": "function"
    },
    {
      "inputs": [],
      "name": "getNumWords",
      "outputs": [
        {
          "internalType": "uint256",
          "name": "",
          "type": "uint256"
        }
      ],
      "stateMutability": "pure",
      "type": "function"
    },
    {
      "inputs": [
        {
          "internalType": "uint256",
          "name": "index",
          "type": "uint256"
        }
      ],
      "name": "getPlayers",
      "outputs": [
        {
          "internalType": "address payable",
          "name": "",
          "type": "address"
        }
      ],
      "stateMutability": "view",
      "type": "function"
    },
    {
      "inputs": [],
      "name": "getRecentWinner",
      "outputs": [
        {
          "internalType": "address",
          "name": "",
          "type": "address"
        }
      ],
      "stateMutability": "view",
      "type": "function"
    },
    {
      "inputs": [],
      "name": "getRequestConfirmations",
      "outputs": [
        {
          "internalType": "uint256",
          "name": "",
          "type": "uint256"
        }
      ],
      "stateMutability": "pure",
      "type": "function"
    },
    {
      "inputs": [],
      "name": "getTicketPrice",
      "outputs": [
        {
          "internalType": "uint256",
          "name": "",
          "type": "uint256"
        }
      ],
      "stateMutability": "view",
      "type": "function"
    },
    {
      "inputs": [
        {
          "internalType": "bytes",
          "name": "",
          "type": "bytes"
        }
      ],
      "name": "performUpkeep",
      "outputs": [],
      "stateMutability": "nonpayable",
      "type": "function"
    },
    {
      "inputs": [
        {
          "internalType": "uint256",
          "name": "requestId",
          "type": "uint256"
        },
        {
          "internalType": "uint256[]",
          "name": "randomWords",
          "type": "uint256[]"
        }
      ],
      "name": "rawFulfillRandomWords",
      "outputs": [],
      "stateMutability": "nonpayable",
      "type": "function"
    },
    {
      "inputs": [
        {
          "internalType": "enum Lottery.LotteryState",
          "name": "_state",
          "type": "uint8"
        }
      ],
      "name": "setState",
      "outputs": [],
      "stateMutability": "nonpayable",
      "type": "function"
    }
  ],
  "bytecode": "0x610180604052600163ffffffff166101409063ffffffff168152503480156200002757600080fd5b506040516200192f3803806200192f83398181016040528101906200004d9190620002a9565b858073ffffffffffffffffffffffffffffffffffffffff1660808173ffffffffffffffffffffffffffffffffffffffff1681525050508460a081815250508573ffffffffffffffffffffffffffffffffffffffff1660c08173ffffffffffffffffffffffffffffffffffffffff16815250508360e081815250508267ffffffffffffffff166101008167ffffffffffffffff16815250508163ffffffff166101208163ffffffff16815250506000600160146101000a81548160ff0219169083600181111562000122576200012162000345565b5b02179055504260028190555080610160818152505050505050505062000374565b600080fd5b600073ffffffffffffffffffffffffffffffffffffffff82169050919050565b6000620001758262000148565b9050919050565b620001878162000168565b81146200019357600080fd5b50565b600081519050620001a7816200017c565b92915050565b6000819050919050565b620001c281620001ad565b8114620001ce57600080fd5b50565b600081519050620001e281620001b7565b92915050565b6000819050919050565b620001fd81620001e8565b81146200020957600080fd5b50565b6000815190506200021d81620001f2565b92915050565b600067ffffffffffffffff82169050919050565b620002428162000223565b81146200024e57600080fd5b50565b600081519050620002628162000237565b92915050565b600063ffffffff82169050919050565b620002838162000268565b81146200028f57600080fd5b50565b600081519050620002a38162000278565b92915050565b60008060008060008060c08789031215620002c957620002c862000143565b5b6000620002d989828a0162000196565b9650506020620002ec89828a01620001d1565b9550506040620002ff89828a016200020c565b94505060606200031289828a0162000251565b93505060806200032589828a0162000292565b92505060a06200033889828a01620001d1565b9150509295509295509295565b7f4e487b7100000000000000000000000000000000000000000000000000000000600052602160045260246000fd5b60805160a05160c05160e05161010051610120516101405161016051611539620003f66000396000818161071301526107de01526000818161051d0152610649015260006104fc015260006104d9015260006104b80152600061047c0152600081816107b6015261080401526000818161033c015261039001526115396000f3fe6080604052600436106100dd5760003560e01c80635f1b0fd81161007f57806387bb7ae01161005957806387bb7ae0146102af57806391ad27b4146102da578063edca914c14610305578063f43b52cb1461030f576100dd565b80635f1b0fd81461021b5780636b68c03c146102465780636e04ff0d14610271576100dd565b8063473f1ddc116100bb578063473f1ddc1461017157806353a2c19a1461019c57806355c9e926146101c757806356de96db146101f2576100dd565b80631fe543e3146100e25780634585e33b1461010b578063460e204914610134575b600080fd5b3480156100ee57600080fd5b5061010960048036038101906101049190610df6565b61033a565b005b34801561011757600080fd5b50610132600480360381019061012d9190610ead565b6103fa565b005b34801561014057600080fd5b5061015b60048036038101906101569190610efa565b6105d4565b6040516101689190610f68565b60405180910390f35b34801561017d57600080fd5b5061018661061b565b6040516101939190610fa4565b60405180910390f35b3480156101a857600080fd5b506101b1610645565b6040516101be9190610fce565b60405180910390f35b3480156101d357600080fd5b506101dc610673565b6040516101e99190610fce565b60405180910390f35b3480156101fe57600080fd5b506102196004803603810190610214919061100e565b61067f565b005b34801561022757600080fd5b506102306106ac565b60405161023d9190610fce565b60405180910390f35b34801561025257600080fd5b5061025b6106b9565b60405161026891906110b2565b60405180910390f35b34801561027d57600080fd5b5061029860048036038101906102939190611182565b6106d0565b6040516102a6929190611265565b60405180910390f35b3480156102bb57600080fd5b506102c46107b2565b6040516102d19190610fce565b60405180910390f35b3480156102e657600080fd5b506102ef6107da565b6040516102fc9190610fce565b60405180910390f35b61030d610802565b005b34801561031b57600080fd5b50610324610971565b6040516103319190610fce565b60405180910390f35b7f000000000000000000000000000000000000000000000000000000000000000073ffffffffffffffffffffffffffffffffffffffff163373ffffffffffffffffffffffffffffffffffffffff16146103ec57337f00000000000000000000000000000000000000000000000000000000000000006040517f1cf993f40000000000000000000000000000000000000000000000000000000081526004016103e3929190611295565b60405180910390fd5b6103f6828261097b565b5050565b60018060146101000a81548160ff0219169083600181111561041f5761041e61103b565b5b0217905550600061043e604051806020016040528060008152506106d0565b50905080610478576040517f7693f01a00000000000000000000000000000000000000000000000000000000815260040160405180910390fd5b60007f000000000000000000000000000000000000000000000000000000000000000073ffffffffffffffffffffffffffffffffffffffff16635d3b1d307f00000000000000000000000000000000000000000000000000000000000000007f000000000000000000000000000000000000000000000000000000000000000060037f00000000000000000000000000000000000000000000000000000000000000007f00000000000000000000000000000000000000000000000000000000000000006040518663ffffffff1660e01b815260040161055c959493929190611336565b6020604051808303816000875af115801561057b573d6000803e3d6000fd5b505050506040513d601f19601f8201168201806040525081019061059f919061139e565b9050807f10d712d992e93b5dcd2fb45b44dc511436ff77c66a5ca03bf2dbc89b07c160d160405160405180910390a250505050565b60008082815481106105e9576105e86113cb565b5b9060005260206000200160009054906101000a900473ffffffffffffffffffffffffffffffffffffffff169050919050565b6000600160009054906101000a900473ffffffffffffffffffffffffffffffffffffffff16905090565b60007f000000000000000000000000000000000000000000000000000000000000000063ffffffff16905090565b60008080549050905090565b80600160146101000a81548160ff021916908360018111156106a4576106a361103b565b5b021790555050565b6000600361ffff16905090565b6000600160149054906101000a900460ff16905090565b600060606000600160149054906101000a900460ff1660018111156106f8576106f761103b565b5b6000600181111561070c5761070b61103b565b5b14905060007f0000000000000000000000000000000000000000000000000000000000000000600254426107409190611429565b1190506000806000805490501190506000804711905060008480156107625750835b801561076b5750825b80156107745750815b90508015157f554fc1fd4b418f0afea2764fbe56a9342e175c4d47816662c6dd9d916adb7d8d60405160405180910390a28096505050505050915091565b60007f0000000000000000000000000000000000000000000000000000000000000000905090565b60007f0000000000000000000000000000000000000000000000000000000000000000905090565b7f000000000000000000000000000000000000000000000000000000000000000034101561085c576040517f80ae043200000000000000000000000000000000000000000000000000000000815260040160405180910390fd5b600060018111156108705761086f61103b565b5b600160149054906101000a900460ff1660018111156108925761089161103b565b5b146108c9576040517f7ec2ef9c00000000000000000000000000000000000000000000000000000000815260040160405180910390fd5b6000339080600181540180825580915050600190039060005260206000200160009091909190916101000a81548173ffffffffffffffffffffffffffffffffffffffff021916908373ffffffffffffffffffffffffffffffffffffffff1602179055503373ffffffffffffffffffffffffffffffffffffffff167fc013140ee7c0e76c7697e928d9a364c76f328b00fd4978e1b4ee61fa6974154d60405160405180910390a2565b6000600254905090565b6000808054905082600081518110610996576109956113cb565b5b60200260200101516109a8919061148c565b905060008082815481106109bf576109be6113cb565b5b9060005260206000200160009054906101000a900473ffffffffffffffffffffffffffffffffffffffff16905080600160006101000a81548173ffffffffffffffffffffffffffffffffffffffff021916908373ffffffffffffffffffffffffffffffffffffffff1602179055506000600160146101000a81548160ff02191690836001811115610a5357610a5261103b565b5b0217905550600067ffffffffffffffff811115610a7357610a72610cb3565b5b604051908082528060200260200182016040528015610aa15781602001602082028036833780820191505090505b5060009080519060200190610ab7929190610bac565b504260028190555060008173ffffffffffffffffffffffffffffffffffffffff1647604051610ae5906114ee565b60006040518083038185875af1925050503d8060008114610b22576040519150601f19603f3d011682016040523d82523d6000602084013e610b27565b606091505b5050905080610b62576040517f760b301700000000000000000000000000000000000000000000000000000000815260040160405180910390fd5b8173ffffffffffffffffffffffffffffffffffffffff167f27385c6bce45eba0fa17e24b25cc6bea4edd17adc706c6c30b2cea8c1039356e60405160405180910390a25050505050565b828054828255906000526020600020908101928215610c25579160200282015b82811115610c245782518260006101000a81548173ffffffffffffffffffffffffffffffffffffffff021916908373ffffffffffffffffffffffffffffffffffffffff16021790555091602001919060010190610bcc565b5b509050610c329190610c36565b5090565b5b80821115610c4f576000816000905550600101610c37565b5090565b6000604051905090565b600080fd5b600080fd5b6000819050919050565b610c7a81610c67565b8114610c8557600080fd5b50565b600081359050610c9781610c71565b92915050565b600080fd5b6000601f19601f8301169050919050565b7f4e487b7100000000000000000000000000000000000000000000000000000000600052604160045260246000fd5b610ceb82610ca2565b810181811067ffffffffffffffff82111715610d0a57610d09610cb3565b5b80604052505050565b6000610d1d610c53565b9050610d298282610ce2565b919050565b600067ffffffffffffffff821115610d4957610d48610cb3565b5b602082029050602081019050919050565b600080fd5b6000610d72610d6d84610d2e565b610d13565b90508083825260208201905060208402830185811115610d9557610d94610d5a565b5b835b81811015610dbe5780610daa8882610c88565b845260208401935050602081019050610d97565b5050509392505050565b600082601f830112610ddd57610ddc610c9d565b5b8135610ded848260208601610d5f565b91505092915050565b60008060408385031215610e0d57610e0c610c5d565b5b6000610e1b85828601610c88565b925050602083013567ffffffffffffffff811115610e3c57610e3b610c62565b5b610e4885828601610dc8565b9150509250929050565b600080fd5b60008083601f840112610e6d57610e6c610c9d565b5b8235905067ffffffffffffffff811115610e8a57610e89610e52565b5b602083019150836001820283011115610ea657610ea5610d5a565b5b9250929050565b60008060208385031215610ec457610ec3610c5d565b5b600083013567ffffffffffffffff811115610ee257610ee1610c62565b5b610eee85828601610e57565b92509250509250929050565b600060208284031215610f1057610f0f610c5d565b5b6000610f1e84828501610c88565b91505092915050565b600073ffffffffffffffffffffffffffffffffffffffff82169050919050565b6000610f5282610f27565b9050919050565b610f6281610f47565b82525050565b6000602082019050610f7d6000830184610f59565b92915050565b6000610f8e82610f27565b9050919050565b610f9e81610f83565b82525050565b6000602082019050610fb96000830184610f95565b92915050565b610fc881610c67565b82525050565b6000602082019050610fe36000830184610fbf565b92915050565b60028110610ff657600080fd5b50565b60008135905061100881610fe9565b92915050565b60006020828403121561102457611023610c5d565b5b600061103284828501610ff9565b91505092915050565b7f4e487b7100000000000000000000000000000000000000000000000000000000600052602160045260246000fd5b6002811061107b5761107a61103b565b5b50565b600081905061108c8261106a565b919050565b600061109c8261107e565b9050919050565b6110ac81611091565b82525050565b60006020820190506110c760008301846110a3565b92915050565b600080fd5b600067ffffffffffffffff8211156110ed576110ec610cb3565b5b6110f682610ca2565b9050602081019050919050565b82818337600083830152505050565b6000611125611120846110d2565b610d13565b905082815260208101848484011115611141576111406110cd565b5b61114c848285611103565b509392505050565b600082601f83011261116957611168610c9d565b5b8135611179848260208601611112565b91505092915050565b60006020828403121561119857611197610c5d565b5b600082013567ffffffffffffffff8111156111b6576111b5610c62565b5b6111c284828501611154565b91505092915050565b60008115159050919050565b6111e0816111cb565b82525050565b600081519050919050565b600082825260208201905092915050565b60005b83811015611220578082015181840152602081019050611205565b60008484015250505050565b6000611237826111e6565b61124181856111f1565b9350611251818560208601611202565b61125a81610ca2565b840191505092915050565b600060408201905061127a60008301856111d7565b818103602083015261128c818461122c565b90509392505050565b60006040820190506112aa6000830185610f95565b6112b76020830184610f95565b9392505050565b6000819050919050565b6112d1816112be565b82525050565b600067ffffffffffffffff82169050919050565b6112f4816112d7565b82525050565b600061ffff82169050919050565b611311816112fa565b82525050565b600063ffffffff82169050919050565b61133081611317565b82525050565b600060a08201905061134b60008301886112c8565b61135860208301876112eb565b6113656040830186611308565b6113726060830185611327565b61137f6080830184611327565b9695505050505050565b60008151905061139881610c71565b92915050565b6000602082840312156113b4576113b3610c5d565b5b60006113c284828501611389565b91505092915050565b7f4e487b7100000000000000000000000000000000000000000000000000000000600052603260045260246000fd5b7f4e487b7100000000000000000000000000000000000000000000000000000000600052601160045260246000fd5b600061143482610c67565b915061143f83610c67565b9250828203905081811115611457576114566113fa565b5b92915050565b7f4e487b7100000000000000000000000000000000000000000000000000000000600052601260045260246000fd5b600061149782610c67565b91506114a283610c67565b9250826114b2576114b161145d565b5b828206905092915050565b600081905092915050565b50565b60006114d86000836114bd565b91506114e3826114c8565b600082019050919050565b60006114f9826114cb565b915081905091905056fea2646970667358221220a2be961e43c583014ee167378ba2be6adc92b385a618bee8960711216fefb2c364736f6c63430008120033",
  "linkReferences": {},
  "deployedLinkReferences": {}
}