{
  "_format": "hh-sol-artifact-1",
  "contractName": "Lottery",
  "sourceName": "contracts/Lottery.sol",
  "abi": [
    {
      "inputs": [
        {
          "internalType": "address",
          "name": "vrfCoordinatorV2",
          "type": "address"
        },
        {
          "internalType": "uint256",
          "name": "ticketPrice",
          "type": "uint256"
        },
        {
          "internalType": "bytes32",
          "name": "gasLane",
          "type": "bytes32"
        },
        {
          "internalType": "uint64",
          "name": "subscriptionId",
          "type": "uint64"
        },
        {
          "internalType": "uint32",
          "name": "callbackGasLimit",
          "type": "uint32"
        },
        {
          "internalType": "uint256",
          "name": "interval",
          "type": "uint256"
        }
      ],
      "stateMutability": "nonpayable",
      "type": "constructor"
    },
    {
      "inputs": [],
      "name": "ErrorLottery__Busy",
      "type": "error"
    },
    {
      "inputs": [],
      "name": "ErrorLottery__InsufficientTicketAmount",
      "type": "error"
    },
    {
      "inputs": [],
      "name": "ErrorLottery__PayingWinnerFailed",
      "type": "error"
    },
    {
      "inputs": [
        {
          "internalType": "uint256",
          "name": "currentBalance",
          "type": "uint256"
        },
        {
          "internalType": "uint256",
          "name": "numPlayers",
          "type": "uint256"
        },
        {
          "internalType": "uint256",
          "name": "lotteryState",
          "type": "uint256"
        }
      ],
      "name": "ErrorLottery__PerformUpkeepNotNeeded",
      "type": "error"
    },
    {
      "inputs": [
        {
          "internalType": "address",
          "name": "have",
          "type": "address"
        },
        {
          "internalType": "address",
          "name": "want",
          "type": "address"
        }
      ],
      "name": "OnlyCoordinatorCanFulfill",
      "type": "error"
    },
    {
      "anonymous": false,
      "inputs": [
        {
          "indexed": true,
          "internalType": "uint256",
          "name": "requestId",
          "type": "uint256"
        }
      ],
      "name": "EventLottery__RequestRandomWords",
      "type": "event"
    },
    {
      "anonymous": false,
      "inputs": [
        {
          "indexed": true,
          "internalType": "address",
          "name": "player",
          "type": "address"
        }
      ],
      "name": "EventLottery__TicketBuyed",
      "type": "event"
    },
    {
      "anonymous": false,
      "inputs": [
        {
          "indexed": true,
          "internalType": "address",
          "name": "winner",
          "type": "address"
        }
      ],
      "name": "EventLottery__WinnerSelectedAndPaid",
      "type": "event"
    },
    {
      "inputs": [],
      "name": "buyTicket",
      "outputs": [],
      "stateMutability": "payable",
      "type": "function"
    },
    {
      "inputs": [
        {
          "internalType": "bytes",
          "name": "",
          "type": "bytes"
        }
      ],
      "name": "checkUpkeep",
      "outputs": [
        {
          "internalType": "bool",
          "name": "upkeepNeeded",
          "type": "bool"
        },
        {
          "internalType": "bytes",
          "name": "performData",
          "type": "bytes"
        }
      ],
      "stateMutability": "nonpayable",
      "type": "function"
    },
    {
      "inputs": [],
      "name": "getLotteryState",
      "outputs": [
        {
          "internalType": "enum Lottery.LotteryState",
          "name": "",
          "type": "uint8"
        }
      ],
      "stateMutability": "view",
      "type": "function"
    },
    {
      "inputs": [],
      "name": "getNumWords",
      "outputs": [
        {
          "internalType": "uint256",
          "name": "",
          "type": "uint256"
        }
      ],
      "stateMutability": "pure",
      "type": "function"
    },
    {
      "inputs": [
        {
          "internalType": "uint256",
          "name": "index",
          "type": "uint256"
        }
      ],
      "name": "getPlayers",
      "outputs": [
        {
          "internalType": "address payable",
          "name": "",
          "type": "address"
        }
      ],
      "stateMutability": "view",
      "type": "function"
    },
    {
      "inputs": [],
      "name": "getRecentWinner",
      "outputs": [
        {
          "internalType": "address",
          "name": "",
          "type": "address"
        }
      ],
      "stateMutability": "view",
      "type": "function"
    },
    {
      "inputs": [],
      "name": "getTicketPrice",
      "outputs": [
        {
          "internalType": "uint256",
          "name": "",
          "type": "uint256"
        }
      ],
      "stateMutability": "view",
      "type": "function"
    },
    {
      "inputs": [
        {
          "internalType": "bytes",
          "name": "",
          "type": "bytes"
        }
      ],
      "name": "performUpkeep",
      "outputs": [],
      "stateMutability": "nonpayable",
      "type": "function"
    },
    {
      "inputs": [
        {
          "internalType": "uint256",
          "name": "requestId",
          "type": "uint256"
        },
        {
          "internalType": "uint256[]",
          "name": "randomWords",
          "type": "uint256[]"
        }
      ],
      "name": "rawFulfillRandomWords",
      "outputs": [],
      "stateMutability": "nonpayable",
      "type": "function"
    }
  ],
  "bytecode": "0x610180604052600163ffffffff166101409063ffffffff168152503480156200002757600080fd5b50604051620017693803806200176983398181016040528101906200004d9190620002a9565b858073ffffffffffffffffffffffffffffffffffffffff1660808173ffffffffffffffffffffffffffffffffffffffff1681525050508460a081815250508573ffffffffffffffffffffffffffffffffffffffff1660c08173ffffffffffffffffffffffffffffffffffffffff16815250508360e081815250508267ffffffffffffffff166101008167ffffffffffffffff16815250508163ffffffff166101208163ffffffff16815250506000600160146101000a81548160ff0219169083600181111562000122576200012162000345565b5b02179055504260028190555080610160818152505050505050505062000374565b600080fd5b600073ffffffffffffffffffffffffffffffffffffffff82169050919050565b6000620001758262000148565b9050919050565b620001878162000168565b81146200019357600080fd5b50565b600081519050620001a7816200017c565b92915050565b6000819050919050565b620001c281620001ad565b8114620001ce57600080fd5b50565b600081519050620001e281620001b7565b92915050565b6000819050919050565b620001fd81620001e8565b81146200020957600080fd5b50565b6000815190506200021d81620001f2565b92915050565b600067ffffffffffffffff82169050919050565b620002428162000223565b81146200024e57600080fd5b50565b600081519050620002628162000237565b92915050565b600063ffffffff82169050919050565b620002838162000268565b81146200028f57600080fd5b50565b600081519050620002a38162000278565b92915050565b60008060008060008060c08789031215620002c957620002c862000143565b5b6000620002d989828a0162000196565b9650506020620002ec89828a01620001d1565b9550506040620002ff89828a016200020c565b94505060606200031289828a0162000251565b93505060806200032589828a0162000292565b92505060a06200033889828a01620001d1565b9150509295509295509295565b7f4e487b7100000000000000000000000000000000000000000000000000000000600052602160045260246000fd5b60805160a05160c05160e0516101005161012051610140516101605161137a620003ef60003960006105d6015260008181610426015261055201526000610405015260006103e2015260006103c101526000610385015260008181610644015261066a0152600081816102100152610264015261137a6000f3fe6080604052600436106100865760003560e01c806353a2c19a1161005957806353a2c19a146101455780636b68c03c146101705780636e04ff0d1461019b57806387bb7ae0146101d9578063edca914c1461020457610086565b80631fe543e31461008b5780634585e33b146100b4578063460e2049146100dd578063473f1ddc1461011a575b600080fd5b34801561009757600080fd5b506100b260048036038101906100ad9190610c52565b61020e565b005b3480156100c057600080fd5b506100db60048036038101906100d69190610d09565b6102ce565b005b3480156100e957600080fd5b5061010460048036038101906100ff9190610d56565b6104dd565b6040516101119190610dc4565b60405180910390f35b34801561012657600080fd5b5061012f610524565b60405161013c9190610e00565b60405180910390f35b34801561015157600080fd5b5061015a61054e565b6040516101679190610e2a565b60405180910390f35b34801561017c57600080fd5b5061018561057c565b6040516101929190610ebc565b60405180910390f35b3480156101a757600080fd5b506101c260048036038101906101bd9190610f8c565b610593565b6040516101d092919061106f565b60405180910390f35b3480156101e557600080fd5b506101ee610640565b6040516101fb9190610e2a565b60405180910390f35b61020c610668565b005b7f000000000000000000000000000000000000000000000000000000000000000073ffffffffffffffffffffffffffffffffffffffff163373ffffffffffffffffffffffffffffffffffffffff16146102c057337f00000000000000000000000000000000000000000000000000000000000000006040517f1cf993f40000000000000000000000000000000000000000000000000000000081526004016102b792919061109f565b60405180910390fd5b6102ca82826107d7565b5050565b60018060146101000a81548160ff021916908360018111156102f3576102f2610e45565b5b0217905550600061031260405180602001604052806000815250610593565b509050806103815747600080549050600160149054906101000a900460ff16600181111561034357610342610e45565b5b6040517fa52f617a000000000000000000000000000000000000000000000000000000008152600401610378939291906110c8565b60405180910390fd5b60007f000000000000000000000000000000000000000000000000000000000000000073ffffffffffffffffffffffffffffffffffffffff16635d3b1d307f00000000000000000000000000000000000000000000000000000000000000007f000000000000000000000000000000000000000000000000000000000000000060037f00000000000000000000000000000000000000000000000000000000000000007f00000000000000000000000000000000000000000000000000000000000000006040518663ffffffff1660e01b8152600401610465959493929190611177565b6020604051808303816000875af1158015610484573d6000803e3d6000fd5b505050506040513d601f19601f820116820180604052508101906104a891906111df565b9050807f10d712d992e93b5dcd2fb45b44dc511436ff77c66a5ca03bf2dbc89b07c160d160405160405180910390a250505050565b60008082815481106104f2576104f161120c565b5b9060005260206000200160009054906101000a900473ffffffffffffffffffffffffffffffffffffffff169050919050565b6000600160009054906101000a900473ffffffffffffffffffffffffffffffffffffffff16905090565b60007f000000000000000000000000000000000000000000000000000000000000000063ffffffff16905090565b6000600160149054906101000a900460ff16905090565b600060606000600160149054906101000a900460ff1660018111156105bb576105ba610e45565b5b600060018111156105cf576105ce610e45565b5b14905060007f000000000000000000000000000000000000000000000000000000000000000060025442610603919061126a565b119050600080600080549050119050600080471190508380156106235750825b801561062c5750815b80156106355750805b955050505050915091565b60007f0000000000000000000000000000000000000000000000000000000000000000905090565b7f00000000000000000000000000000000000000000000000000000000000000003410156106c2576040517f80ae043200000000000000000000000000000000000000000000000000000000815260040160405180910390fd5b600060018111156106d6576106d5610e45565b5b600160149054906101000a900460ff1660018111156106f8576106f7610e45565b5b1461072f576040517f7ec2ef9c00000000000000000000000000000000000000000000000000000000815260040160405180910390fd5b6000339080600181540180825580915050600190039060005260206000200160009091909190916101000a81548173ffffffffffffffffffffffffffffffffffffffff021916908373ffffffffffffffffffffffffffffffffffffffff1602179055503373ffffffffffffffffffffffffffffffffffffffff167fc013140ee7c0e76c7697e928d9a364c76f328b00fd4978e1b4ee61fa6974154d60405160405180910390a2565b60008080549050826000815181106107f2576107f161120c565b5b602002602001015161080491906112cd565b9050600080828154811061081b5761081a61120c565b5b9060005260206000200160009054906101000a900473ffffffffffffffffffffffffffffffffffffffff16905080600160006101000a81548173ffffffffffffffffffffffffffffffffffffffff021916908373ffffffffffffffffffffffffffffffffffffffff1602179055506000600160146101000a81548160ff021916908360018111156108af576108ae610e45565b5b0217905550600067ffffffffffffffff8111156108cf576108ce610b0f565b5b6040519080825280602002602001820160405280156108fd5781602001602082028036833780820191505090505b5060009080519060200190610913929190610a08565b504260028190555060008173ffffffffffffffffffffffffffffffffffffffff16476040516109419061132f565b60006040518083038185875af1925050503d806000811461097e576040519150601f19603f3d011682016040523d82523d6000602084013e610983565b606091505b50509050806109be576040517f760b301700000000000000000000000000000000000000000000000000000000815260040160405180910390fd5b8173ffffffffffffffffffffffffffffffffffffffff167f27385c6bce45eba0fa17e24b25cc6bea4edd17adc706c6c30b2cea8c1039356e60405160405180910390a25050505050565b828054828255906000526020600020908101928215610a81579160200282015b82811115610a805782518260006101000a81548173ffffffffffffffffffffffffffffffffffffffff021916908373ffffffffffffffffffffffffffffffffffffffff16021790555091602001919060010190610a28565b5b509050610a8e9190610a92565b5090565b5b80821115610aab576000816000905550600101610a93565b5090565b6000604051905090565b600080fd5b600080fd5b6000819050919050565b610ad681610ac3565b8114610ae157600080fd5b50565b600081359050610af381610acd565b92915050565b600080fd5b6000601f19601f8301169050919050565b7f4e487b7100000000000000000000000000000000000000000000000000000000600052604160045260246000fd5b610b4782610afe565b810181811067ffffffffffffffff82111715610b6657610b65610b0f565b5b80604052505050565b6000610b79610aaf565b9050610b858282610b3e565b919050565b600067ffffffffffffffff821115610ba557610ba4610b0f565b5b602082029050602081019050919050565b600080fd5b6000610bce610bc984610b8a565b610b6f565b90508083825260208201905060208402830185811115610bf157610bf0610bb6565b5b835b81811015610c1a5780610c068882610ae4565b845260208401935050602081019050610bf3565b5050509392505050565b600082601f830112610c3957610c38610af9565b5b8135610c49848260208601610bbb565b91505092915050565b60008060408385031215610c6957610c68610ab9565b5b6000610c7785828601610ae4565b925050602083013567ffffffffffffffff811115610c9857610c97610abe565b5b610ca485828601610c24565b9150509250929050565b600080fd5b60008083601f840112610cc957610cc8610af9565b5b8235905067ffffffffffffffff811115610ce657610ce5610cae565b5b602083019150836001820283011115610d0257610d01610bb6565b5b9250929050565b60008060208385031215610d2057610d1f610ab9565b5b600083013567ffffffffffffffff811115610d3e57610d3d610abe565b5b610d4a85828601610cb3565b92509250509250929050565b600060208284031215610d6c57610d6b610ab9565b5b6000610d7a84828501610ae4565b91505092915050565b600073ffffffffffffffffffffffffffffffffffffffff82169050919050565b6000610dae82610d83565b9050919050565b610dbe81610da3565b82525050565b6000602082019050610dd96000830184610db5565b92915050565b6000610dea82610d83565b9050919050565b610dfa81610ddf565b82525050565b6000602082019050610e156000830184610df1565b92915050565b610e2481610ac3565b82525050565b6000602082019050610e3f6000830184610e1b565b92915050565b7f4e487b7100000000000000000000000000000000000000000000000000000000600052602160045260246000fd5b60028110610e8557610e84610e45565b5b50565b6000819050610e9682610e74565b919050565b6000610ea682610e88565b9050919050565b610eb681610e9b565b82525050565b6000602082019050610ed16000830184610ead565b92915050565b600080fd5b600067ffffffffffffffff821115610ef757610ef6610b0f565b5b610f0082610afe565b9050602081019050919050565b82818337600083830152505050565b6000610f2f610f2a84610edc565b610b6f565b905082815260208101848484011115610f4b57610f4a610ed7565b5b610f56848285610f0d565b509392505050565b600082601f830112610f7357610f72610af9565b5b8135610f83848260208601610f1c565b91505092915050565b600060208284031215610fa257610fa1610ab9565b5b600082013567ffffffffffffffff811115610fc057610fbf610abe565b5b610fcc84828501610f5e565b91505092915050565b60008115159050919050565b610fea81610fd5565b82525050565b600081519050919050565b600082825260208201905092915050565b60005b8381101561102a57808201518184015260208101905061100f565b60008484015250505050565b600061104182610ff0565b61104b8185610ffb565b935061105b81856020860161100c565b61106481610afe565b840191505092915050565b60006040820190506110846000830185610fe1565b81810360208301526110968184611036565b90509392505050565b60006040820190506110b46000830185610df1565b6110c16020830184610df1565b9392505050565b60006060820190506110dd6000830186610e1b565b6110ea6020830185610e1b565b6110f76040830184610e1b565b949350505050565b6000819050919050565b611112816110ff565b82525050565b600067ffffffffffffffff82169050919050565b61113581611118565b82525050565b600061ffff82169050919050565b6111528161113b565b82525050565b600063ffffffff82169050919050565b61117181611158565b82525050565b600060a08201905061118c6000830188611109565b611199602083018761112c565b6111a66040830186611149565b6111b36060830185611168565b6111c06080830184611168565b9695505050505050565b6000815190506111d981610acd565b92915050565b6000602082840312156111f5576111f4610ab9565b5b6000611203848285016111ca565b91505092915050565b7f4e487b7100000000000000000000000000000000000000000000000000000000600052603260045260246000fd5b7f4e487b7100000000000000000000000000000000000000000000000000000000600052601160045260246000fd5b600061127582610ac3565b915061128083610ac3565b92508282039050818111156112985761129761123b565b5b92915050565b7f4e487b7100000000000000000000000000000000000000000000000000000000600052601260045260246000fd5b60006112d882610ac3565b91506112e383610ac3565b9250826112f3576112f261129e565b5b828206905092915050565b600081905092915050565b50565b60006113196000836112fe565b915061132482611309565b600082019050919050565b600061133a8261130c565b915081905091905056fea2646970667358221220fa78eacd48fd3d126f41cb91816807a6b9f85178d064691ed39e295e70d2df8064736f6c63430008120033",
  "linkReferences": {},
  "deployedLinkReferences": {}
}