{
  "_format": "hh-sol-artifact-1",
  "contractName": "Lottery",
  "sourceName": "contracts/Lottery.sol",
  "abi": [
    {
      "inputs": [
        {
          "internalType": "address",
          "name": "vrfCoordinatorV2",
          "type": "address"
        },
        {
          "internalType": "uint256",
          "name": "ticketPrice",
          "type": "uint256"
        },
        {
          "internalType": "bytes32",
          "name": "gasLane",
          "type": "bytes32"
        },
        {
          "internalType": "uint64",
          "name": "subscriptionId",
          "type": "uint64"
        },
        {
          "internalType": "uint32",
          "name": "callbackGasLimit",
          "type": "uint32"
        },
        {
          "internalType": "uint256",
          "name": "interval",
          "type": "uint256"
        }
      ],
      "stateMutability": "nonpayable",
      "type": "constructor"
    },
    {
      "inputs": [],
      "name": "ErrorLottery__Busy",
      "type": "error"
    },
    {
      "inputs": [],
      "name": "ErrorLottery__InsufficientTicketAmount",
      "type": "error"
    },
    {
      "inputs": [],
      "name": "ErrorLottery__PayingWinnerFailed",
      "type": "error"
    },
    {
      "inputs": [
        {
          "internalType": "uint256",
          "name": "currentBalance",
          "type": "uint256"
        },
        {
          "internalType": "uint256",
          "name": "numPlayers",
          "type": "uint256"
        },
        {
          "internalType": "uint256",
          "name": "lotteryState",
          "type": "uint256"
        }
      ],
      "name": "ErrorLottery__PerformUpkeepNotNeeded",
      "type": "error"
    },
    {
      "inputs": [
        {
          "internalType": "address",
          "name": "have",
          "type": "address"
        },
        {
          "internalType": "address",
          "name": "want",
          "type": "address"
        }
      ],
      "name": "OnlyCoordinatorCanFulfill",
      "type": "error"
    },
    {
      "anonymous": false,
      "inputs": [
        {
          "indexed": true,
          "internalType": "uint256",
          "name": "requestId",
          "type": "uint256"
        }
      ],
      "name": "EventLottery__RequestRandomWords",
      "type": "event"
    },
    {
      "anonymous": false,
      "inputs": [
        {
          "indexed": true,
          "internalType": "address",
          "name": "player",
          "type": "address"
        }
      ],
      "name": "EventLottery__TicketBuyed",
      "type": "event"
    },
    {
      "anonymous": false,
      "inputs": [
        {
          "indexed": true,
          "internalType": "address",
          "name": "winner",
          "type": "address"
        }
      ],
      "name": "EventLottery__WinnerSelectedAndPaid",
      "type": "event"
    },
    {
      "inputs": [],
      "name": "buyTicket",
      "outputs": [],
      "stateMutability": "payable",
      "type": "function"
    },
    {
      "inputs": [
        {
          "internalType": "bytes",
          "name": "",
          "type": "bytes"
        }
      ],
      "name": "checkUpkeep",
      "outputs": [
        {
          "internalType": "bool",
          "name": "upkeepNeeded",
          "type": "bool"
        },
        {
          "internalType": "bytes",
          "name": "performData",
          "type": "bytes"
        }
      ],
      "stateMutability": "nonpayable",
      "type": "function"
    },
    {
      "inputs": [],
      "name": "getLatestTimestamp",
      "outputs": [
        {
          "internalType": "uint256",
          "name": "",
          "type": "uint256"
        }
      ],
      "stateMutability": "view",
      "type": "function"
    },
    {
      "inputs": [],
      "name": "getLotteryState",
      "outputs": [
        {
          "internalType": "enum Lottery.LotteryState",
          "name": "",
          "type": "uint8"
        }
      ],
      "stateMutability": "view",
      "type": "function"
    },
    {
      "inputs": [],
      "name": "getNumPlayers",
      "outputs": [
        {
          "internalType": "uint256",
          "name": "",
          "type": "uint256"
        }
      ],
      "stateMutability": "view",
      "type": "function"
    },
    {
      "inputs": [],
      "name": "getNumWords",
      "outputs": [
        {
          "internalType": "uint256",
          "name": "",
          "type": "uint256"
        }
      ],
      "stateMutability": "pure",
      "type": "function"
    },
    {
      "inputs": [
        {
          "internalType": "uint256",
          "name": "index",
          "type": "uint256"
        }
      ],
      "name": "getPlayers",
      "outputs": [
        {
          "internalType": "address payable",
          "name": "",
          "type": "address"
        }
      ],
      "stateMutability": "view",
      "type": "function"
    },
    {
      "inputs": [],
      "name": "getRecentWinner",
      "outputs": [
        {
          "internalType": "address",
          "name": "",
          "type": "address"
        }
      ],
      "stateMutability": "view",
      "type": "function"
    },
    {
      "inputs": [],
      "name": "getRequestConfirmations",
      "outputs": [
        {
          "internalType": "uint256",
          "name": "",
          "type": "uint256"
        }
      ],
      "stateMutability": "pure",
      "type": "function"
    },
    {
      "inputs": [],
      "name": "getTicketPrice",
      "outputs": [
        {
          "internalType": "uint256",
          "name": "",
          "type": "uint256"
        }
      ],
      "stateMutability": "view",
      "type": "function"
    },
    {
      "inputs": [
        {
          "internalType": "bytes",
          "name": "",
          "type": "bytes"
        }
      ],
      "name": "performUpkeep",
      "outputs": [],
      "stateMutability": "nonpayable",
      "type": "function"
    },
    {
      "inputs": [
        {
          "internalType": "uint256",
          "name": "requestId",
          "type": "uint256"
        },
        {
          "internalType": "uint256[]",
          "name": "randomWords",
          "type": "uint256[]"
        }
      ],
      "name": "rawFulfillRandomWords",
      "outputs": [],
      "stateMutability": "nonpayable",
      "type": "function"
    }
  ],
  "bytecode": "0x610180604052600163ffffffff166101409063ffffffff168152503480156200002757600080fd5b506040516200182e3803806200182e83398181016040528101906200004d9190620002a9565b858073ffffffffffffffffffffffffffffffffffffffff1660808173ffffffffffffffffffffffffffffffffffffffff1681525050508460a081815250508573ffffffffffffffffffffffffffffffffffffffff1660c08173ffffffffffffffffffffffffffffffffffffffff16815250508360e081815250508267ffffffffffffffff166101008167ffffffffffffffff16815250508163ffffffff166101208163ffffffff16815250506000600160146101000a81548160ff0219169083600181111562000122576200012162000345565b5b02179055504260028190555080610160818152505050505050505062000374565b600080fd5b600073ffffffffffffffffffffffffffffffffffffffff82169050919050565b6000620001758262000148565b9050919050565b620001878162000168565b81146200019357600080fd5b50565b600081519050620001a7816200017c565b92915050565b6000819050919050565b620001c281620001ad565b8114620001ce57600080fd5b50565b600081519050620001e281620001b7565b92915050565b6000819050919050565b620001fd81620001e8565b81146200020957600080fd5b50565b6000815190506200021d81620001f2565b92915050565b600067ffffffffffffffff82169050919050565b620002428162000223565b81146200024e57600080fd5b50565b600081519050620002628162000237565b92915050565b600063ffffffff82169050919050565b620002838162000268565b81146200028f57600080fd5b50565b600081519050620002a38162000278565b92915050565b60008060008060008060c08789031215620002c957620002c862000143565b5b6000620002d989828a0162000196565b9650506020620002ec89828a01620001d1565b9550506040620002ff89828a016200020c565b94505060606200031289828a0162000251565b93505060806200032589828a0162000292565b92505060a06200033889828a01620001d1565b9150509295509295509295565b7f4e487b7100000000000000000000000000000000000000000000000000000000600052602160045260246000fd5b60805160a05160c05160e0516101005161012051610140516101605161143f620003ef60003960006106910152600081816104c801526105f4015260006104a70152600061048401526000610463015260006104270152600081816106ff01526107250152600081816102b20152610306015261143f6000f3fe6080604052600436106100a75760003560e01c80635f1b0fd8116100645780635f1b0fd8146101bc5780636b68c03c146101e75780636e04ff0d1461021257806387bb7ae014610250578063edca914c1461027b578063f43b52cb14610285576100a7565b80631fe543e3146100ac5780634585e33b146100d5578063460e2049146100fe578063473f1ddc1461013b57806353a2c19a1461016657806355c9e92614610191575b600080fd5b3480156100b857600080fd5b506100d360048036038101906100ce9190610d17565b6102b0565b005b3480156100e157600080fd5b506100fc60048036038101906100f79190610dce565b610370565b005b34801561010a57600080fd5b5061012560048036038101906101209190610e1b565b61057f565b6040516101329190610e89565b60405180910390f35b34801561014757600080fd5b506101506105c6565b60405161015d9190610ec5565b60405180910390f35b34801561017257600080fd5b5061017b6105f0565b6040516101889190610eef565b60405180910390f35b34801561019d57600080fd5b506101a661061e565b6040516101b39190610eef565b60405180910390f35b3480156101c857600080fd5b506101d161062a565b6040516101de9190610eef565b60405180910390f35b3480156101f357600080fd5b506101fc610637565b6040516102099190610f81565b60405180910390f35b34801561021e57600080fd5b5061023960048036038101906102349190611051565b61064e565b604051610247929190611134565b60405180910390f35b34801561025c57600080fd5b506102656106fb565b6040516102729190610eef565b60405180910390f35b610283610723565b005b34801561029157600080fd5b5061029a610892565b6040516102a79190610eef565b60405180910390f35b7f000000000000000000000000000000000000000000000000000000000000000073ffffffffffffffffffffffffffffffffffffffff163373ffffffffffffffffffffffffffffffffffffffff161461036257337f00000000000000000000000000000000000000000000000000000000000000006040517f1cf993f4000000000000000000000000000000000000000000000000000000008152600401610359929190611164565b60405180910390fd5b61036c828261089c565b5050565b60018060146101000a81548160ff0219169083600181111561039557610394610f0a565b5b021790555060006103b46040518060200160405280600081525061064e565b509050806104235747600080549050600160149054906101000a900460ff1660018111156103e5576103e4610f0a565b5b6040517fa52f617a00000000000000000000000000000000000000000000000000000000815260040161041a9392919061118d565b60405180910390fd5b60007f000000000000000000000000000000000000000000000000000000000000000073ffffffffffffffffffffffffffffffffffffffff16635d3b1d307f00000000000000000000000000000000000000000000000000000000000000007f000000000000000000000000000000000000000000000000000000000000000060037f00000000000000000000000000000000000000000000000000000000000000007f00000000000000000000000000000000000000000000000000000000000000006040518663ffffffff1660e01b815260040161050795949392919061123c565b6020604051808303816000875af1158015610526573d6000803e3d6000fd5b505050506040513d601f19601f8201168201806040525081019061054a91906112a4565b9050807f10d712d992e93b5dcd2fb45b44dc511436ff77c66a5ca03bf2dbc89b07c160d160405160405180910390a250505050565b6000808281548110610594576105936112d1565b5b9060005260206000200160009054906101000a900473ffffffffffffffffffffffffffffffffffffffff169050919050565b6000600160009054906101000a900473ffffffffffffffffffffffffffffffffffffffff16905090565b60007f000000000000000000000000000000000000000000000000000000000000000063ffffffff16905090565b60008080549050905090565b6000600361ffff16905090565b6000600160149054906101000a900460ff16905090565b600060606000600160149054906101000a900460ff16600181111561067657610675610f0a565b5b6000600181111561068a57610689610f0a565b5b14905060007f0000000000000000000000000000000000000000000000000000000000000000600254426106be919061132f565b119050600080600080549050119050600080471190508380156106de5750825b80156106e75750815b80156106f05750805b955050505050915091565b60007f0000000000000000000000000000000000000000000000000000000000000000905090565b7f000000000000000000000000000000000000000000000000000000000000000034101561077d576040517f80ae043200000000000000000000000000000000000000000000000000000000815260040160405180910390fd5b6000600181111561079157610790610f0a565b5b600160149054906101000a900460ff1660018111156107b3576107b2610f0a565b5b146107ea576040517f7ec2ef9c00000000000000000000000000000000000000000000000000000000815260040160405180910390fd5b6000339080600181540180825580915050600190039060005260206000200160009091909190916101000a81548173ffffffffffffffffffffffffffffffffffffffff021916908373ffffffffffffffffffffffffffffffffffffffff1602179055503373ffffffffffffffffffffffffffffffffffffffff167fc013140ee7c0e76c7697e928d9a364c76f328b00fd4978e1b4ee61fa6974154d60405160405180910390a2565b6000600254905090565b60008080549050826000815181106108b7576108b66112d1565b5b60200260200101516108c99190611392565b905060008082815481106108e0576108df6112d1565b5b9060005260206000200160009054906101000a900473ffffffffffffffffffffffffffffffffffffffff16905080600160006101000a81548173ffffffffffffffffffffffffffffffffffffffff021916908373ffffffffffffffffffffffffffffffffffffffff1602179055506000600160146101000a81548160ff0219169083600181111561097457610973610f0a565b5b0217905550600067ffffffffffffffff81111561099457610993610bd4565b5b6040519080825280602002602001820160405280156109c25781602001602082028036833780820191505090505b50600090805190602001906109d8929190610acd565b504260028190555060008173ffffffffffffffffffffffffffffffffffffffff1647604051610a06906113f4565b60006040518083038185875af1925050503d8060008114610a43576040519150601f19603f3d011682016040523d82523d6000602084013e610a48565b606091505b5050905080610a83576040517f760b301700000000000000000000000000000000000000000000000000000000815260040160405180910390fd5b8173ffffffffffffffffffffffffffffffffffffffff167f27385c6bce45eba0fa17e24b25cc6bea4edd17adc706c6c30b2cea8c1039356e60405160405180910390a25050505050565b828054828255906000526020600020908101928215610b46579160200282015b82811115610b455782518260006101000a81548173ffffffffffffffffffffffffffffffffffffffff021916908373ffffffffffffffffffffffffffffffffffffffff16021790555091602001919060010190610aed565b5b509050610b539190610b57565b5090565b5b80821115610b70576000816000905550600101610b58565b5090565b6000604051905090565b600080fd5b600080fd5b6000819050919050565b610b9b81610b88565b8114610ba657600080fd5b50565b600081359050610bb881610b92565b92915050565b600080fd5b6000601f19601f8301169050919050565b7f4e487b7100000000000000000000000000000000000000000000000000000000600052604160045260246000fd5b610c0c82610bc3565b810181811067ffffffffffffffff82111715610c2b57610c2a610bd4565b5b80604052505050565b6000610c3e610b74565b9050610c4a8282610c03565b919050565b600067ffffffffffffffff821115610c6a57610c69610bd4565b5b602082029050602081019050919050565b600080fd5b6000610c93610c8e84610c4f565b610c34565b90508083825260208201905060208402830185811115610cb657610cb5610c7b565b5b835b81811015610cdf5780610ccb8882610ba9565b845260208401935050602081019050610cb8565b5050509392505050565b600082601f830112610cfe57610cfd610bbe565b5b8135610d0e848260208601610c80565b91505092915050565b60008060408385031215610d2e57610d2d610b7e565b5b6000610d3c85828601610ba9565b925050602083013567ffffffffffffffff811115610d5d57610d5c610b83565b5b610d6985828601610ce9565b9150509250929050565b600080fd5b60008083601f840112610d8e57610d8d610bbe565b5b8235905067ffffffffffffffff811115610dab57610daa610d73565b5b602083019150836001820283011115610dc757610dc6610c7b565b5b9250929050565b60008060208385031215610de557610de4610b7e565b5b600083013567ffffffffffffffff811115610e0357610e02610b83565b5b610e0f85828601610d78565b92509250509250929050565b600060208284031215610e3157610e30610b7e565b5b6000610e3f84828501610ba9565b91505092915050565b600073ffffffffffffffffffffffffffffffffffffffff82169050919050565b6000610e7382610e48565b9050919050565b610e8381610e68565b82525050565b6000602082019050610e9e6000830184610e7a565b92915050565b6000610eaf82610e48565b9050919050565b610ebf81610ea4565b82525050565b6000602082019050610eda6000830184610eb6565b92915050565b610ee981610b88565b82525050565b6000602082019050610f046000830184610ee0565b92915050565b7f4e487b7100000000000000000000000000000000000000000000000000000000600052602160045260246000fd5b60028110610f4a57610f49610f0a565b5b50565b6000819050610f5b82610f39565b919050565b6000610f6b82610f4d565b9050919050565b610f7b81610f60565b82525050565b6000602082019050610f966000830184610f72565b92915050565b600080fd5b600067ffffffffffffffff821115610fbc57610fbb610bd4565b5b610fc582610bc3565b9050602081019050919050565b82818337600083830152505050565b6000610ff4610fef84610fa1565b610c34565b9050828152602081018484840111156110105761100f610f9c565b5b61101b848285610fd2565b509392505050565b600082601f83011261103857611037610bbe565b5b8135611048848260208601610fe1565b91505092915050565b60006020828403121561106757611066610b7e565b5b600082013567ffffffffffffffff81111561108557611084610b83565b5b61109184828501611023565b91505092915050565b60008115159050919050565b6110af8161109a565b82525050565b600081519050919050565b600082825260208201905092915050565b60005b838110156110ef5780820151818401526020810190506110d4565b60008484015250505050565b6000611106826110b5565b61111081856110c0565b93506111208185602086016110d1565b61112981610bc3565b840191505092915050565b600060408201905061114960008301856110a6565b818103602083015261115b81846110fb565b90509392505050565b60006040820190506111796000830185610eb6565b6111866020830184610eb6565b9392505050565b60006060820190506111a26000830186610ee0565b6111af6020830185610ee0565b6111bc6040830184610ee0565b949350505050565b6000819050919050565b6111d7816111c4565b82525050565b600067ffffffffffffffff82169050919050565b6111fa816111dd565b82525050565b600061ffff82169050919050565b61121781611200565b82525050565b600063ffffffff82169050919050565b6112368161121d565b82525050565b600060a08201905061125160008301886111ce565b61125e60208301876111f1565b61126b604083018661120e565b611278606083018561122d565b611285608083018461122d565b9695505050505050565b60008151905061129e81610b92565b92915050565b6000602082840312156112ba576112b9610b7e565b5b60006112c88482850161128f565b91505092915050565b7f4e487b7100000000000000000000000000000000000000000000000000000000600052603260045260246000fd5b7f4e487b7100000000000000000000000000000000000000000000000000000000600052601160045260246000fd5b600061133a82610b88565b915061134583610b88565b925082820390508181111561135d5761135c611300565b5b92915050565b7f4e487b7100000000000000000000000000000000000000000000000000000000600052601260045260246000fd5b600061139d82610b88565b91506113a883610b88565b9250826113b8576113b7611363565b5b828206905092915050565b600081905092915050565b50565b60006113de6000836113c3565b91506113e9826113ce565b600082019050919050565b60006113ff826113d1565b915081905091905056fea26469706673582212207a1ced0c684ba0431098e9646d5b9ecf95a3bef05a9763a3547edac0ab12efab64736f6c63430008120033",
  "linkReferences": {},
  "deployedLinkReferences": {}
}