{
  "_format": "hh-sol-artifact-1",
  "contractName": "Lottery",
  "sourceName": "contracts/Lottery.sol",
  "abi": [
    {
      "inputs": [
        {
          "internalType": "address",
          "name": "vrfCoordinatorV2",
          "type": "address"
        },
        {
          "internalType": "uint256",
          "name": "ticketPrice",
          "type": "uint256"
        },
        {
          "internalType": "bytes32",
          "name": "gasLane",
          "type": "bytes32"
        },
        {
          "internalType": "uint64",
          "name": "subscriptionId",
          "type": "uint64"
        },
        {
          "internalType": "uint32",
          "name": "callbackGasLimit",
          "type": "uint32"
        }
      ],
      "stateMutability": "nonpayable",
      "type": "constructor"
    },
    {
      "inputs": [],
      "name": "ErrorLottery__InsufficientTicketAmount",
      "type": "error"
    },
    {
      "inputs": [],
      "name": "ErrorLottery__PayingWinnerFailed",
      "type": "error"
    },
    {
      "inputs": [
        {
          "internalType": "address",
          "name": "have",
          "type": "address"
        },
        {
          "internalType": "address",
          "name": "want",
          "type": "address"
        }
      ],
      "name": "OnlyCoordinatorCanFulfill",
      "type": "error"
    },
    {
      "anonymous": false,
      "inputs": [
        {
          "indexed": true,
          "internalType": "uint256",
          "name": "requestId",
          "type": "uint256"
        }
      ],
      "name": "EventLottery__RequestRandomWords",
      "type": "event"
    },
    {
      "anonymous": false,
      "inputs": [
        {
          "indexed": true,
          "internalType": "address",
          "name": "player",
          "type": "address"
        }
      ],
      "name": "EventLottery__TicketBuyed",
      "type": "event"
    },
    {
      "anonymous": false,
      "inputs": [
        {
          "indexed": true,
          "internalType": "address",
          "name": "winner",
          "type": "address"
        }
      ],
      "name": "EventLottery__WinnerSelectedAndPaid",
      "type": "event"
    },
    {
      "inputs": [],
      "name": "buyTicket",
      "outputs": [],
      "stateMutability": "payable",
      "type": "function"
    },
    {
      "inputs": [
        {
          "internalType": "uint256",
          "name": "index",
          "type": "uint256"
        }
      ],
      "name": "getPlayers",
      "outputs": [
        {
          "internalType": "address payable",
          "name": "",
          "type": "address"
        }
      ],
      "stateMutability": "view",
      "type": "function"
    },
    {
      "inputs": [],
      "name": "getRecentWinner",
      "outputs": [
        {
          "internalType": "address",
          "name": "",
          "type": "address"
        }
      ],
      "stateMutability": "view",
      "type": "function"
    },
    {
      "inputs": [],
      "name": "getTicketPrice",
      "outputs": [
        {
          "internalType": "uint256",
          "name": "",
          "type": "uint256"
        }
      ],
      "stateMutability": "view",
      "type": "function"
    },
    {
      "inputs": [],
      "name": "pickWinner",
      "outputs": [],
      "stateMutability": "nonpayable",
      "type": "function"
    },
    {
      "inputs": [
        {
          "internalType": "uint256",
          "name": "requestId",
          "type": "uint256"
        },
        {
          "internalType": "uint256[]",
          "name": "randomWords",
          "type": "uint256[]"
        }
      ],
      "name": "rawFulfillRandomWords",
      "outputs": [],
      "stateMutability": "nonpayable",
      "type": "function"
    }
  ],
  "bytecode": "0x610160604052600163ffffffff166101409063ffffffff168152503480156200002757600080fd5b5060405162000f1438038062000f1483398181016040528101906200004d91906200026a565b848073ffffffffffffffffffffffffffffffffffffffff1660808173ffffffffffffffffffffffffffffffffffffffff1681525050508360a081815250508473ffffffffffffffffffffffffffffffffffffffff1660c08173ffffffffffffffffffffffffffffffffffffffff16815250508260e081815250508167ffffffffffffffff166101008167ffffffffffffffff16815250508063ffffffff166101208163ffffffff16815250505050505050620002f2565b600080fd5b600073ffffffffffffffffffffffffffffffffffffffff82169050919050565b6000620001368262000109565b9050919050565b620001488162000129565b81146200015457600080fd5b50565b60008151905062000168816200013d565b92915050565b6000819050919050565b62000183816200016e565b81146200018f57600080fd5b50565b600081519050620001a38162000178565b92915050565b6000819050919050565b620001be81620001a9565b8114620001ca57600080fd5b50565b600081519050620001de81620001b3565b92915050565b600067ffffffffffffffff82169050919050565b6200020381620001e4565b81146200020f57600080fd5b50565b6000815190506200022381620001f8565b92915050565b600063ffffffff82169050919050565b620002448162000229565b81146200025057600080fd5b50565b600081519050620002648162000239565b92915050565b600080600080600060a0868803121562000289576200028862000104565b5b6000620002998882890162000157565b9550506020620002ac8882890162000192565b9450506040620002bf88828901620001cd565b9350506060620002d28882890162000212565b9250506080620002e58882890162000253565b9150509295509295909350565b60805160a05160c05160e051610100516101205161014051610bb96200035b600039600061030d015260006102ec015260006102c9015260006102a80152600061026c0152600081816103c501526103eb015260008181610139015261018d0152610bb96000f3fe6080604052600436106100555760003560e01c80631fe543e31461005a578063460e204914610083578063473f1ddc146100c05780635d495aea146100eb57806387bb7ae014610102578063edca914c1461012d575b600080fd5b34801561006657600080fd5b50610081600480360381019061007c919061082d565b610137565b005b34801561008f57600080fd5b506100aa60048036038101906100a59190610889565b6101f7565b6040516100b791906108f7565b60405180910390f35b3480156100cc57600080fd5b506100d561023e565b6040516100e29190610933565b60405180910390f35b3480156100f757600080fd5b50610100610268565b005b34801561010e57600080fd5b506101176103c1565b604051610124919061095d565b60405180910390f35b6101356103e9565b005b7f000000000000000000000000000000000000000000000000000000000000000073ffffffffffffffffffffffffffffffffffffffff163373ffffffffffffffffffffffffffffffffffffffff16146101e957337f00000000000000000000000000000000000000000000000000000000000000006040517f1cf993f40000000000000000000000000000000000000000000000000000000081526004016101e0929190610978565b60405180910390fd5b6101f382826104eb565b5050565b600080828154811061020c5761020b6109a1565b5b9060005260206000200160009054906101000a900473ffffffffffffffffffffffffffffffffffffffff169050919050565b6000600160009054906101000a900473ffffffffffffffffffffffffffffffffffffffff16905090565b60007f000000000000000000000000000000000000000000000000000000000000000073ffffffffffffffffffffffffffffffffffffffff16635d3b1d307f00000000000000000000000000000000000000000000000000000000000000007f000000000000000000000000000000000000000000000000000000000000000060037f00000000000000000000000000000000000000000000000000000000000000007f00000000000000000000000000000000000000000000000000000000000000006040518663ffffffff1660e01b815260040161034c959493929190610a48565b6020604051808303816000875af115801561036b573d6000803e3d6000fd5b505050506040513d601f19601f8201168201806040525081019061038f9190610ab0565b9050807f10d712d992e93b5dcd2fb45b44dc511436ff77c66a5ca03bf2dbc89b07c160d160405160405180910390a250565b60007f0000000000000000000000000000000000000000000000000000000000000000905090565b7f0000000000000000000000000000000000000000000000000000000000000000341015610443576040517f80ae043200000000000000000000000000000000000000000000000000000000815260040160405180910390fd5b6000339080600181540180825580915050600190039060005260206000200160009091909190916101000a81548173ffffffffffffffffffffffffffffffffffffffff021916908373ffffffffffffffffffffffffffffffffffffffff1602179055503373ffffffffffffffffffffffffffffffffffffffff167fc013140ee7c0e76c7697e928d9a364c76f328b00fd4978e1b4ee61fa6974154d60405160405180910390a2565b6000808054905082600081518110610506576105056109a1565b5b60200260200101516105189190610b0c565b9050600080828154811061052f5761052e6109a1565b5b9060005260206000200160009054906101000a900473ffffffffffffffffffffffffffffffffffffffff16905080600160006101000a81548173ffffffffffffffffffffffffffffffffffffffff021916908373ffffffffffffffffffffffffffffffffffffffff16021790555060008173ffffffffffffffffffffffffffffffffffffffff16476040516105c390610b6e565b60006040518083038185875af1925050503d8060008114610600576040519150601f19603f3d011682016040523d82523d6000602084013e610605565b606091505b5050905080610640576040517f760b301700000000000000000000000000000000000000000000000000000000815260040160405180910390fd5b8173ffffffffffffffffffffffffffffffffffffffff167f27385c6bce45eba0fa17e24b25cc6bea4edd17adc706c6c30b2cea8c1039356e60405160405180910390a25050505050565b6000604051905090565b600080fd5b600080fd5b6000819050919050565b6106b18161069e565b81146106bc57600080fd5b50565b6000813590506106ce816106a8565b92915050565b600080fd5b6000601f19601f8301169050919050565b7f4e487b7100000000000000000000000000000000000000000000000000000000600052604160045260246000fd5b610722826106d9565b810181811067ffffffffffffffff82111715610741576107406106ea565b5b80604052505050565b600061075461068a565b90506107608282610719565b919050565b600067ffffffffffffffff8211156107805761077f6106ea565b5b602082029050602081019050919050565b600080fd5b60006107a96107a484610765565b61074a565b905080838252602082019050602084028301858111156107cc576107cb610791565b5b835b818110156107f557806107e188826106bf565b8452602084019350506020810190506107ce565b5050509392505050565b600082601f830112610814576108136106d4565b5b8135610824848260208601610796565b91505092915050565b6000806040838503121561084457610843610694565b5b6000610852858286016106bf565b925050602083013567ffffffffffffffff81111561087357610872610699565b5b61087f858286016107ff565b9150509250929050565b60006020828403121561089f5761089e610694565b5b60006108ad848285016106bf565b91505092915050565b600073ffffffffffffffffffffffffffffffffffffffff82169050919050565b60006108e1826108b6565b9050919050565b6108f1816108d6565b82525050565b600060208201905061090c60008301846108e8565b92915050565b600061091d826108b6565b9050919050565b61092d81610912565b82525050565b60006020820190506109486000830184610924565b92915050565b6109578161069e565b82525050565b6000602082019050610972600083018461094e565b92915050565b600060408201905061098d6000830185610924565b61099a6020830184610924565b9392505050565b7f4e487b7100000000000000000000000000000000000000000000000000000000600052603260045260246000fd5b6000819050919050565b6109e3816109d0565b82525050565b600067ffffffffffffffff82169050919050565b610a06816109e9565b82525050565b600061ffff82169050919050565b610a2381610a0c565b82525050565b600063ffffffff82169050919050565b610a4281610a29565b82525050565b600060a082019050610a5d60008301886109da565b610a6a60208301876109fd565b610a776040830186610a1a565b610a846060830185610a39565b610a916080830184610a39565b9695505050505050565b600081519050610aaa816106a8565b92915050565b600060208284031215610ac657610ac5610694565b5b6000610ad484828501610a9b565b91505092915050565b7f4e487b7100000000000000000000000000000000000000000000000000000000600052601260045260246000fd5b6000610b178261069e565b9150610b228361069e565b925082610b3257610b31610add565b5b828206905092915050565b600081905092915050565b50565b6000610b58600083610b3d565b9150610b6382610b48565b600082019050919050565b6000610b7982610b4b565b915081905091905056fea26469706673582212203971cd7a063a9c7b1b31c3f90b8973f9f5513182b9bfa0870ccbfde57a73bc1064736f6c63430008120033",
  "linkReferences": {},
  "deployedLinkReferences": {}
}